{
	"contracts/Loren.sol": {
		"MyERC20": {
			"abi": [
				{
					"inputs": [],
					"stateMutability": "nonpayable",
					"type": "constructor"
				},
				{
					"anonymous": false,
					"inputs": [
						{
							"indexed": true,
							"internalType": "address",
							"name": "owner",
							"type": "address"
						},
						{
							"indexed": true,
							"internalType": "address",
							"name": "spender",
							"type": "address"
						},
						{
							"indexed": false,
							"internalType": "uint256",
							"name": "value",
							"type": "uint256"
						}
					],
					"name": "Approval",
					"type": "event"
				},
				{
					"anonymous": false,
					"inputs": [
						{
							"indexed": true,
							"internalType": "address",
							"name": "from",
							"type": "address"
						},
						{
							"indexed": true,
							"internalType": "address",
							"name": "to",
							"type": "address"
						},
						{
							"indexed": false,
							"internalType": "uint256",
							"name": "value",
							"type": "uint256"
						}
					],
					"name": "Transfer",
					"type": "event"
				},
				{
					"inputs": [
						{
							"internalType": "address",
							"name": "owner",
							"type": "address"
						},
						{
							"internalType": "address",
							"name": "spender",
							"type": "address"
						}
					],
					"name": "allowance",
					"outputs": [
						{
							"internalType": "uint256",
							"name": "",
							"type": "uint256"
						}
					],
					"stateMutability": "view",
					"type": "function"
				},
				{
					"inputs": [
						{
							"internalType": "address",
							"name": "spender",
							"type": "address"
						},
						{
							"internalType": "uint256",
							"name": "amount",
							"type": "uint256"
						}
					],
					"name": "approve",
					"outputs": [
						{
							"internalType": "bool",
							"name": "",
							"type": "bool"
						}
					],
					"stateMutability": "nonpayable",
					"type": "function"
				},
				{
					"inputs": [
						{
							"internalType": "address",
							"name": "account",
							"type": "address"
						}
					],
					"name": "balanceOf",
					"outputs": [
						{
							"internalType": "uint256",
							"name": "",
							"type": "uint256"
						}
					],
					"stateMutability": "view",
					"type": "function"
				},
				{
					"inputs": [
						{
							"internalType": "address",
							"name": "account",
							"type": "address"
						},
						{
							"internalType": "uint256",
							"name": "amount",
							"type": "uint256"
						}
					],
					"name": "burn",
					"outputs": [],
					"stateMutability": "nonpayable",
					"type": "function"
				},
				{
					"inputs": [],
					"name": "decimals",
					"outputs": [
						{
							"internalType": "uint8",
							"name": "",
							"type": "uint8"
						}
					],
					"stateMutability": "view",
					"type": "function"
				},
				{
					"inputs": [
						{
							"internalType": "address",
							"name": "spender",
							"type": "address"
						},
						{
							"internalType": "uint256",
							"name": "subtractedValue",
							"type": "uint256"
						}
					],
					"name": "decreaseAllowance",
					"outputs": [
						{
							"internalType": "bool",
							"name": "",
							"type": "bool"
						}
					],
					"stateMutability": "nonpayable",
					"type": "function"
				},
				{
					"inputs": [
						{
							"internalType": "address",
							"name": "spender",
							"type": "address"
						},
						{
							"internalType": "uint256",
							"name": "addedValue",
							"type": "uint256"
						}
					],
					"name": "increaseAllowance",
					"outputs": [
						{
							"internalType": "bool",
							"name": "",
							"type": "bool"
						}
					],
					"stateMutability": "nonpayable",
					"type": "function"
				},
				{
					"inputs": [
						{
							"internalType": "address",
							"name": "account",
							"type": "address"
						},
						{
							"internalType": "uint256",
							"name": "amount",
							"type": "uint256"
						}
					],
					"name": "mint",
					"outputs": [],
					"stateMutability": "nonpayable",
					"type": "function"
				},
				{
					"inputs": [],
					"name": "name",
					"outputs": [
						{
							"internalType": "string",
							"name": "",
							"type": "string"
						}
					],
					"stateMutability": "view",
					"type": "function"
				},
				{
					"inputs": [],
					"name": "symbol",
					"outputs": [
						{
							"internalType": "string",
							"name": "",
							"type": "string"
						}
					],
					"stateMutability": "view",
					"type": "function"
				},
				{
					"inputs": [],
					"name": "token_transfer_count",
					"outputs": [
						{
							"internalType": "uint256",
							"name": "",
							"type": "uint256"
						}
					],
					"stateMutability": "view",
					"type": "function"
				},
				{
					"inputs": [],
					"name": "totalSupply",
					"outputs": [
						{
							"internalType": "uint256",
							"name": "",
							"type": "uint256"
						}
					],
					"stateMutability": "view",
					"type": "function"
				},
				{
					"inputs": [
						{
							"internalType": "address",
							"name": "recipient",
							"type": "address"
						},
						{
							"internalType": "uint256",
							"name": "amount",
							"type": "uint256"
						}
					],
					"name": "transfer",
					"outputs": [
						{
							"internalType": "bool",
							"name": "",
							"type": "bool"
						}
					],
					"stateMutability": "nonpayable",
					"type": "function"
				},
				{
					"inputs": [
						{
							"internalType": "address",
							"name": "sender",
							"type": "address"
						},
						{
							"internalType": "address",
							"name": "recipient",
							"type": "address"
						},
						{
							"internalType": "uint256",
							"name": "amount",
							"type": "uint256"
						}
					],
					"name": "transferFrom",
					"outputs": [
						{
							"internalType": "bool",
							"name": "",
							"type": "bool"
						}
					],
					"stateMutability": "nonpayable",
					"type": "function"
				}
			],
			"devdoc": {
				"kind": "dev",
				"methods": {
					"allowance(address,address)": {
						"details": "See {IERC20-allowance}."
					},
					"approve(address,uint256)": {
						"details": "See {IERC20-approve}. Requirements: - `spender` cannot be the zero address."
					},
					"balanceOf(address)": {
						"details": "See {IERC20-balanceOf}."
					},
					"decimals()": {
						"details": "Returns the number of decimals used to get its user representation. For example, if `decimals` equals `2`, a balance of `505` tokens should be displayed to a user as `5,05` (`505 / 10 ** 2`). Tokens usually opt for a value of 18, imitating the relationship between Ether and Wei. This is the value {ERC20} uses, unless this function is overridden; NOTE: This information is only used for _display_ purposes: it in no way affects any of the arithmetic of the contract, including {IERC20-balanceOf} and {IERC20-transfer}."
					},
					"decreaseAllowance(address,uint256)": {
						"details": "Atomically decreases the allowance granted to `spender` by the caller. This is an alternative to {approve} that can be used as a mitigation for problems described in {IERC20-approve}. Emits an {Approval} event indicating the updated allowance. Requirements: - `spender` cannot be the zero address. - `spender` must have allowance for the caller of at least `subtractedValue`."
					},
					"increaseAllowance(address,uint256)": {
						"details": "Atomically increases the allowance granted to `spender` by the caller. This is an alternative to {approve} that can be used as a mitigation for problems described in {IERC20-approve}. Emits an {Approval} event indicating the updated allowance. Requirements: - `spender` cannot be the zero address."
					},
					"name()": {
						"details": "Returns the name of the token."
					},
					"symbol()": {
						"details": "Returns the symbol of the token, usually a shorter version of the name."
					},
					"totalSupply()": {
						"details": "See {IERC20-totalSupply}."
					},
					"transfer(address,uint256)": {
						"details": "See {IERC20-transfer}. Requirements: - `recipient` cannot be the zero address. - the caller must have a balance of at least `amount`."
					},
					"transferFrom(address,address,uint256)": {
						"details": "See {IERC20-transferFrom}. Emits an {Approval} event indicating the updated allowance. This is not required by the EIP. See the note at the beginning of {ERC20}. Requirements: - `sender` and `recipient` cannot be the zero address. - `sender` must have a balance of at least `amount`. - the caller must have allowance for ``sender``'s tokens of at least `amount`."
					}
				},
				"version": 1
			},
			"evm": {
				"assembly": "    /* \"contracts/Loren.sol\":166:670  contract MyERC20 is ERC20 {... */\n  mstore(0x40, 0x80)\n    /* \"contracts/Loren.sol\":234:235  0 */\n  0x00\n    /* \"contracts/Loren.sol\":196:235  uint256 public token_transfer_count = 0 */\n  0x05\n  sstore\n    /* \"contracts/Loren.sol\":240:317  constructor () ERC20(\"Token\", \"TKN\") {... */\n  callvalue\n  dup1\n  iszero\n  tag_1\n  jumpi\n  0x00\n  dup1\n  revert\ntag_1:\n  pop\n    /* \"https://github.com/OpenZeppelin/openzeppelin-contracts/blob/v4.1.0/contracts/token/ERC20/ERC20.sol\":1898:2012  constructor (string memory name_, string memory symbol_) {... */\n  mload(0x40)\n  dup1\n  0x40\n  add\n  0x40\n  mstore\n  dup1\n  0x05\n  dup2\n  mstore\n  0x20\n  add\n  0x546f6b656e000000000000000000000000000000000000000000000000000000\n  dup2\n  mstore\n  pop\n  mload(0x40)\n  dup1\n  0x40\n  add\n  0x40\n  mstore\n  dup1\n  0x03\n  dup2\n  mstore\n  0x20\n  add\n  0x544b4e0000000000000000000000000000000000000000000000000000000000\n  dup2\n  mstore\n  pop\n    /* \"https://github.com/OpenZeppelin/openzeppelin-contracts/blob/v4.1.0/contracts/token/ERC20/ERC20.sol\":1973:1978  name_ */\n  dup2\n    /* \"https://github.com/OpenZeppelin/openzeppelin-contracts/blob/v4.1.0/contracts/token/ERC20/ERC20.sol\":1965:1970  _name */\n  0x03\n    /* \"https://github.com/OpenZeppelin/openzeppelin-contracts/blob/v4.1.0/contracts/token/ERC20/ERC20.sol\":1965:1978  _name = name_ */\n  swap1\n  dup1\n  mload\n  swap1\n  0x20\n  add\n  swap1\n  tag_5\n  swap3\n  swap2\n  swap1\n  tag_6\n  jump\t// in\ntag_5:\n  pop\n    /* \"https://github.com/OpenZeppelin/openzeppelin-contracts/blob/v4.1.0/contracts/token/ERC20/ERC20.sol\":1988:2005  _symbol = symbol_ */\n  dup1\n  mload\n  tag_7\n  swap1\n    /* \"https://github.com/OpenZeppelin/openzeppelin-contracts/blob/v4.1.0/contracts/token/ERC20/ERC20.sol\":1988:1995  _symbol */\n  0x04\n  swap1\n    /* \"https://github.com/OpenZeppelin/openzeppelin-contracts/blob/v4.1.0/contracts/token/ERC20/ERC20.sol\":1988:2005  _symbol = symbol_ */\n  0x20\n  dup5\n  add\n  swap1\n  tag_6\n  jump\t// in\ntag_7:\n  pop\n    /* \"https://github.com/OpenZeppelin/openzeppelin-contracts/blob/v4.1.0/contracts/token/ERC20/ERC20.sol\":1898:2012  constructor (string memory name_, string memory symbol_) {... */\n  pop\n  pop\n    /* \"contracts/Loren.sol\":283:312  _mint(msg.sender, 1000 ether) */\n  tag_9\n    /* \"contracts/Loren.sol\":289:299  msg.sender */\n  caller\n    /* \"contracts/Loren.sol\":301:311  1000 ether */\n  0x3635c9adc5dea00000\n    /* \"contracts/Loren.sol\":283:288  _mint */\n  mul(0x0100000000, tag_10)\n    /* \"contracts/Loren.sol\":283:312  _mint(msg.sender, 1000 ether) */\n  0x0100000000\n  swap1\n  div\n  jump\t// in\ntag_9:\n    /* \"contracts/Loren.sol\":166:670  contract MyERC20 is ERC20 {... */\n  jump(tag_36)\n    /* \"https://github.com/OpenZeppelin/openzeppelin-contracts/blob/v4.1.0/contracts/token/ERC20/ERC20.sol\":8023:8353  function _mint(address account, uint256 amount) internal virtual {... */\ntag_10:\n  sub(exp(0x02, 0xa0), 0x01)\n    /* \"https://github.com/OpenZeppelin/openzeppelin-contracts/blob/v4.1.0/contracts/token/ERC20/ERC20.sol\":8106:8127  account != address(0) */\n  dup3\n  and\n    /* \"https://github.com/OpenZeppelin/openzeppelin-contracts/blob/v4.1.0/contracts/token/ERC20/ERC20.sol\":8098:8163  require(account != address(0), \"ERC20: mint to the zero address\") */\n  tag_13\n  jumpi\n  mload(0x40)\n  0x08c379a000000000000000000000000000000000000000000000000000000000\n  dup2\n  mstore\n    /* \"#utility.yul\":216:218   */\n  0x20\n    /* \"https://github.com/OpenZeppelin/openzeppelin-contracts/blob/v4.1.0/contracts/token/ERC20/ERC20.sol\":8098:8163  require(account != address(0), \"ERC20: mint to the zero address\") */\n  0x04\n  dup3\n  add\n    /* \"#utility.yul\":198:219   */\n  mstore\n    /* \"#utility.yul\":255:257   */\n  0x1f\n    /* \"#utility.yul\":235:253   */\n  0x24\n  dup3\n  add\n    /* \"#utility.yul\":228:258   */\n  mstore\n    /* \"#utility.yul\":294:327   */\n  0x45524332303a206d696e7420746f20746865207a65726f206164647265737300\n    /* \"#utility.yul\":274:292   */\n  0x44\n  dup3\n  add\n    /* \"#utility.yul\":267:328   */\n  mstore\n    /* \"#utility.yul\":345:363   */\n  0x64\n  add\n    /* \"https://github.com/OpenZeppelin/openzeppelin-contracts/blob/v4.1.0/contracts/token/ERC20/ERC20.sol\":8098:8163  require(account != address(0), \"ERC20: mint to the zero address\") */\n  mload(0x40)\n  dup1\n  swap2\n  sub\n  swap1\n  revert\ntag_13:\n    /* \"https://github.com/OpenZeppelin/openzeppelin-contracts/blob/v4.1.0/contracts/token/ERC20/ERC20.sol\":8174:8223  _beforeTokenTransfer(address(0), account, amount) */\n  tag_16\n    /* \"https://github.com/OpenZeppelin/openzeppelin-contracts/blob/v4.1.0/contracts/token/ERC20/ERC20.sol\":8203:8204  0 */\n  0x00\n    /* \"https://github.com/OpenZeppelin/openzeppelin-contracts/blob/v4.1.0/contracts/token/ERC20/ERC20.sol\":8207:8214  account */\n  dup4\n    /* \"https://github.com/OpenZeppelin/openzeppelin-contracts/blob/v4.1.0/contracts/token/ERC20/ERC20.sol\":8216:8222  amount */\n  dup4\n    /* \"https://github.com/OpenZeppelin/openzeppelin-contracts/blob/v4.1.0/contracts/token/ERC20/ERC20.sol\":8174:8194  _beforeTokenTransfer */\n  0x0100000000\n  tag_17\n  dup2\n  mul\n    /* \"https://github.com/OpenZeppelin/openzeppelin-contracts/blob/v4.1.0/contracts/token/ERC20/ERC20.sol\":8174:8223  _beforeTokenTransfer(address(0), account, amount) */\n  div\n  jump\t// in\ntag_16:\n    /* \"https://github.com/OpenZeppelin/openzeppelin-contracts/blob/v4.1.0/contracts/token/ERC20/ERC20.sol\":8250:8256  amount */\n  dup1\n    /* \"https://github.com/OpenZeppelin/openzeppelin-contracts/blob/v4.1.0/contracts/token/ERC20/ERC20.sol\":8234:8246  _totalSupply */\n  0x02\n  0x00\n    /* \"https://github.com/OpenZeppelin/openzeppelin-contracts/blob/v4.1.0/contracts/token/ERC20/ERC20.sol\":8234:8256  _totalSupply += amount */\n  dup3\n  dup3\n  sload\n  tag_18\n  swap2\n  swap1\n  tag_19\n  jump\t// in\ntag_18:\n  swap1\n  swap2\n  sstore\n  pop\n  pop\n  sub(exp(0x02, 0xa0), 0x01)\n    /* \"https://github.com/OpenZeppelin/openzeppelin-contracts/blob/v4.1.0/contracts/token/ERC20/ERC20.sol\":8266:8284  _balances[account] */\n  dup3\n  and\n    /* \"https://github.com/OpenZeppelin/openzeppelin-contracts/blob/v4.1.0/contracts/token/ERC20/ERC20.sol\":8266:8275  _balances */\n  0x00\n    /* \"https://github.com/OpenZeppelin/openzeppelin-contracts/blob/v4.1.0/contracts/token/ERC20/ERC20.sol\":8266:8284  _balances[account] */\n  swap1\n  dup2\n  mstore\n  0x20\n  dup2\n  swap1\n  mstore\n  0x40\n  dup2\n  keccak256\n    /* \"https://github.com/OpenZeppelin/openzeppelin-contracts/blob/v4.1.0/contracts/token/ERC20/ERC20.sol\":8266:8294  _balances[account] += amount */\n  dup1\n  sload\n    /* \"https://github.com/OpenZeppelin/openzeppelin-contracts/blob/v4.1.0/contracts/token/ERC20/ERC20.sol\":8288:8294  amount */\n  dup4\n  swap3\n    /* \"https://github.com/OpenZeppelin/openzeppelin-contracts/blob/v4.1.0/contracts/token/ERC20/ERC20.sol\":8266:8275  _balances */\n  swap1\n    /* \"https://github.com/OpenZeppelin/openzeppelin-contracts/blob/v4.1.0/contracts/token/ERC20/ERC20.sol\":8266:8294  _balances[account] += amount */\n  tag_20\n  swap1\n    /* \"https://github.com/OpenZeppelin/openzeppelin-contracts/blob/v4.1.0/contracts/token/ERC20/ERC20.sol\":8288:8294  amount */\n  dup5\n  swap1\n    /* \"https://github.com/OpenZeppelin/openzeppelin-contracts/blob/v4.1.0/contracts/token/ERC20/ERC20.sol\":8266:8294  _balances[account] += amount */\n  tag_19\n  jump\t// in\ntag_20:\n  swap1\n  swap2\n  sstore\n  pop\n  pop\n    /* \"https://github.com/OpenZeppelin/openzeppelin-contracts/blob/v4.1.0/contracts/token/ERC20/ERC20.sol\":8309:8346  Transfer(address(0), account, amount) */\n  mload(0x40)\n    /* \"#utility.yul\":520:545   */\n  dup2\n  dup2\n  mstore\n  sub(exp(0x02, 0xa0), 0x01)\n    /* \"https://github.com/OpenZeppelin/openzeppelin-contracts/blob/v4.1.0/contracts/token/ERC20/ERC20.sol\":8309:8346  Transfer(address(0), account, amount) */\n  dup4\n  and\n  swap1\n    /* \"https://github.com/OpenZeppelin/openzeppelin-contracts/blob/v4.1.0/contracts/token/ERC20/ERC20.sol\":8326:8327  0 */\n  0x00\n  swap1\n    /* \"https://github.com/OpenZeppelin/openzeppelin-contracts/blob/v4.1.0/contracts/token/ERC20/ERC20.sol\":8309:8346  Transfer(address(0), account, amount) */\n  0xddf252ad1be2c89b69c2b068fc378daa952ba7f163c4a11628f55a4df523b3ef\n  swap1\n    /* \"#utility.yul\":508:510   */\n  0x20\n    /* \"#utility.yul\":493:511   */\n  add\n    /* \"https://github.com/OpenZeppelin/openzeppelin-contracts/blob/v4.1.0/contracts/token/ERC20/ERC20.sol\":8309:8346  Transfer(address(0), account, amount) */\n  mload(0x40)\n  dup1\n  swap2\n  sub\n  swap1\n  log3\n    /* \"https://github.com/OpenZeppelin/openzeppelin-contracts/blob/v4.1.0/contracts/token/ERC20/ERC20.sol\":8023:8353  function _mint(address account, uint256 amount) internal virtual {... */\n  pop\n  pop\n  jump\t// out\n    /* \"contracts/Loren.sol\":540:668  function _beforeTokenTransfer(address from, address to, uint256 amount) internal override... */\ntag_17:\n    /* \"contracts/Loren.sol\":662:663  1 */\n  0x01\n    /* \"contracts/Loren.sol\":638:658  token_transfer_count */\n  0x05\n  0x00\n    /* \"contracts/Loren.sol\":638:663  token_transfer_count += 1 */\n  dup3\n  dup3\n  sload\n  tag_24\n  swap2\n  swap1\n  tag_19\n  jump\t// in\ntag_24:\n  swap1\n  swap2\n  sstore\n  pop\n  pop\n  pop\n  pop\n  pop\n    /* \"contracts/Loren.sol\":540:668  function _beforeTokenTransfer(address from, address to, uint256 amount) internal override... */\n  jump\t// out\n    /* \"contracts/Loren.sol\":166:670  contract MyERC20 is ERC20 {... */\ntag_6:\n  dup3\n  dup1\n  sload\n  tag_25\n  swap1\n  tag_26\n  jump\t// in\ntag_25:\n  swap1\n  0x00\n  mstore\n  keccak256(0x00, 0x20)\n  swap1\n  0x1f\n  add\n  0x20\n  swap1\n  div\n  dup2\n  add\n  swap3\n  dup3\n  tag_28\n  jumpi\n  0x00\n  dup6\n  sstore\n  jump(tag_31)\ntag_28:\n  dup3\n  0x1f\n  lt\n  tag_29\n  jumpi\n  dup1\n  mload\n  not(0xff)\n  and\n  dup4\n  dup1\n  add\n  or\n  dup6\n  sstore\n  jump(tag_31)\ntag_29:\n  dup3\n  dup1\n  add\n  0x01\n  add\n  dup6\n  sstore\n  dup3\n  iszero\n  tag_31\n  jumpi\n  swap2\n  dup3\n  add\ntag_30:\n  dup3\n  dup2\n  gt\n  iszero\n  tag_31\n  jumpi\n  dup3\n  mload\n  dup3\n  sstore\n  swap2\n  0x20\n  add\n  swap2\n  swap1\n  0x01\n  add\n  swap1\n  jump(tag_30)\ntag_31:\n  pop\n  tag_32\n  swap3\n  swap2\n  pop\n  tag_33\n  jump\t// in\ntag_32:\n  pop\n  swap1\n  jump\t// out\ntag_33:\ntag_34:\n  dup1\n  dup3\n  gt\n  iszero\n  tag_32\n  jumpi\n  0x00\n  dup2\n  sstore\n  0x01\n  add\n  jump(tag_34)\n    /* \"#utility.yul\":556:838   */\ntag_19:\n    /* \"#utility.yul\":596:599   */\n  0x00\n    /* \"#utility.yul\":627:628   */\n  dup3\n    /* \"#utility.yul\":623:629   */\n  not\n    /* \"#utility.yul\":620:621   */\n  dup3\n    /* \"#utility.yul\":617:630   */\n  gt\n    /* \"#utility.yul\":614:616   */\n  iszero\n  tag_40\n  jumpi\n    /* \"#utility.yul\":663:740   */\n  0x4e487b7100000000000000000000000000000000000000000000000000000000\n    /* \"#utility.yul\":660:661   */\n  0x00\n    /* \"#utility.yul\":653:741   */\n  mstore\n    /* \"#utility.yul\":764:768   */\n  0x11\n    /* \"#utility.yul\":761:762   */\n  0x04\n    /* \"#utility.yul\":754:769   */\n  mstore\n    /* \"#utility.yul\":792:796   */\n  0x24\n    /* \"#utility.yul\":789:790   */\n  0x00\n    /* \"#utility.yul\":782:797   */\n  revert\n    /* \"#utility.yul\":614:616   */\ntag_40:\n  pop\n    /* \"#utility.yul\":823:832   */\n  add\n  swap1\n    /* \"#utility.yul\":604:838   */\n  jump\t// out\n    /* \"#utility.yul\":843:1280   */\ntag_26:\n    /* \"#utility.yul\":928:929   */\n  0x02\n    /* \"#utility.yul\":918:930   */\n  dup2\n  div\n    /* \"#utility.yul\":975:976   */\n  0x01\n    /* \"#utility.yul\":965:977   */\n  dup3\n  and\n  dup1\n    /* \"#utility.yul\":986:988   */\n  tag_42\n  jumpi\n    /* \"#utility.yul\":1040:1044   */\n  0x7f\n    /* \"#utility.yul\":1032:1038   */\n  dup3\n    /* \"#utility.yul\":1028:1045   */\n  and\n    /* \"#utility.yul\":1018:1045   */\n  swap2\n  pop\n    /* \"#utility.yul\":986:988   */\ntag_42:\n    /* \"#utility.yul\":1093:1095   */\n  0x20\n    /* \"#utility.yul\":1085:1091   */\n  dup3\n    /* \"#utility.yul\":1082:1096   */\n  lt\n    /* \"#utility.yul\":1062:1080   */\n  dup2\n    /* \"#utility.yul\":1059:1097   */\n  eq\n    /* \"#utility.yul\":1056:1058   */\n  iszero\n  tag_43\n  jumpi\n    /* \"#utility.yul\":1130:1207   */\n  0x4e487b7100000000000000000000000000000000000000000000000000000000\n    /* \"#utility.yul\":1127:1128   */\n  0x00\n    /* \"#utility.yul\":1120:1208   */\n  mstore\n    /* \"#utility.yul\":1231:1235   */\n  0x22\n    /* \"#utility.yul\":1228:1229   */\n  0x04\n    /* \"#utility.yul\":1221:1236   */\n  mstore\n    /* \"#utility.yul\":1259:1263   */\n  0x24\n    /* \"#utility.yul\":1256:1257   */\n  0x00\n    /* \"#utility.yul\":1249:1264   */\n  revert\n    /* \"#utility.yul\":1056:1058   */\ntag_43:\n  pop\n    /* \"#utility.yul\":898:1280   */\n  swap2\n  swap1\n  pop\n  jump\t// out\ntag_36:\n    /* \"contracts/Loren.sol\":166:670  contract MyERC20 is ERC20 {... */\n  dataSize(sub_0)\n  dup1\n  dataOffset(sub_0)\n  0x00\n  codecopy\n  0x00\n  return\nstop\n\nsub_0: assembly {\n        /* \"contracts/Loren.sol\":166:670  contract MyERC20 is ERC20 {... */\n      mstore(0x40, 0x80)\n      callvalue\n      dup1\n      iszero\n      tag_1\n      jumpi\n      0x00\n      dup1\n      revert\n    tag_1:\n      pop\n      jumpi(tag_2, lt(calldatasize, 0x04))\n      calldataload(0x00)\n      0x0100000000000000000000000000000000000000000000000000000000\n      swap1\n      div\n      dup1\n      0x40c10f19\n      gt\n      tag_17\n      jumpi\n      dup1\n      0x9dc29fac\n      gt\n      tag_18\n      jumpi\n      dup1\n      0x9dc29fac\n      eq\n      tag_13\n      jumpi\n      dup1\n      0xa457c2d7\n      eq\n      tag_14\n      jumpi\n      dup1\n      0xa9059cbb\n      eq\n      tag_15\n      jumpi\n      dup1\n      0xdd62ed3e\n      eq\n      tag_16\n      jumpi\n      0x00\n      dup1\n      revert\n    tag_18:\n      dup1\n      0x40c10f19\n      eq\n      tag_10\n      jumpi\n      dup1\n      0x70a08231\n      eq\n      tag_11\n      jumpi\n      dup1\n      0x95d89b41\n      eq\n      tag_12\n      jumpi\n      0x00\n      dup1\n      revert\n    tag_17:\n      dup1\n      0x18160ddd\n      gt\n      tag_19\n      jumpi\n      dup1\n      0x18160ddd\n      eq\n      tag_6\n      jumpi\n      dup1\n      0x23b872dd\n      eq\n      tag_7\n      jumpi\n      dup1\n      0x313ce567\n      eq\n      tag_8\n      jumpi\n      dup1\n      0x39509351\n      eq\n      tag_9\n      jumpi\n      0x00\n      dup1\n      revert\n    tag_19:\n      dup1\n      0x06fdde03\n      eq\n      tag_3\n      jumpi\n      dup1\n      0x095ea7b3\n      eq\n      tag_4\n      jumpi\n      dup1\n      0x160f00c1\n      eq\n      tag_5\n      jumpi\n    tag_2:\n      0x00\n      dup1\n      revert\n        /* \"https://github.com/OpenZeppelin/openzeppelin-contracts/blob/v4.1.0/contracts/token/ERC20/ERC20.sol\":2077:2175  function name() public view virtual override returns (string memory) {... */\n    tag_3:\n      tag_20\n      tag_21\n      jump\t// in\n    tag_20:\n      mload(0x40)\n      tag_22\n      swap2\n      swap1\n      tag_23\n      jump\t// in\n    tag_22:\n      mload(0x40)\n      dup1\n      swap2\n      sub\n      swap1\n      return\n        /* \"https://github.com/OpenZeppelin/openzeppelin-contracts/blob/v4.1.0/contracts/token/ERC20/ERC20.sol\":4174:4340  function approve(address spender, uint256 amount) public virtual override returns (bool) {... */\n    tag_4:\n      tag_24\n      tag_25\n      calldatasize\n      0x04\n      tag_26\n      jump\t// in\n    tag_25:\n      tag_27\n      jump\t// in\n    tag_24:\n      mload(0x40)\n        /* \"#utility.yul\":1428:1442   */\n      swap1\n      iszero\n        /* \"#utility.yul\":1421:1443   */\n      iszero\n        /* \"#utility.yul\":1403:1444   */\n      dup2\n      mstore\n        /* \"#utility.yul\":1391:1393   */\n      0x20\n        /* \"#utility.yul\":1376:1394   */\n      add\n        /* \"https://github.com/OpenZeppelin/openzeppelin-contracts/blob/v4.1.0/contracts/token/ERC20/ERC20.sol\":4174:4340  function approve(address spender, uint256 amount) public virtual override returns (bool) {... */\n      tag_22\n        /* \"#utility.yul\":1358:1450   */\n      jump\n        /* \"contracts/Loren.sol\":196:235  uint256 public token_transfer_count = 0 */\n    tag_5:\n      tag_30\n      sload(0x05)\n      dup2\n      jump\n    tag_30:\n      mload(0x40)\n        /* \"#utility.yul\":6208:6233   */\n      swap1\n      dup2\n      mstore\n        /* \"#utility.yul\":6196:6198   */\n      0x20\n        /* \"#utility.yul\":6181:6199   */\n      add\n        /* \"contracts/Loren.sol\":196:235  uint256 public token_transfer_count = 0 */\n      tag_22\n        /* \"#utility.yul\":6163:6239   */\n      jump\n        /* \"https://github.com/OpenZeppelin/openzeppelin-contracts/blob/v4.1.0/contracts/token/ERC20/ERC20.sol\":3165:3271  function totalSupply() public view virtual override returns (uint256) {... */\n    tag_6:\n        /* \"https://github.com/OpenZeppelin/openzeppelin-contracts/blob/v4.1.0/contracts/token/ERC20/ERC20.sol\":3252:3264  _totalSupply */\n      sload(0x02)\n        /* \"https://github.com/OpenZeppelin/openzeppelin-contracts/blob/v4.1.0/contracts/token/ERC20/ERC20.sol\":3165:3271  function totalSupply() public view virtual override returns (uint256) {... */\n      jump(tag_30)\n        /* \"https://github.com/OpenZeppelin/openzeppelin-contracts/blob/v4.1.0/contracts/token/ERC20/ERC20.sol\":4807:5221  function transferFrom(address sender, address recipient, uint256 amount) public virtual override returns (bool) {... */\n    tag_7:\n      tag_24\n      tag_38\n      calldatasize\n      0x04\n      tag_39\n      jump\t// in\n    tag_38:\n      tag_40\n      jump\t// in\n        /* \"https://github.com/OpenZeppelin/openzeppelin-contracts/blob/v4.1.0/contracts/token/ERC20/ERC20.sol\":3014:3105  function decimals() public view virtual override returns (uint8) {... */\n    tag_8:\n      mload(0x40)\n        /* \"https://github.com/OpenZeppelin/openzeppelin-contracts/blob/v4.1.0/contracts/token/ERC20/ERC20.sol\":3096:3098  18 */\n      0x12\n        /* \"#utility.yul\":6386:6422   */\n      dup2\n      mstore\n        /* \"#utility.yul\":6374:6376   */\n      0x20\n        /* \"#utility.yul\":6359:6377   */\n      add\n        /* \"https://github.com/OpenZeppelin/openzeppelin-contracts/blob/v4.1.0/contracts/token/ERC20/ERC20.sol\":3014:3105  function decimals() public view virtual override returns (uint8) {... */\n      tag_22\n        /* \"#utility.yul\":6341:6428   */\n      jump\n        /* \"https://github.com/OpenZeppelin/openzeppelin-contracts/blob/v4.1.0/contracts/token/ERC20/ERC20.sol\":5616:5828  function increaseAllowance(address spender, uint256 addedValue) public virtual returns (bool) {... */\n    tag_9:\n      tag_24\n      tag_47\n      calldatasize\n      0x04\n      tag_26\n      jump\t// in\n    tag_47:\n      tag_48\n      jump\t// in\n        /* \"contracts/Loren.sol\":358:445  function mint(address account, uint256 amount) public {... */\n    tag_10:\n      tag_50\n      tag_51\n      calldatasize\n      0x04\n      tag_26\n      jump\t// in\n    tag_51:\n      tag_52\n      jump\t// in\n    tag_50:\n      stop\n        /* \"https://github.com/OpenZeppelin/openzeppelin-contracts/blob/v4.1.0/contracts/token/ERC20/ERC20.sol\":3329:3454  function balanceOf(address account) public view virtual override returns (uint256) {... */\n    tag_11:\n      tag_30\n      tag_54\n      calldatasize\n      0x04\n      tag_55\n      jump\t// in\n    tag_54:\n      sub(exp(0x02, 0xa0), 0x01)\n        /* \"https://github.com/OpenZeppelin/openzeppelin-contracts/blob/v4.1.0/contracts/token/ERC20/ERC20.sol\":3429:3447  _balances[account] */\n      and\n        /* \"https://github.com/OpenZeppelin/openzeppelin-contracts/blob/v4.1.0/contracts/token/ERC20/ERC20.sol\":3403:3410  uint256 */\n      0x00\n        /* \"https://github.com/OpenZeppelin/openzeppelin-contracts/blob/v4.1.0/contracts/token/ERC20/ERC20.sol\":3429:3447  _balances[account] */\n      swap1\n      dup2\n      mstore\n      0x20\n      dup2\n      swap1\n      mstore\n      0x40\n      swap1\n      keccak256\n      sload\n      swap1\n        /* \"https://github.com/OpenZeppelin/openzeppelin-contracts/blob/v4.1.0/contracts/token/ERC20/ERC20.sol\":3329:3454  function balanceOf(address account) public view virtual override returns (uint256) {... */\n      jump\n        /* \"https://github.com/OpenZeppelin/openzeppelin-contracts/blob/v4.1.0/contracts/token/ERC20/ERC20.sol\":2288:2390  function symbol() public view virtual override returns (string memory) {... */\n    tag_12:\n      tag_20\n      tag_59\n      jump\t// in\n        /* \"contracts/Loren.sol\":449:536  function burn(address account, uint256 amount) public {... */\n    tag_13:\n      tag_50\n      tag_62\n      calldatasize\n      0x04\n      tag_26\n      jump\t// in\n    tag_62:\n      tag_63\n      jump\t// in\n        /* \"https://github.com/OpenZeppelin/openzeppelin-contracts/blob/v4.1.0/contracts/token/ERC20/ERC20.sol\":6315:6686  function decreaseAllowance(address spender, uint256 subtractedValue) public virtual returns (bool) {... */\n    tag_14:\n      tag_24\n      tag_65\n      calldatasize\n      0x04\n      tag_26\n      jump\t// in\n    tag_65:\n      tag_66\n      jump\t// in\n        /* \"https://github.com/OpenZeppelin/openzeppelin-contracts/blob/v4.1.0/contracts/token/ERC20/ERC20.sol\":3657:3829  function transfer(address recipient, uint256 amount) public virtual override returns (bool) {... */\n    tag_15:\n      tag_24\n      tag_69\n      calldatasize\n      0x04\n      tag_26\n      jump\t// in\n    tag_69:\n      tag_70\n      jump\t// in\n        /* \"https://github.com/OpenZeppelin/openzeppelin-contracts/blob/v4.1.0/contracts/token/ERC20/ERC20.sol\":3887:4036  function allowance(address owner, address spender) public view virtual override returns (uint256) {... */\n    tag_16:\n      tag_30\n      tag_73\n      calldatasize\n      0x04\n      tag_74\n      jump\t// in\n    tag_73:\n      sub(exp(0x02, 0xa0), 0x01)\n        /* \"https://github.com/OpenZeppelin/openzeppelin-contracts/blob/v4.1.0/contracts/token/ERC20/ERC20.sol\":4002:4020  _allowances[owner] */\n      swap2\n      dup3\n      and\n        /* \"https://github.com/OpenZeppelin/openzeppelin-contracts/blob/v4.1.0/contracts/token/ERC20/ERC20.sol\":3976:3983  uint256 */\n      0x00\n        /* \"https://github.com/OpenZeppelin/openzeppelin-contracts/blob/v4.1.0/contracts/token/ERC20/ERC20.sol\":4002:4020  _allowances[owner] */\n      swap1\n      dup2\n      mstore\n        /* \"https://github.com/OpenZeppelin/openzeppelin-contracts/blob/v4.1.0/contracts/token/ERC20/ERC20.sol\":4002:4013  _allowances */\n      0x01\n        /* \"https://github.com/OpenZeppelin/openzeppelin-contracts/blob/v4.1.0/contracts/token/ERC20/ERC20.sol\":4002:4020  _allowances[owner] */\n      0x20\n      swap1\n      dup2\n      mstore\n      0x40\n      dup1\n      dup4\n      keccak256\n        /* \"https://github.com/OpenZeppelin/openzeppelin-contracts/blob/v4.1.0/contracts/token/ERC20/ERC20.sol\":4002:4029  _allowances[owner][spender] */\n      swap4\n      swap1\n      swap5\n      and\n      dup3\n      mstore\n      swap2\n      swap1\n      swap2\n      mstore\n      keccak256\n      sload\n      swap1\n        /* \"https://github.com/OpenZeppelin/openzeppelin-contracts/blob/v4.1.0/contracts/token/ERC20/ERC20.sol\":3887:4036  function allowance(address owner, address spender) public view virtual override returns (uint256) {... */\n      jump\n        /* \"https://github.com/OpenZeppelin/openzeppelin-contracts/blob/v4.1.0/contracts/token/ERC20/ERC20.sol\":2077:2175  function name() public view virtual override returns (string memory) {... */\n    tag_21:\n        /* \"https://github.com/OpenZeppelin/openzeppelin-contracts/blob/v4.1.0/contracts/token/ERC20/ERC20.sol\":2131:2144  string memory */\n      0x60\n        /* \"https://github.com/OpenZeppelin/openzeppelin-contracts/blob/v4.1.0/contracts/token/ERC20/ERC20.sol\":2163:2168  _name */\n      0x03\n        /* \"https://github.com/OpenZeppelin/openzeppelin-contracts/blob/v4.1.0/contracts/token/ERC20/ERC20.sol\":2156:2168  return _name */\n      dup1\n      sload\n      tag_78\n      swap1\n      tag_79\n      jump\t// in\n    tag_78:\n      dup1\n      0x1f\n      add\n      0x20\n      dup1\n      swap2\n      div\n      mul\n      0x20\n      add\n      mload(0x40)\n      swap1\n      dup2\n      add\n      0x40\n      mstore\n      dup1\n      swap3\n      swap2\n      swap1\n      dup2\n      dup2\n      mstore\n      0x20\n      add\n      dup3\n      dup1\n      sload\n      tag_80\n      swap1\n      tag_79\n      jump\t// in\n    tag_80:\n      dup1\n      iszero\n      tag_81\n      jumpi\n      dup1\n      0x1f\n      lt\n      tag_82\n      jumpi\n      0x0100\n      dup1\n      dup4\n      sload\n      div\n      mul\n      dup4\n      mstore\n      swap2\n      0x20\n      add\n      swap2\n      jump(tag_81)\n    tag_82:\n      dup3\n      add\n      swap2\n      swap1\n      0x00\n      mstore\n      keccak256(0x00, 0x20)\n      swap1\n    tag_83:\n      dup2\n      sload\n      dup2\n      mstore\n      swap1\n      0x01\n      add\n      swap1\n      0x20\n      add\n      dup1\n      dup4\n      gt\n      tag_83\n      jumpi\n      dup3\n      swap1\n      sub\n      0x1f\n      and\n      dup3\n      add\n      swap2\n    tag_81:\n      pop\n      pop\n      pop\n      pop\n      pop\n      swap1\n      pop\n        /* \"https://github.com/OpenZeppelin/openzeppelin-contracts/blob/v4.1.0/contracts/token/ERC20/ERC20.sol\":2077:2175  function name() public view virtual override returns (string memory) {... */\n      swap1\n      jump\t// out\n        /* \"https://github.com/OpenZeppelin/openzeppelin-contracts/blob/v4.1.0/contracts/token/ERC20/ERC20.sol\":4174:4340  function approve(address spender, uint256 amount) public virtual override returns (bool) {... */\n    tag_27:\n        /* \"https://github.com/OpenZeppelin/openzeppelin-contracts/blob/v4.1.0/contracts/token/ERC20/ERC20.sol\":4257:4261  bool */\n      0x00\n        /* \"https://github.com/OpenZeppelin/openzeppelin-contracts/blob/v4.1.0/contracts/token/ERC20/ERC20.sol\":4273:4312  _approve(_msgSender(), spender, amount) */\n      tag_85\n        /* \"https://github.com/OpenZeppelin/openzeppelin-contracts/blob/v4.1.0/contracts/utils/Context.sol\":665:675  msg.sender */\n      caller\n        /* \"https://github.com/OpenZeppelin/openzeppelin-contracts/blob/v4.1.0/contracts/token/ERC20/ERC20.sol\":4296:4303  spender */\n      dup5\n        /* \"https://github.com/OpenZeppelin/openzeppelin-contracts/blob/v4.1.0/contracts/token/ERC20/ERC20.sol\":4305:4311  amount */\n      dup5\n        /* \"https://github.com/OpenZeppelin/openzeppelin-contracts/blob/v4.1.0/contracts/token/ERC20/ERC20.sol\":4273:4281  _approve */\n      tag_88\n        /* \"https://github.com/OpenZeppelin/openzeppelin-contracts/blob/v4.1.0/contracts/token/ERC20/ERC20.sol\":4273:4312  _approve(_msgSender(), spender, amount) */\n      jump\t// in\n    tag_85:\n      pop\n        /* \"https://github.com/OpenZeppelin/openzeppelin-contracts/blob/v4.1.0/contracts/token/ERC20/ERC20.sol\":4329:4333  true */\n      0x01\n        /* \"https://github.com/OpenZeppelin/openzeppelin-contracts/blob/v4.1.0/contracts/token/ERC20/ERC20.sol\":4174:4340  function approve(address spender, uint256 amount) public virtual override returns (bool) {... */\n      swap3\n      swap2\n      pop\n      pop\n      jump\t// out\n        /* \"https://github.com/OpenZeppelin/openzeppelin-contracts/blob/v4.1.0/contracts/token/ERC20/ERC20.sol\":4807:5221  function transferFrom(address sender, address recipient, uint256 amount) public virtual override returns (bool) {... */\n    tag_40:\n        /* \"https://github.com/OpenZeppelin/openzeppelin-contracts/blob/v4.1.0/contracts/token/ERC20/ERC20.sol\":4913:4917  bool */\n      0x00\n        /* \"https://github.com/OpenZeppelin/openzeppelin-contracts/blob/v4.1.0/contracts/token/ERC20/ERC20.sol\":4929:4965  _transfer(sender, recipient, amount) */\n      tag_91\n        /* \"https://github.com/OpenZeppelin/openzeppelin-contracts/blob/v4.1.0/contracts/token/ERC20/ERC20.sol\":4939:4945  sender */\n      dup5\n        /* \"https://github.com/OpenZeppelin/openzeppelin-contracts/blob/v4.1.0/contracts/token/ERC20/ERC20.sol\":4947:4956  recipient */\n      dup5\n        /* \"https://github.com/OpenZeppelin/openzeppelin-contracts/blob/v4.1.0/contracts/token/ERC20/ERC20.sol\":4958:4964  amount */\n      dup5\n        /* \"https://github.com/OpenZeppelin/openzeppelin-contracts/blob/v4.1.0/contracts/token/ERC20/ERC20.sol\":4929:4938  _transfer */\n      tag_92\n        /* \"https://github.com/OpenZeppelin/openzeppelin-contracts/blob/v4.1.0/contracts/token/ERC20/ERC20.sol\":4929:4965  _transfer(sender, recipient, amount) */\n      jump\t// in\n    tag_91:\n      sub(exp(0x02, 0xa0), 0x01)\n        /* \"https://github.com/OpenZeppelin/openzeppelin-contracts/blob/v4.1.0/contracts/token/ERC20/ERC20.sol\":5003:5022  _allowances[sender] */\n      dup5\n      and\n        /* \"https://github.com/OpenZeppelin/openzeppelin-contracts/blob/v4.1.0/contracts/token/ERC20/ERC20.sol\":4976:5000  uint256 currentAllowance */\n      0x00\n        /* \"https://github.com/OpenZeppelin/openzeppelin-contracts/blob/v4.1.0/contracts/token/ERC20/ERC20.sol\":5003:5022  _allowances[sender] */\n      swap1\n      dup2\n      mstore\n        /* \"https://github.com/OpenZeppelin/openzeppelin-contracts/blob/v4.1.0/contracts/token/ERC20/ERC20.sol\":5003:5014  _allowances */\n      0x01\n        /* \"https://github.com/OpenZeppelin/openzeppelin-contracts/blob/v4.1.0/contracts/token/ERC20/ERC20.sol\":5003:5022  _allowances[sender] */\n      0x20\n      swap1\n      dup2\n      mstore\n      0x40\n      dup1\n      dup4\n      keccak256\n        /* \"https://github.com/OpenZeppelin/openzeppelin-contracts/blob/v4.1.0/contracts/utils/Context.sol\":665:675  msg.sender */\n      caller\n        /* \"https://github.com/OpenZeppelin/openzeppelin-contracts/blob/v4.1.0/contracts/token/ERC20/ERC20.sol\":5003:5036  _allowances[sender][_msgSender()] */\n      dup5\n      mstore\n      swap1\n      swap2\n      mstore\n      swap1\n      keccak256\n      sload\n        /* \"https://github.com/OpenZeppelin/openzeppelin-contracts/blob/v4.1.0/contracts/token/ERC20/ERC20.sol\":5054:5080  currentAllowance >= amount */\n      dup3\n      dup2\n      lt\n      iszero\n        /* \"https://github.com/OpenZeppelin/openzeppelin-contracts/blob/v4.1.0/contracts/token/ERC20/ERC20.sol\":5046:5125  require(currentAllowance >= amount, \"ERC20: transfer amount exceeds allowance\") */\n      tag_94\n      jumpi\n      mload(0x40)\n      mul(0x461bcd, exp(0x02, 0xe5))\n      dup2\n      mstore\n        /* \"#utility.yul\":3876:3878   */\n      0x20\n        /* \"https://github.com/OpenZeppelin/openzeppelin-contracts/blob/v4.1.0/contracts/token/ERC20/ERC20.sol\":5046:5125  require(currentAllowance >= amount, \"ERC20: transfer amount exceeds allowance\") */\n      0x04\n      dup3\n      add\n        /* \"#utility.yul\":3858:3879   */\n      mstore\n        /* \"#utility.yul\":3915:3917   */\n      0x28\n        /* \"#utility.yul\":3895:3913   */\n      0x24\n      dup3\n      add\n        /* \"#utility.yul\":3888:3918   */\n      mstore\n        /* \"#utility.yul\":3954:3988   */\n      0x45524332303a207472616e7366657220616d6f756e7420657863656564732061\n        /* \"#utility.yul\":3934:3952   */\n      0x44\n      dup3\n      add\n        /* \"#utility.yul\":3927:3989   */\n      mstore\n        /* \"#utility.yul\":4025:4035   */\n      0x6c6c6f77616e6365000000000000000000000000000000000000000000000000\n        /* \"#utility.yul\":4005:4023   */\n      0x64\n      dup3\n      add\n        /* \"#utility.yul\":3998:4036   */\n      mstore\n        /* \"#utility.yul\":4053:4072   */\n      0x84\n      add\n        /* \"https://github.com/OpenZeppelin/openzeppelin-contracts/blob/v4.1.0/contracts/token/ERC20/ERC20.sol\":5046:5125  require(currentAllowance >= amount, \"ERC20: transfer amount exceeds allowance\") */\n    tag_95:\n      mload(0x40)\n      dup1\n      swap2\n      sub\n      swap1\n      revert\n    tag_94:\n        /* \"https://github.com/OpenZeppelin/openzeppelin-contracts/blob/v4.1.0/contracts/token/ERC20/ERC20.sol\":5135:5192  _approve(sender, _msgSender(), currentAllowance - amount) */\n      tag_97\n        /* \"https://github.com/OpenZeppelin/openzeppelin-contracts/blob/v4.1.0/contracts/token/ERC20/ERC20.sol\":5144:5150  sender */\n      dup6\n        /* \"https://github.com/OpenZeppelin/openzeppelin-contracts/blob/v4.1.0/contracts/utils/Context.sol\":665:675  msg.sender */\n      caller\n        /* \"https://github.com/OpenZeppelin/openzeppelin-contracts/blob/v4.1.0/contracts/token/ERC20/ERC20.sol\":5166:5191  currentAllowance - amount */\n      tag_99\n        /* \"https://github.com/OpenZeppelin/openzeppelin-contracts/blob/v4.1.0/contracts/token/ERC20/ERC20.sol\":5185:5191  amount */\n      dup7\n        /* \"https://github.com/OpenZeppelin/openzeppelin-contracts/blob/v4.1.0/contracts/token/ERC20/ERC20.sol\":5166:5182  currentAllowance */\n      dup6\n        /* \"https://github.com/OpenZeppelin/openzeppelin-contracts/blob/v4.1.0/contracts/token/ERC20/ERC20.sol\":5166:5191  currentAllowance - amount */\n      tag_100\n      jump\t// in\n    tag_99:\n        /* \"https://github.com/OpenZeppelin/openzeppelin-contracts/blob/v4.1.0/contracts/token/ERC20/ERC20.sol\":5135:5143  _approve */\n      tag_88\n        /* \"https://github.com/OpenZeppelin/openzeppelin-contracts/blob/v4.1.0/contracts/token/ERC20/ERC20.sol\":5135:5192  _approve(sender, _msgSender(), currentAllowance - amount) */\n      jump\t// in\n    tag_97:\n      pop\n        /* \"https://github.com/OpenZeppelin/openzeppelin-contracts/blob/v4.1.0/contracts/token/ERC20/ERC20.sol\":5210:5214  true */\n      0x01\n      swap5\n        /* \"https://github.com/OpenZeppelin/openzeppelin-contracts/blob/v4.1.0/contracts/token/ERC20/ERC20.sol\":4807:5221  function transferFrom(address sender, address recipient, uint256 amount) public virtual override returns (bool) {... */\n      swap4\n      pop\n      pop\n      pop\n      pop\n      jump\t// out\n        /* \"https://github.com/OpenZeppelin/openzeppelin-contracts/blob/v4.1.0/contracts/token/ERC20/ERC20.sol\":5616:5828  function increaseAllowance(address spender, uint256 addedValue) public virtual returns (bool) {... */\n    tag_48:\n        /* \"https://github.com/OpenZeppelin/openzeppelin-contracts/blob/v4.1.0/contracts/utils/Context.sol\":665:675  msg.sender */\n      caller\n        /* \"https://github.com/OpenZeppelin/openzeppelin-contracts/blob/v4.1.0/contracts/token/ERC20/ERC20.sol\":5704:5708  bool */\n      0x00\n        /* \"https://github.com/OpenZeppelin/openzeppelin-contracts/blob/v4.1.0/contracts/token/ERC20/ERC20.sol\":5752:5777  _allowances[_msgSender()] */\n      dup2\n      dup2\n      mstore\n        /* \"https://github.com/OpenZeppelin/openzeppelin-contracts/blob/v4.1.0/contracts/token/ERC20/ERC20.sol\":5752:5763  _allowances */\n      0x01\n        /* \"https://github.com/OpenZeppelin/openzeppelin-contracts/blob/v4.1.0/contracts/token/ERC20/ERC20.sol\":5752:5777  _allowances[_msgSender()] */\n      0x20\n      swap1\n      dup2\n      mstore\n      0x40\n      dup1\n      dup4\n      keccak256\n      sub(exp(0x02, 0xa0), 0x01)\n        /* \"https://github.com/OpenZeppelin/openzeppelin-contracts/blob/v4.1.0/contracts/token/ERC20/ERC20.sol\":5752:5786  _allowances[_msgSender()][spender] */\n      dup8\n      and\n      dup5\n      mstore\n      swap1\n      swap2\n      mstore\n      dup2\n      keccak256\n      sload\n        /* \"https://github.com/OpenZeppelin/openzeppelin-contracts/blob/v4.1.0/contracts/token/ERC20/ERC20.sol\":5704:5708  bool */\n      swap1\n      swap2\n        /* \"https://github.com/OpenZeppelin/openzeppelin-contracts/blob/v4.1.0/contracts/token/ERC20/ERC20.sol\":5720:5800  _approve(_msgSender(), spender, _allowances[_msgSender()][spender] + addedValue) */\n      tag_85\n      swap2\n        /* \"https://github.com/OpenZeppelin/openzeppelin-contracts/blob/v4.1.0/contracts/token/ERC20/ERC20.sol\":5743:5750  spender */\n      dup6\n      swap1\n        /* \"https://github.com/OpenZeppelin/openzeppelin-contracts/blob/v4.1.0/contracts/token/ERC20/ERC20.sol\":5752:5799  _allowances[_msgSender()][spender] + addedValue */\n      tag_99\n      swap1\n        /* \"https://github.com/OpenZeppelin/openzeppelin-contracts/blob/v4.1.0/contracts/token/ERC20/ERC20.sol\":5789:5799  addedValue */\n      dup7\n      swap1\n        /* \"https://github.com/OpenZeppelin/openzeppelin-contracts/blob/v4.1.0/contracts/token/ERC20/ERC20.sol\":5752:5799  _allowances[_msgSender()][spender] + addedValue */\n      tag_107\n      jump\t// in\n        /* \"contracts/Loren.sol\":358:445  function mint(address account, uint256 amount) public {... */\n    tag_52:\n        /* \"contracts/Loren.sol\":418:440  _mint(account, amount) */\n      tag_109\n        /* \"contracts/Loren.sol\":424:431  account */\n      dup3\n        /* \"contracts/Loren.sol\":433:439  amount */\n      dup3\n        /* \"contracts/Loren.sol\":418:423  _mint */\n      tag_110\n        /* \"contracts/Loren.sol\":418:440  _mint(account, amount) */\n      jump\t// in\n    tag_109:\n        /* \"contracts/Loren.sol\":358:445  function mint(address account, uint256 amount) public {... */\n      pop\n      pop\n      jump\t// out\n        /* \"https://github.com/OpenZeppelin/openzeppelin-contracts/blob/v4.1.0/contracts/token/ERC20/ERC20.sol\":2288:2390  function symbol() public view virtual override returns (string memory) {... */\n    tag_59:\n        /* \"https://github.com/OpenZeppelin/openzeppelin-contracts/blob/v4.1.0/contracts/token/ERC20/ERC20.sol\":2344:2357  string memory */\n      0x60\n        /* \"https://github.com/OpenZeppelin/openzeppelin-contracts/blob/v4.1.0/contracts/token/ERC20/ERC20.sol\":2376:2383  _symbol */\n      0x04\n        /* \"https://github.com/OpenZeppelin/openzeppelin-contracts/blob/v4.1.0/contracts/token/ERC20/ERC20.sol\":2369:2383  return _symbol */\n      dup1\n      sload\n      tag_78\n      swap1\n      tag_79\n      jump\t// in\n        /* \"contracts/Loren.sol\":449:536  function burn(address account, uint256 amount) public {... */\n    tag_63:\n        /* \"contracts/Loren.sol\":509:531  _burn(account, amount) */\n      tag_109\n        /* \"contracts/Loren.sol\":515:522  account */\n      dup3\n        /* \"contracts/Loren.sol\":524:530  amount */\n      dup3\n        /* \"contracts/Loren.sol\":509:514  _burn */\n      tag_120\n        /* \"contracts/Loren.sol\":509:531  _burn(account, amount) */\n      jump\t// in\n        /* \"https://github.com/OpenZeppelin/openzeppelin-contracts/blob/v4.1.0/contracts/token/ERC20/ERC20.sol\":6315:6686  function decreaseAllowance(address spender, uint256 subtractedValue) public virtual returns (bool) {... */\n    tag_66:\n        /* \"https://github.com/OpenZeppelin/openzeppelin-contracts/blob/v4.1.0/contracts/utils/Context.sol\":665:675  msg.sender */\n      caller\n        /* \"https://github.com/OpenZeppelin/openzeppelin-contracts/blob/v4.1.0/contracts/token/ERC20/ERC20.sol\":6408:6412  bool */\n      0x00\n        /* \"https://github.com/OpenZeppelin/openzeppelin-contracts/blob/v4.1.0/contracts/token/ERC20/ERC20.sol\":6451:6476  _allowances[_msgSender()] */\n      swap1\n      dup2\n      mstore\n        /* \"https://github.com/OpenZeppelin/openzeppelin-contracts/blob/v4.1.0/contracts/token/ERC20/ERC20.sol\":6451:6462  _allowances */\n      0x01\n        /* \"https://github.com/OpenZeppelin/openzeppelin-contracts/blob/v4.1.0/contracts/token/ERC20/ERC20.sol\":6451:6476  _allowances[_msgSender()] */\n      0x20\n      swap1\n      dup2\n      mstore\n      0x40\n      dup1\n      dup4\n      keccak256\n      sub(exp(0x02, 0xa0), 0x01)\n        /* \"https://github.com/OpenZeppelin/openzeppelin-contracts/blob/v4.1.0/contracts/token/ERC20/ERC20.sol\":6451:6485  _allowances[_msgSender()][spender] */\n      dup7\n      and\n      dup5\n      mstore\n      swap1\n      swap2\n      mstore\n      dup2\n      keccak256\n      sload\n        /* \"https://github.com/OpenZeppelin/openzeppelin-contracts/blob/v4.1.0/contracts/token/ERC20/ERC20.sol\":6503:6538  currentAllowance >= subtractedValue */\n      dup3\n      dup2\n      lt\n      iszero\n        /* \"https://github.com/OpenZeppelin/openzeppelin-contracts/blob/v4.1.0/contracts/token/ERC20/ERC20.sol\":6495:6580  require(currentAllowance >= subtractedValue, \"ERC20: decreased allowance below zero\") */\n      tag_123\n      jumpi\n      mload(0x40)\n      mul(0x461bcd, exp(0x02, 0xe5))\n      dup2\n      mstore\n        /* \"#utility.yul\":5498:5500   */\n      0x20\n        /* \"https://github.com/OpenZeppelin/openzeppelin-contracts/blob/v4.1.0/contracts/token/ERC20/ERC20.sol\":6495:6580  require(currentAllowance >= subtractedValue, \"ERC20: decreased allowance below zero\") */\n      0x04\n      dup3\n      add\n        /* \"#utility.yul\":5480:5501   */\n      mstore\n        /* \"#utility.yul\":5537:5539   */\n      0x25\n        /* \"#utility.yul\":5517:5535   */\n      0x24\n      dup3\n      add\n        /* \"#utility.yul\":5510:5540   */\n      mstore\n        /* \"#utility.yul\":5576:5610   */\n      0x45524332303a2064656372656173656420616c6c6f77616e63652062656c6f77\n        /* \"#utility.yul\":5556:5574   */\n      0x44\n      dup3\n      add\n        /* \"#utility.yul\":5549:5611   */\n      mstore\n        /* \"#utility.yul\":5647:5654   */\n      0x207a65726f000000000000000000000000000000000000000000000000000000\n        /* \"#utility.yul\":5627:5645   */\n      0x64\n      dup3\n      add\n        /* \"#utility.yul\":5620:5655   */\n      mstore\n        /* \"#utility.yul\":5672:5691   */\n      0x84\n      add\n        /* \"https://github.com/OpenZeppelin/openzeppelin-contracts/blob/v4.1.0/contracts/token/ERC20/ERC20.sol\":6495:6580  require(currentAllowance >= subtractedValue, \"ERC20: decreased allowance below zero\") */\n      tag_95\n        /* \"#utility.yul\":5470:5697   */\n      jump\n        /* \"https://github.com/OpenZeppelin/openzeppelin-contracts/blob/v4.1.0/contracts/token/ERC20/ERC20.sol\":6495:6580  require(currentAllowance >= subtractedValue, \"ERC20: decreased allowance below zero\") */\n    tag_123:\n        /* \"https://github.com/OpenZeppelin/openzeppelin-contracts/blob/v4.1.0/contracts/token/ERC20/ERC20.sol\":6590:6657  _approve(_msgSender(), spender, currentAllowance - subtractedValue) */\n      tag_126\n        /* \"https://github.com/OpenZeppelin/openzeppelin-contracts/blob/v4.1.0/contracts/utils/Context.sol\":665:675  msg.sender */\n      caller\n        /* \"https://github.com/OpenZeppelin/openzeppelin-contracts/blob/v4.1.0/contracts/token/ERC20/ERC20.sol\":6613:6620  spender */\n      dup6\n        /* \"https://github.com/OpenZeppelin/openzeppelin-contracts/blob/v4.1.0/contracts/token/ERC20/ERC20.sol\":6622:6656  currentAllowance - subtractedValue */\n      tag_99\n        /* \"https://github.com/OpenZeppelin/openzeppelin-contracts/blob/v4.1.0/contracts/token/ERC20/ERC20.sol\":6641:6656  subtractedValue */\n      dup7\n        /* \"https://github.com/OpenZeppelin/openzeppelin-contracts/blob/v4.1.0/contracts/token/ERC20/ERC20.sol\":6622:6638  currentAllowance */\n      dup6\n        /* \"https://github.com/OpenZeppelin/openzeppelin-contracts/blob/v4.1.0/contracts/token/ERC20/ERC20.sol\":6622:6656  currentAllowance - subtractedValue */\n      tag_100\n      jump\t// in\n        /* \"https://github.com/OpenZeppelin/openzeppelin-contracts/blob/v4.1.0/contracts/token/ERC20/ERC20.sol\":6590:6657  _approve(_msgSender(), spender, currentAllowance - subtractedValue) */\n    tag_126:\n      pop\n        /* \"https://github.com/OpenZeppelin/openzeppelin-contracts/blob/v4.1.0/contracts/token/ERC20/ERC20.sol\":6675:6679  true */\n      0x01\n      swap4\n        /* \"https://github.com/OpenZeppelin/openzeppelin-contracts/blob/v4.1.0/contracts/token/ERC20/ERC20.sol\":6315:6686  function decreaseAllowance(address spender, uint256 subtractedValue) public virtual returns (bool) {... */\n      swap3\n      pop\n      pop\n      pop\n      jump\t// out\n        /* \"https://github.com/OpenZeppelin/openzeppelin-contracts/blob/v4.1.0/contracts/token/ERC20/ERC20.sol\":3657:3829  function transfer(address recipient, uint256 amount) public virtual override returns (bool) {... */\n    tag_70:\n        /* \"https://github.com/OpenZeppelin/openzeppelin-contracts/blob/v4.1.0/contracts/token/ERC20/ERC20.sol\":3743:3747  bool */\n      0x00\n        /* \"https://github.com/OpenZeppelin/openzeppelin-contracts/blob/v4.1.0/contracts/token/ERC20/ERC20.sol\":3759:3801  _transfer(_msgSender(), recipient, amount) */\n      tag_85\n        /* \"https://github.com/OpenZeppelin/openzeppelin-contracts/blob/v4.1.0/contracts/utils/Context.sol\":665:675  msg.sender */\n      caller\n        /* \"https://github.com/OpenZeppelin/openzeppelin-contracts/blob/v4.1.0/contracts/token/ERC20/ERC20.sol\":3783:3792  recipient */\n      dup5\n        /* \"https://github.com/OpenZeppelin/openzeppelin-contracts/blob/v4.1.0/contracts/token/ERC20/ERC20.sol\":3794:3800  amount */\n      dup5\n        /* \"https://github.com/OpenZeppelin/openzeppelin-contracts/blob/v4.1.0/contracts/token/ERC20/ERC20.sol\":3759:3768  _transfer */\n      tag_92\n        /* \"https://github.com/OpenZeppelin/openzeppelin-contracts/blob/v4.1.0/contracts/token/ERC20/ERC20.sol\":3759:3801  _transfer(_msgSender(), recipient, amount) */\n      jump\t// in\n        /* \"https://github.com/OpenZeppelin/openzeppelin-contracts/blob/v4.1.0/contracts/token/ERC20/ERC20.sol\":9579:9919  function _approve(address owner, address spender, uint256 amount) internal virtual {... */\n    tag_88:\n      sub(exp(0x02, 0xa0), 0x01)\n        /* \"https://github.com/OpenZeppelin/openzeppelin-contracts/blob/v4.1.0/contracts/token/ERC20/ERC20.sol\":9680:9699  owner != address(0) */\n      dup4\n      and\n        /* \"https://github.com/OpenZeppelin/openzeppelin-contracts/blob/v4.1.0/contracts/token/ERC20/ERC20.sol\":9672:9740  require(owner != address(0), \"ERC20: approve from the zero address\") */\n      tag_135\n      jumpi\n      mload(0x40)\n      mul(0x461bcd, exp(0x02, 0xe5))\n      dup2\n      mstore\n        /* \"#utility.yul\":5093:5095   */\n      0x20\n        /* \"https://github.com/OpenZeppelin/openzeppelin-contracts/blob/v4.1.0/contracts/token/ERC20/ERC20.sol\":9672:9740  require(owner != address(0), \"ERC20: approve from the zero address\") */\n      0x04\n      dup3\n      add\n        /* \"#utility.yul\":5075:5096   */\n      mstore\n        /* \"#utility.yul\":5132:5134   */\n      0x24\n        /* \"#utility.yul\":5112:5130   */\n      dup1\n      dup3\n      add\n        /* \"#utility.yul\":5105:5135   */\n      mstore\n        /* \"#utility.yul\":5171:5205   */\n      0x45524332303a20617070726f76652066726f6d20746865207a65726f20616464\n        /* \"#utility.yul\":5151:5169   */\n      0x44\n      dup3\n      add\n        /* \"#utility.yul\":5144:5206   */\n      mstore\n        /* \"#utility.yul\":5242:5248   */\n      0x7265737300000000000000000000000000000000000000000000000000000000\n        /* \"#utility.yul\":5222:5240   */\n      0x64\n      dup3\n      add\n        /* \"#utility.yul\":5215:5249   */\n      mstore\n        /* \"#utility.yul\":5266:5285   */\n      0x84\n      add\n        /* \"https://github.com/OpenZeppelin/openzeppelin-contracts/blob/v4.1.0/contracts/token/ERC20/ERC20.sol\":9672:9740  require(owner != address(0), \"ERC20: approve from the zero address\") */\n      tag_95\n        /* \"#utility.yul\":5065:5291   */\n      jump\n        /* \"https://github.com/OpenZeppelin/openzeppelin-contracts/blob/v4.1.0/contracts/token/ERC20/ERC20.sol\":9672:9740  require(owner != address(0), \"ERC20: approve from the zero address\") */\n    tag_135:\n      sub(exp(0x02, 0xa0), 0x01)\n        /* \"https://github.com/OpenZeppelin/openzeppelin-contracts/blob/v4.1.0/contracts/token/ERC20/ERC20.sol\":9758:9779  spender != address(0) */\n      dup3\n      and\n        /* \"https://github.com/OpenZeppelin/openzeppelin-contracts/blob/v4.1.0/contracts/token/ERC20/ERC20.sol\":9750:9818  require(spender != address(0), \"ERC20: approve to the zero address\") */\n      tag_138\n      jumpi\n      mload(0x40)\n      mul(0x461bcd, exp(0x02, 0xe5))\n      dup2\n      mstore\n        /* \"#utility.yul\":3066:3068   */\n      0x20\n        /* \"https://github.com/OpenZeppelin/openzeppelin-contracts/blob/v4.1.0/contracts/token/ERC20/ERC20.sol\":9750:9818  require(spender != address(0), \"ERC20: approve to the zero address\") */\n      0x04\n      dup3\n      add\n        /* \"#utility.yul\":3048:3069   */\n      mstore\n        /* \"#utility.yul\":3105:3107   */\n      0x22\n        /* \"#utility.yul\":3085:3103   */\n      0x24\n      dup3\n      add\n        /* \"#utility.yul\":3078:3108   */\n      mstore\n        /* \"#utility.yul\":3144:3178   */\n      0x45524332303a20617070726f766520746f20746865207a65726f206164647265\n        /* \"#utility.yul\":3124:3142   */\n      0x44\n      dup3\n      add\n        /* \"#utility.yul\":3117:3179   */\n      mstore\n        /* \"#utility.yul\":3215:3219   */\n      0x7373000000000000000000000000000000000000000000000000000000000000\n        /* \"#utility.yul\":3195:3213   */\n      0x64\n      dup3\n      add\n        /* \"#utility.yul\":3188:3220   */\n      mstore\n        /* \"#utility.yul\":3237:3256   */\n      0x84\n      add\n        /* \"https://github.com/OpenZeppelin/openzeppelin-contracts/blob/v4.1.0/contracts/token/ERC20/ERC20.sol\":9750:9818  require(spender != address(0), \"ERC20: approve to the zero address\") */\n      tag_95\n        /* \"#utility.yul\":3038:3262   */\n      jump\n        /* \"https://github.com/OpenZeppelin/openzeppelin-contracts/blob/v4.1.0/contracts/token/ERC20/ERC20.sol\":9750:9818  require(spender != address(0), \"ERC20: approve to the zero address\") */\n    tag_138:\n      sub(exp(0x02, 0xa0), 0x01)\n        /* \"https://github.com/OpenZeppelin/openzeppelin-contracts/blob/v4.1.0/contracts/token/ERC20/ERC20.sol\":9829:9847  _allowances[owner] */\n      dup4\n      dup2\n      and\n      0x00\n      dup2\n      dup2\n      mstore\n        /* \"https://github.com/OpenZeppelin/openzeppelin-contracts/blob/v4.1.0/contracts/token/ERC20/ERC20.sol\":9829:9840  _allowances */\n      0x01\n        /* \"https://github.com/OpenZeppelin/openzeppelin-contracts/blob/v4.1.0/contracts/token/ERC20/ERC20.sol\":9829:9847  _allowances[owner] */\n      0x20\n      swap1\n      dup2\n      mstore\n      0x40\n      dup1\n      dup4\n      keccak256\n        /* \"https://github.com/OpenZeppelin/openzeppelin-contracts/blob/v4.1.0/contracts/token/ERC20/ERC20.sol\":9829:9856  _allowances[owner][spender] */\n      swap5\n      dup8\n      and\n      dup1\n      dup5\n      mstore\n      swap5\n      dup3\n      mstore\n      swap2\n      dup3\n      swap1\n      keccak256\n        /* \"https://github.com/OpenZeppelin/openzeppelin-contracts/blob/v4.1.0/contracts/token/ERC20/ERC20.sol\":9829:9865  _allowances[owner][spender] = amount */\n      dup6\n      swap1\n      sstore\n        /* \"https://github.com/OpenZeppelin/openzeppelin-contracts/blob/v4.1.0/contracts/token/ERC20/ERC20.sol\":9880:9912  Approval(owner, spender, amount) */\n      swap1\n      mload\n        /* \"#utility.yul\":6208:6233   */\n      dup5\n      dup2\n      mstore\n        /* \"https://github.com/OpenZeppelin/openzeppelin-contracts/blob/v4.1.0/contracts/token/ERC20/ERC20.sol\":9880:9912  Approval(owner, spender, amount) */\n      0x8c5be1e5ebec7d5bd14f71427d1e84f3dd0314c0f7b2291e5b200ac8c7c3b925\n      swap2\n        /* \"#utility.yul\":6181:6199   */\n      add\n        /* \"https://github.com/OpenZeppelin/openzeppelin-contracts/blob/v4.1.0/contracts/token/ERC20/ERC20.sol\":9880:9912  Approval(owner, spender, amount) */\n    tag_141:\n      mload(0x40)\n      dup1\n      swap2\n      sub\n      swap1\n      log3\n        /* \"https://github.com/OpenZeppelin/openzeppelin-contracts/blob/v4.1.0/contracts/token/ERC20/ERC20.sol\":9579:9919  function _approve(address owner, address spender, uint256 amount) internal virtual {... */\n      pop\n      pop\n      pop\n      jump\t// out\n        /* \"https://github.com/OpenZeppelin/openzeppelin-contracts/blob/v4.1.0/contracts/token/ERC20/ERC20.sol\":7160:7752  function _transfer(address sender, address recipient, uint256 amount) internal virtual {... */\n    tag_92:\n      sub(exp(0x02, 0xa0), 0x01)\n        /* \"https://github.com/OpenZeppelin/openzeppelin-contracts/blob/v4.1.0/contracts/token/ERC20/ERC20.sol\":7265:7285  sender != address(0) */\n      dup4\n      and\n        /* \"https://github.com/OpenZeppelin/openzeppelin-contracts/blob/v4.1.0/contracts/token/ERC20/ERC20.sol\":7257:7327  require(sender != address(0), \"ERC20: transfer from the zero address\") */\n      tag_143\n      jumpi\n      mload(0x40)\n      mul(0x461bcd, exp(0x02, 0xe5))\n      dup2\n      mstore\n        /* \"#utility.yul\":4687:4689   */\n      0x20\n        /* \"https://github.com/OpenZeppelin/openzeppelin-contracts/blob/v4.1.0/contracts/token/ERC20/ERC20.sol\":7257:7327  require(sender != address(0), \"ERC20: transfer from the zero address\") */\n      0x04\n      dup3\n      add\n        /* \"#utility.yul\":4669:4690   */\n      mstore\n        /* \"#utility.yul\":4726:4728   */\n      0x25\n        /* \"#utility.yul\":4706:4724   */\n      0x24\n      dup3\n      add\n        /* \"#utility.yul\":4699:4729   */\n      mstore\n        /* \"#utility.yul\":4765:4799   */\n      0x45524332303a207472616e736665722066726f6d20746865207a65726f206164\n        /* \"#utility.yul\":4745:4763   */\n      0x44\n      dup3\n      add\n        /* \"#utility.yul\":4738:4800   */\n      mstore\n        /* \"#utility.yul\":4836:4843   */\n      0x6472657373000000000000000000000000000000000000000000000000000000\n        /* \"#utility.yul\":4816:4834   */\n      0x64\n      dup3\n      add\n        /* \"#utility.yul\":4809:4844   */\n      mstore\n        /* \"#utility.yul\":4861:4880   */\n      0x84\n      add\n        /* \"https://github.com/OpenZeppelin/openzeppelin-contracts/blob/v4.1.0/contracts/token/ERC20/ERC20.sol\":7257:7327  require(sender != address(0), \"ERC20: transfer from the zero address\") */\n      tag_95\n        /* \"#utility.yul\":4659:4886   */\n      jump\n        /* \"https://github.com/OpenZeppelin/openzeppelin-contracts/blob/v4.1.0/contracts/token/ERC20/ERC20.sol\":7257:7327  require(sender != address(0), \"ERC20: transfer from the zero address\") */\n    tag_143:\n      sub(exp(0x02, 0xa0), 0x01)\n        /* \"https://github.com/OpenZeppelin/openzeppelin-contracts/blob/v4.1.0/contracts/token/ERC20/ERC20.sol\":7345:7368  recipient != address(0) */\n      dup3\n      and\n        /* \"https://github.com/OpenZeppelin/openzeppelin-contracts/blob/v4.1.0/contracts/token/ERC20/ERC20.sol\":7337:7408  require(recipient != address(0), \"ERC20: transfer to the zero address\") */\n      tag_146\n      jumpi\n      mload(0x40)\n      mul(0x461bcd, exp(0x02, 0xe5))\n      dup2\n      mstore\n        /* \"#utility.yul\":2259:2261   */\n      0x20\n        /* \"https://github.com/OpenZeppelin/openzeppelin-contracts/blob/v4.1.0/contracts/token/ERC20/ERC20.sol\":7337:7408  require(recipient != address(0), \"ERC20: transfer to the zero address\") */\n      0x04\n      dup3\n      add\n        /* \"#utility.yul\":2241:2262   */\n      mstore\n        /* \"#utility.yul\":2298:2300   */\n      0x23\n        /* \"#utility.yul\":2278:2296   */\n      0x24\n      dup3\n      add\n        /* \"#utility.yul\":2271:2301   */\n      mstore\n        /* \"#utility.yul\":2337:2371   */\n      0x45524332303a207472616e7366657220746f20746865207a65726f2061646472\n        /* \"#utility.yul\":2317:2335   */\n      0x44\n      dup3\n      add\n        /* \"#utility.yul\":2310:2372   */\n      mstore\n        /* \"#utility.yul\":2408:2413   */\n      0x6573730000000000000000000000000000000000000000000000000000000000\n        /* \"#utility.yul\":2388:2406   */\n      0x64\n      dup3\n      add\n        /* \"#utility.yul\":2381:2414   */\n      mstore\n        /* \"#utility.yul\":2431:2450   */\n      0x84\n      add\n        /* \"https://github.com/OpenZeppelin/openzeppelin-contracts/blob/v4.1.0/contracts/token/ERC20/ERC20.sol\":7337:7408  require(recipient != address(0), \"ERC20: transfer to the zero address\") */\n      tag_95\n        /* \"#utility.yul\":2231:2456   */\n      jump\n        /* \"https://github.com/OpenZeppelin/openzeppelin-contracts/blob/v4.1.0/contracts/token/ERC20/ERC20.sol\":7337:7408  require(recipient != address(0), \"ERC20: transfer to the zero address\") */\n    tag_146:\n        /* \"https://github.com/OpenZeppelin/openzeppelin-contracts/blob/v4.1.0/contracts/token/ERC20/ERC20.sol\":7419:7466  _beforeTokenTransfer(sender, recipient, amount) */\n      tag_149\n        /* \"https://github.com/OpenZeppelin/openzeppelin-contracts/blob/v4.1.0/contracts/token/ERC20/ERC20.sol\":7440:7446  sender */\n      dup4\n        /* \"https://github.com/OpenZeppelin/openzeppelin-contracts/blob/v4.1.0/contracts/token/ERC20/ERC20.sol\":7448:7457  recipient */\n      dup4\n        /* \"https://github.com/OpenZeppelin/openzeppelin-contracts/blob/v4.1.0/contracts/token/ERC20/ERC20.sol\":7459:7465  amount */\n      dup4\n        /* \"https://github.com/OpenZeppelin/openzeppelin-contracts/blob/v4.1.0/contracts/token/ERC20/ERC20.sol\":7419:7439  _beforeTokenTransfer */\n      tag_150\n        /* \"https://github.com/OpenZeppelin/openzeppelin-contracts/blob/v4.1.0/contracts/token/ERC20/ERC20.sol\":7419:7466  _beforeTokenTransfer(sender, recipient, amount) */\n      jump\t// in\n    tag_149:\n      sub(exp(0x02, 0xa0), 0x01)\n        /* \"https://github.com/OpenZeppelin/openzeppelin-contracts/blob/v4.1.0/contracts/token/ERC20/ERC20.sol\":7501:7518  _balances[sender] */\n      dup4\n      and\n        /* \"https://github.com/OpenZeppelin/openzeppelin-contracts/blob/v4.1.0/contracts/token/ERC20/ERC20.sol\":7477:7498  uint256 senderBalance */\n      0x00\n        /* \"https://github.com/OpenZeppelin/openzeppelin-contracts/blob/v4.1.0/contracts/token/ERC20/ERC20.sol\":7501:7518  _balances[sender] */\n      swap1\n      dup2\n      mstore\n      0x20\n      dup2\n      swap1\n      mstore\n      0x40\n      swap1\n      keccak256\n      sload\n        /* \"https://github.com/OpenZeppelin/openzeppelin-contracts/blob/v4.1.0/contracts/token/ERC20/ERC20.sol\":7536:7559  senderBalance >= amount */\n      dup2\n      dup2\n      lt\n      iszero\n        /* \"https://github.com/OpenZeppelin/openzeppelin-contracts/blob/v4.1.0/contracts/token/ERC20/ERC20.sol\":7528:7602  require(senderBalance >= amount, \"ERC20: transfer amount exceeds balance\") */\n      tag_151\n      jumpi\n      mload(0x40)\n      mul(0x461bcd, exp(0x02, 0xe5))\n      dup2\n      mstore\n        /* \"#utility.yul\":3469:3471   */\n      0x20\n        /* \"https://github.com/OpenZeppelin/openzeppelin-contracts/blob/v4.1.0/contracts/token/ERC20/ERC20.sol\":7528:7602  require(senderBalance >= amount, \"ERC20: transfer amount exceeds balance\") */\n      0x04\n      dup3\n      add\n        /* \"#utility.yul\":3451:3472   */\n      mstore\n        /* \"#utility.yul\":3508:3510   */\n      0x26\n        /* \"#utility.yul\":3488:3506   */\n      0x24\n      dup3\n      add\n        /* \"#utility.yul\":3481:3511   */\n      mstore\n        /* \"#utility.yul\":3547:3581   */\n      0x45524332303a207472616e7366657220616d6f756e7420657863656564732062\n        /* \"#utility.yul\":3527:3545   */\n      0x44\n      dup3\n      add\n        /* \"#utility.yul\":3520:3582   */\n      mstore\n        /* \"#utility.yul\":3618:3626   */\n      0x616c616e63650000000000000000000000000000000000000000000000000000\n        /* \"#utility.yul\":3598:3616   */\n      0x64\n      dup3\n      add\n        /* \"#utility.yul\":3591:3627   */\n      mstore\n        /* \"#utility.yul\":3644:3663   */\n      0x84\n      add\n        /* \"https://github.com/OpenZeppelin/openzeppelin-contracts/blob/v4.1.0/contracts/token/ERC20/ERC20.sol\":7528:7602  require(senderBalance >= amount, \"ERC20: transfer amount exceeds balance\") */\n      tag_95\n        /* \"#utility.yul\":3441:3669   */\n      jump\n        /* \"https://github.com/OpenZeppelin/openzeppelin-contracts/blob/v4.1.0/contracts/token/ERC20/ERC20.sol\":7528:7602  require(senderBalance >= amount, \"ERC20: transfer amount exceeds balance\") */\n    tag_151:\n        /* \"https://github.com/OpenZeppelin/openzeppelin-contracts/blob/v4.1.0/contracts/token/ERC20/ERC20.sol\":7632:7654  senderBalance - amount */\n      tag_154\n        /* \"https://github.com/OpenZeppelin/openzeppelin-contracts/blob/v4.1.0/contracts/token/ERC20/ERC20.sol\":7648:7654  amount */\n      dup3\n        /* \"https://github.com/OpenZeppelin/openzeppelin-contracts/blob/v4.1.0/contracts/token/ERC20/ERC20.sol\":7632:7645  senderBalance */\n      dup3\n        /* \"https://github.com/OpenZeppelin/openzeppelin-contracts/blob/v4.1.0/contracts/token/ERC20/ERC20.sol\":7632:7654  senderBalance - amount */\n      tag_100\n      jump\t// in\n    tag_154:\n      sub(exp(0x02, 0xa0), 0x01)\n        /* \"https://github.com/OpenZeppelin/openzeppelin-contracts/blob/v4.1.0/contracts/token/ERC20/ERC20.sol\":7612:7629  _balances[sender] */\n      dup1\n      dup7\n      and\n        /* \"https://github.com/OpenZeppelin/openzeppelin-contracts/blob/v4.1.0/contracts/token/ERC20/ERC20.sol\":7612:7621  _balances */\n      0x00\n        /* \"https://github.com/OpenZeppelin/openzeppelin-contracts/blob/v4.1.0/contracts/token/ERC20/ERC20.sol\":7612:7629  _balances[sender] */\n      swap1\n      dup2\n      mstore\n      0x20\n      dup2\n      swap1\n      mstore\n      0x40\n      dup1\n      dup3\n      keccak256\n        /* \"https://github.com/OpenZeppelin/openzeppelin-contracts/blob/v4.1.0/contracts/token/ERC20/ERC20.sol\":7612:7654  _balances[sender] = senderBalance - amount */\n      swap4\n      swap1\n      swap4\n      sstore\n        /* \"https://github.com/OpenZeppelin/openzeppelin-contracts/blob/v4.1.0/contracts/token/ERC20/ERC20.sol\":7664:7684  _balances[recipient] */\n      swap1\n      dup6\n      and\n      dup2\n      mstore\n      swap1\n      dup2\n      keccak256\n        /* \"https://github.com/OpenZeppelin/openzeppelin-contracts/blob/v4.1.0/contracts/token/ERC20/ERC20.sol\":7664:7694  _balances[recipient] += amount */\n      dup1\n      sload\n        /* \"https://github.com/OpenZeppelin/openzeppelin-contracts/blob/v4.1.0/contracts/token/ERC20/ERC20.sol\":7688:7694  amount */\n      dup5\n      swap3\n        /* \"https://github.com/OpenZeppelin/openzeppelin-contracts/blob/v4.1.0/contracts/token/ERC20/ERC20.sol\":7612:7621  _balances */\n      swap1\n        /* \"https://github.com/OpenZeppelin/openzeppelin-contracts/blob/v4.1.0/contracts/token/ERC20/ERC20.sol\":7664:7694  _balances[recipient] += amount */\n      tag_155\n      swap1\n        /* \"https://github.com/OpenZeppelin/openzeppelin-contracts/blob/v4.1.0/contracts/token/ERC20/ERC20.sol\":7688:7694  amount */\n      dup5\n      swap1\n        /* \"https://github.com/OpenZeppelin/openzeppelin-contracts/blob/v4.1.0/contracts/token/ERC20/ERC20.sol\":7664:7694  _balances[recipient] += amount */\n      tag_107\n      jump\t// in\n    tag_155:\n      swap3\n      pop\n      pop\n      dup2\n      swap1\n      sstore\n      pop\n        /* \"https://github.com/OpenZeppelin/openzeppelin-contracts/blob/v4.1.0/contracts/token/ERC20/ERC20.sol\":7727:7736  recipient */\n      dup3\n      sub(exp(0x02, 0xa0), 0x01)\n        /* \"https://github.com/OpenZeppelin/openzeppelin-contracts/blob/v4.1.0/contracts/token/ERC20/ERC20.sol\":7710:7745  Transfer(sender, recipient, amount) */\n      and\n        /* \"https://github.com/OpenZeppelin/openzeppelin-contracts/blob/v4.1.0/contracts/token/ERC20/ERC20.sol\":7719:7725  sender */\n      dup5\n      sub(exp(0x02, 0xa0), 0x01)\n        /* \"https://github.com/OpenZeppelin/openzeppelin-contracts/blob/v4.1.0/contracts/token/ERC20/ERC20.sol\":7710:7745  Transfer(sender, recipient, amount) */\n      and\n      0xddf252ad1be2c89b69c2b068fc378daa952ba7f163c4a11628f55a4df523b3ef\n        /* \"https://github.com/OpenZeppelin/openzeppelin-contracts/blob/v4.1.0/contracts/token/ERC20/ERC20.sol\":7738:7744  amount */\n      dup5\n        /* \"https://github.com/OpenZeppelin/openzeppelin-contracts/blob/v4.1.0/contracts/token/ERC20/ERC20.sol\":7710:7745  Transfer(sender, recipient, amount) */\n      mload(0x40)\n      tag_156\n      swap2\n        /* \"#utility.yul\":6208:6233   */\n      dup2\n      mstore\n        /* \"#utility.yul\":6196:6198   */\n      0x20\n        /* \"#utility.yul\":6181:6199   */\n      add\n      swap1\n        /* \"#utility.yul\":6163:6239   */\n      jump\n        /* \"https://github.com/OpenZeppelin/openzeppelin-contracts/blob/v4.1.0/contracts/token/ERC20/ERC20.sol\":7710:7745  Transfer(sender, recipient, amount) */\n    tag_156:\n      mload(0x40)\n      dup1\n      swap2\n      sub\n      swap1\n      log3\n        /* \"https://github.com/OpenZeppelin/openzeppelin-contracts/blob/v4.1.0/contracts/token/ERC20/ERC20.sol\":7247:7752  {... */\n      pop\n        /* \"https://github.com/OpenZeppelin/openzeppelin-contracts/blob/v4.1.0/contracts/token/ERC20/ERC20.sol\":7160:7752  function _transfer(address sender, address recipient, uint256 amount) internal virtual {... */\n      pop\n      pop\n      pop\n      jump\t// out\n        /* \"https://github.com/OpenZeppelin/openzeppelin-contracts/blob/v4.1.0/contracts/token/ERC20/ERC20.sol\":8023:8353  function _mint(address account, uint256 amount) internal virtual {... */\n    tag_110:\n      sub(exp(0x02, 0xa0), 0x01)\n        /* \"https://github.com/OpenZeppelin/openzeppelin-contracts/blob/v4.1.0/contracts/token/ERC20/ERC20.sol\":8106:8127  account != address(0) */\n      dup3\n      and\n        /* \"https://github.com/OpenZeppelin/openzeppelin-contracts/blob/v4.1.0/contracts/token/ERC20/ERC20.sol\":8098:8163  require(account != address(0), \"ERC20: mint to the zero address\") */\n      tag_158\n      jumpi\n      mload(0x40)\n      mul(0x461bcd, exp(0x02, 0xe5))\n      dup2\n      mstore\n        /* \"#utility.yul\":5904:5906   */\n      0x20\n        /* \"https://github.com/OpenZeppelin/openzeppelin-contracts/blob/v4.1.0/contracts/token/ERC20/ERC20.sol\":8098:8163  require(account != address(0), \"ERC20: mint to the zero address\") */\n      0x04\n      dup3\n      add\n        /* \"#utility.yul\":5886:5907   */\n      mstore\n        /* \"#utility.yul\":5943:5945   */\n      0x1f\n        /* \"#utility.yul\":5923:5941   */\n      0x24\n      dup3\n      add\n        /* \"#utility.yul\":5916:5946   */\n      mstore\n        /* \"#utility.yul\":5982:6015   */\n      0x45524332303a206d696e7420746f20746865207a65726f206164647265737300\n        /* \"#utility.yul\":5962:5980   */\n      0x44\n      dup3\n      add\n        /* \"#utility.yul\":5955:6016   */\n      mstore\n        /* \"#utility.yul\":6033:6051   */\n      0x64\n      add\n        /* \"https://github.com/OpenZeppelin/openzeppelin-contracts/blob/v4.1.0/contracts/token/ERC20/ERC20.sol\":8098:8163  require(account != address(0), \"ERC20: mint to the zero address\") */\n      tag_95\n        /* \"#utility.yul\":5876:6057   */\n      jump\n        /* \"https://github.com/OpenZeppelin/openzeppelin-contracts/blob/v4.1.0/contracts/token/ERC20/ERC20.sol\":8098:8163  require(account != address(0), \"ERC20: mint to the zero address\") */\n    tag_158:\n        /* \"https://github.com/OpenZeppelin/openzeppelin-contracts/blob/v4.1.0/contracts/token/ERC20/ERC20.sol\":8174:8223  _beforeTokenTransfer(address(0), account, amount) */\n      tag_161\n        /* \"https://github.com/OpenZeppelin/openzeppelin-contracts/blob/v4.1.0/contracts/token/ERC20/ERC20.sol\":8203:8204  0 */\n      0x00\n        /* \"https://github.com/OpenZeppelin/openzeppelin-contracts/blob/v4.1.0/contracts/token/ERC20/ERC20.sol\":8207:8214  account */\n      dup4\n        /* \"https://github.com/OpenZeppelin/openzeppelin-contracts/blob/v4.1.0/contracts/token/ERC20/ERC20.sol\":8216:8222  amount */\n      dup4\n        /* \"https://github.com/OpenZeppelin/openzeppelin-contracts/blob/v4.1.0/contracts/token/ERC20/ERC20.sol\":8174:8194  _beforeTokenTransfer */\n      tag_150\n        /* \"https://github.com/OpenZeppelin/openzeppelin-contracts/blob/v4.1.0/contracts/token/ERC20/ERC20.sol\":8174:8223  _beforeTokenTransfer(address(0), account, amount) */\n      jump\t// in\n    tag_161:\n        /* \"https://github.com/OpenZeppelin/openzeppelin-contracts/blob/v4.1.0/contracts/token/ERC20/ERC20.sol\":8250:8256  amount */\n      dup1\n        /* \"https://github.com/OpenZeppelin/openzeppelin-contracts/blob/v4.1.0/contracts/token/ERC20/ERC20.sol\":8234:8246  _totalSupply */\n      0x02\n      0x00\n        /* \"https://github.com/OpenZeppelin/openzeppelin-contracts/blob/v4.1.0/contracts/token/ERC20/ERC20.sol\":8234:8256  _totalSupply += amount */\n      dup3\n      dup3\n      sload\n      tag_162\n      swap2\n      swap1\n      tag_107\n      jump\t// in\n    tag_162:\n      swap1\n      swap2\n      sstore\n      pop\n      pop\n      sub(exp(0x02, 0xa0), 0x01)\n        /* \"https://github.com/OpenZeppelin/openzeppelin-contracts/blob/v4.1.0/contracts/token/ERC20/ERC20.sol\":8266:8284  _balances[account] */\n      dup3\n      and\n        /* \"https://github.com/OpenZeppelin/openzeppelin-contracts/blob/v4.1.0/contracts/token/ERC20/ERC20.sol\":8266:8275  _balances */\n      0x00\n        /* \"https://github.com/OpenZeppelin/openzeppelin-contracts/blob/v4.1.0/contracts/token/ERC20/ERC20.sol\":8266:8284  _balances[account] */\n      swap1\n      dup2\n      mstore\n      0x20\n      dup2\n      swap1\n      mstore\n      0x40\n      dup2\n      keccak256\n        /* \"https://github.com/OpenZeppelin/openzeppelin-contracts/blob/v4.1.0/contracts/token/ERC20/ERC20.sol\":8266:8294  _balances[account] += amount */\n      dup1\n      sload\n        /* \"https://github.com/OpenZeppelin/openzeppelin-contracts/blob/v4.1.0/contracts/token/ERC20/ERC20.sol\":8288:8294  amount */\n      dup4\n      swap3\n        /* \"https://github.com/OpenZeppelin/openzeppelin-contracts/blob/v4.1.0/contracts/token/ERC20/ERC20.sol\":8266:8275  _balances */\n      swap1\n        /* \"https://github.com/OpenZeppelin/openzeppelin-contracts/blob/v4.1.0/contracts/token/ERC20/ERC20.sol\":8266:8294  _balances[account] += amount */\n      tag_163\n      swap1\n        /* \"https://github.com/OpenZeppelin/openzeppelin-contracts/blob/v4.1.0/contracts/token/ERC20/ERC20.sol\":8288:8294  amount */\n      dup5\n      swap1\n        /* \"https://github.com/OpenZeppelin/openzeppelin-contracts/blob/v4.1.0/contracts/token/ERC20/ERC20.sol\":8266:8294  _balances[account] += amount */\n      tag_107\n      jump\t// in\n    tag_163:\n      swap1\n      swap2\n      sstore\n      pop\n      pop\n        /* \"https://github.com/OpenZeppelin/openzeppelin-contracts/blob/v4.1.0/contracts/token/ERC20/ERC20.sol\":8309:8346  Transfer(address(0), account, amount) */\n      mload(0x40)\n        /* \"#utility.yul\":6208:6233   */\n      dup2\n      dup2\n      mstore\n      sub(exp(0x02, 0xa0), 0x01)\n        /* \"https://github.com/OpenZeppelin/openzeppelin-contracts/blob/v4.1.0/contracts/token/ERC20/ERC20.sol\":8309:8346  Transfer(address(0), account, amount) */\n      dup4\n      and\n      swap1\n        /* \"https://github.com/OpenZeppelin/openzeppelin-contracts/blob/v4.1.0/contracts/token/ERC20/ERC20.sol\":8326:8327  0 */\n      0x00\n      swap1\n        /* \"https://github.com/OpenZeppelin/openzeppelin-contracts/blob/v4.1.0/contracts/token/ERC20/ERC20.sol\":8309:8346  Transfer(address(0), account, amount) */\n      0xddf252ad1be2c89b69c2b068fc378daa952ba7f163c4a11628f55a4df523b3ef\n      swap1\n        /* \"#utility.yul\":6196:6198   */\n      0x20\n        /* \"#utility.yul\":6181:6199   */\n      add\n        /* \"https://github.com/OpenZeppelin/openzeppelin-contracts/blob/v4.1.0/contracts/token/ERC20/ERC20.sol\":8309:8346  Transfer(address(0), account, amount) */\n      mload(0x40)\n      dup1\n      swap2\n      sub\n      swap1\n      log3\n        /* \"https://github.com/OpenZeppelin/openzeppelin-contracts/blob/v4.1.0/contracts/token/ERC20/ERC20.sol\":8023:8353  function _mint(address account, uint256 amount) internal virtual {... */\n      pop\n      pop\n      jump\t// out\n        /* \"https://github.com/OpenZeppelin/openzeppelin-contracts/blob/v4.1.0/contracts/token/ERC20/ERC20.sol\":8673:9156  function _burn(address account, uint256 amount) internal virtual {... */\n    tag_120:\n      sub(exp(0x02, 0xa0), 0x01)\n        /* \"https://github.com/OpenZeppelin/openzeppelin-contracts/blob/v4.1.0/contracts/token/ERC20/ERC20.sol\":8756:8777  account != address(0) */\n      dup3\n      and\n        /* \"https://github.com/OpenZeppelin/openzeppelin-contracts/blob/v4.1.0/contracts/token/ERC20/ERC20.sol\":8748:8815  require(account != address(0), \"ERC20: burn from the zero address\") */\n      tag_166\n      jumpi\n      mload(0x40)\n      mul(0x461bcd, exp(0x02, 0xe5))\n      dup2\n      mstore\n        /* \"#utility.yul\":4285:4287   */\n      0x20\n        /* \"https://github.com/OpenZeppelin/openzeppelin-contracts/blob/v4.1.0/contracts/token/ERC20/ERC20.sol\":8748:8815  require(account != address(0), \"ERC20: burn from the zero address\") */\n      0x04\n      dup3\n      add\n        /* \"#utility.yul\":4267:4288   */\n      mstore\n        /* \"#utility.yul\":4324:4326   */\n      0x21\n        /* \"#utility.yul\":4304:4322   */\n      0x24\n      dup3\n      add\n        /* \"#utility.yul\":4297:4327   */\n      mstore\n        /* \"#utility.yul\":4363:4397   */\n      0x45524332303a206275726e2066726f6d20746865207a65726f20616464726573\n        /* \"#utility.yul\":4343:4361   */\n      0x44\n      dup3\n      add\n        /* \"#utility.yul\":4336:4398   */\n      mstore\n        /* \"#utility.yul\":4434:4437   */\n      0x7300000000000000000000000000000000000000000000000000000000000000\n        /* \"#utility.yul\":4414:4432   */\n      0x64\n      dup3\n      add\n        /* \"#utility.yul\":4407:4438   */\n      mstore\n        /* \"#utility.yul\":4455:4474   */\n      0x84\n      add\n        /* \"https://github.com/OpenZeppelin/openzeppelin-contracts/blob/v4.1.0/contracts/token/ERC20/ERC20.sol\":8748:8815  require(account != address(0), \"ERC20: burn from the zero address\") */\n      tag_95\n        /* \"#utility.yul\":4257:4480   */\n      jump\n        /* \"https://github.com/OpenZeppelin/openzeppelin-contracts/blob/v4.1.0/contracts/token/ERC20/ERC20.sol\":8748:8815  require(account != address(0), \"ERC20: burn from the zero address\") */\n    tag_166:\n        /* \"https://github.com/OpenZeppelin/openzeppelin-contracts/blob/v4.1.0/contracts/token/ERC20/ERC20.sol\":8826:8875  _beforeTokenTransfer(account, address(0), amount) */\n      tag_169\n        /* \"https://github.com/OpenZeppelin/openzeppelin-contracts/blob/v4.1.0/contracts/token/ERC20/ERC20.sol\":8847:8854  account */\n      dup3\n        /* \"https://github.com/OpenZeppelin/openzeppelin-contracts/blob/v4.1.0/contracts/token/ERC20/ERC20.sol\":8864:8865  0 */\n      0x00\n        /* \"https://github.com/OpenZeppelin/openzeppelin-contracts/blob/v4.1.0/contracts/token/ERC20/ERC20.sol\":8868:8874  amount */\n      dup4\n        /* \"https://github.com/OpenZeppelin/openzeppelin-contracts/blob/v4.1.0/contracts/token/ERC20/ERC20.sol\":8826:8846  _beforeTokenTransfer */\n      tag_150\n        /* \"https://github.com/OpenZeppelin/openzeppelin-contracts/blob/v4.1.0/contracts/token/ERC20/ERC20.sol\":8826:8875  _beforeTokenTransfer(account, address(0), amount) */\n      jump\t// in\n    tag_169:\n      sub(exp(0x02, 0xa0), 0x01)\n        /* \"https://github.com/OpenZeppelin/openzeppelin-contracts/blob/v4.1.0/contracts/token/ERC20/ERC20.sol\":8911:8929  _balances[account] */\n      dup3\n      and\n        /* \"https://github.com/OpenZeppelin/openzeppelin-contracts/blob/v4.1.0/contracts/token/ERC20/ERC20.sol\":8886:8908  uint256 accountBalance */\n      0x00\n        /* \"https://github.com/OpenZeppelin/openzeppelin-contracts/blob/v4.1.0/contracts/token/ERC20/ERC20.sol\":8911:8929  _balances[account] */\n      swap1\n      dup2\n      mstore\n      0x20\n      dup2\n      swap1\n      mstore\n      0x40\n      swap1\n      keccak256\n      sload\n        /* \"https://github.com/OpenZeppelin/openzeppelin-contracts/blob/v4.1.0/contracts/token/ERC20/ERC20.sol\":8947:8971  accountBalance >= amount */\n      dup2\n      dup2\n      lt\n      iszero\n        /* \"https://github.com/OpenZeppelin/openzeppelin-contracts/blob/v4.1.0/contracts/token/ERC20/ERC20.sol\":8939:9010  require(accountBalance >= amount, \"ERC20: burn amount exceeds balance\") */\n      tag_170\n      jumpi\n      mload(0x40)\n      mul(0x461bcd, exp(0x02, 0xe5))\n      dup2\n      mstore\n        /* \"#utility.yul\":2663:2665   */\n      0x20\n        /* \"https://github.com/OpenZeppelin/openzeppelin-contracts/blob/v4.1.0/contracts/token/ERC20/ERC20.sol\":8939:9010  require(accountBalance >= amount, \"ERC20: burn amount exceeds balance\") */\n      0x04\n      dup3\n      add\n        /* \"#utility.yul\":2645:2666   */\n      mstore\n        /* \"#utility.yul\":2702:2704   */\n      0x22\n        /* \"#utility.yul\":2682:2700   */\n      0x24\n      dup3\n      add\n        /* \"#utility.yul\":2675:2705   */\n      mstore\n        /* \"#utility.yul\":2741:2775   */\n      0x45524332303a206275726e20616d6f756e7420657863656564732062616c616e\n        /* \"#utility.yul\":2721:2739   */\n      0x44\n      dup3\n      add\n        /* \"#utility.yul\":2714:2776   */\n      mstore\n        /* \"#utility.yul\":2812:2816   */\n      0x6365000000000000000000000000000000000000000000000000000000000000\n        /* \"#utility.yul\":2792:2810   */\n      0x64\n      dup3\n      add\n        /* \"#utility.yul\":2785:2817   */\n      mstore\n        /* \"#utility.yul\":2834:2853   */\n      0x84\n      add\n        /* \"https://github.com/OpenZeppelin/openzeppelin-contracts/blob/v4.1.0/contracts/token/ERC20/ERC20.sol\":8939:9010  require(accountBalance >= amount, \"ERC20: burn amount exceeds balance\") */\n      tag_95\n        /* \"#utility.yul\":2635:2859   */\n      jump\n        /* \"https://github.com/OpenZeppelin/openzeppelin-contracts/blob/v4.1.0/contracts/token/ERC20/ERC20.sol\":8939:9010  require(accountBalance >= amount, \"ERC20: burn amount exceeds balance\") */\n    tag_170:\n        /* \"https://github.com/OpenZeppelin/openzeppelin-contracts/blob/v4.1.0/contracts/token/ERC20/ERC20.sol\":9041:9064  accountBalance - amount */\n      tag_173\n        /* \"https://github.com/OpenZeppelin/openzeppelin-contracts/blob/v4.1.0/contracts/token/ERC20/ERC20.sol\":9058:9064  amount */\n      dup3\n        /* \"https://github.com/OpenZeppelin/openzeppelin-contracts/blob/v4.1.0/contracts/token/ERC20/ERC20.sol\":9041:9055  accountBalance */\n      dup3\n        /* \"https://github.com/OpenZeppelin/openzeppelin-contracts/blob/v4.1.0/contracts/token/ERC20/ERC20.sol\":9041:9064  accountBalance - amount */\n      tag_100\n      jump\t// in\n    tag_173:\n      sub(exp(0x02, 0xa0), 0x01)\n        /* \"https://github.com/OpenZeppelin/openzeppelin-contracts/blob/v4.1.0/contracts/token/ERC20/ERC20.sol\":9020:9038  _balances[account] */\n      dup5\n      and\n        /* \"https://github.com/OpenZeppelin/openzeppelin-contracts/blob/v4.1.0/contracts/token/ERC20/ERC20.sol\":9020:9029  _balances */\n      0x00\n        /* \"https://github.com/OpenZeppelin/openzeppelin-contracts/blob/v4.1.0/contracts/token/ERC20/ERC20.sol\":9020:9038  _balances[account] */\n      swap1\n      dup2\n      mstore\n      0x20\n      dup2\n      swap1\n      mstore\n      0x40\n      dup2\n      keccak256\n        /* \"https://github.com/OpenZeppelin/openzeppelin-contracts/blob/v4.1.0/contracts/token/ERC20/ERC20.sol\":9020:9064  _balances[account] = accountBalance - amount */\n      swap2\n      swap1\n      swap2\n      sstore\n        /* \"https://github.com/OpenZeppelin/openzeppelin-contracts/blob/v4.1.0/contracts/token/ERC20/ERC20.sol\":9074:9086  _totalSupply */\n      0x02\n        /* \"https://github.com/OpenZeppelin/openzeppelin-contracts/blob/v4.1.0/contracts/token/ERC20/ERC20.sol\":9074:9096  _totalSupply -= amount */\n      dup1\n      sload\n        /* \"https://github.com/OpenZeppelin/openzeppelin-contracts/blob/v4.1.0/contracts/token/ERC20/ERC20.sol\":9090:9096  amount */\n      dup5\n      swap3\n        /* \"https://github.com/OpenZeppelin/openzeppelin-contracts/blob/v4.1.0/contracts/token/ERC20/ERC20.sol\":9020:9029  _balances */\n      swap1\n        /* \"https://github.com/OpenZeppelin/openzeppelin-contracts/blob/v4.1.0/contracts/token/ERC20/ERC20.sol\":9074:9096  _totalSupply -= amount */\n      tag_174\n      swap1\n        /* \"https://github.com/OpenZeppelin/openzeppelin-contracts/blob/v4.1.0/contracts/token/ERC20/ERC20.sol\":9090:9096  amount */\n      dup5\n      swap1\n        /* \"https://github.com/OpenZeppelin/openzeppelin-contracts/blob/v4.1.0/contracts/token/ERC20/ERC20.sol\":9074:9096  _totalSupply -= amount */\n      tag_100\n      jump\t// in\n    tag_174:\n      swap1\n      swap2\n      sstore\n      pop\n      pop\n        /* \"https://github.com/OpenZeppelin/openzeppelin-contracts/blob/v4.1.0/contracts/token/ERC20/ERC20.sol\":9112:9149  Transfer(account, address(0), amount) */\n      mload(0x40)\n        /* \"#utility.yul\":6208:6233   */\n      dup3\n      dup2\n      mstore\n        /* \"https://github.com/OpenZeppelin/openzeppelin-contracts/blob/v4.1.0/contracts/token/ERC20/ERC20.sol\":9138:9139  0 */\n      0x00\n      swap1\n      sub(exp(0x02, 0xa0), 0x01)\n        /* \"https://github.com/OpenZeppelin/openzeppelin-contracts/blob/v4.1.0/contracts/token/ERC20/ERC20.sol\":9112:9149  Transfer(account, address(0), amount) */\n      dup6\n      and\n      swap1\n      0xddf252ad1be2c89b69c2b068fc378daa952ba7f163c4a11628f55a4df523b3ef\n      swap1\n        /* \"#utility.yul\":6196:6198   */\n      0x20\n        /* \"#utility.yul\":6181:6199   */\n      add\n        /* \"https://github.com/OpenZeppelin/openzeppelin-contracts/blob/v4.1.0/contracts/token/ERC20/ERC20.sol\":9112:9149  Transfer(account, address(0), amount) */\n      tag_141\n        /* \"#utility.yul\":6163:6239   */\n      jump\n        /* \"contracts/Loren.sol\":540:668  function _beforeTokenTransfer(address from, address to, uint256 amount) internal override... */\n    tag_150:\n        /* \"contracts/Loren.sol\":662:663  1 */\n      0x01\n        /* \"contracts/Loren.sol\":638:658  token_transfer_count */\n      0x05\n      0x00\n        /* \"contracts/Loren.sol\":638:663  token_transfer_count += 1 */\n      dup3\n      dup3\n      sload\n      tag_177\n      swap2\n      swap1\n      tag_107\n      jump\t// in\n    tag_177:\n      swap1\n      swap2\n      sstore\n      pop\n      pop\n      pop\n      pop\n      pop\n        /* \"contracts/Loren.sol\":540:668  function _beforeTokenTransfer(address from, address to, uint256 amount) internal override... */\n      jump\t// out\n        /* \"#utility.yul\":14:210   */\n    tag_179:\n        /* \"#utility.yul\":82:102   */\n      dup1\n      calldataload\n      sub(exp(0x02, 0xa0), 0x01)\n        /* \"#utility.yul\":131:185   */\n      dup2\n      and\n        /* \"#utility.yul\":121:186   */\n      dup2\n      eq\n        /* \"#utility.yul\":111:113   */\n      tag_181\n      jumpi\n        /* \"#utility.yul\":200:201   */\n      0x00\n        /* \"#utility.yul\":197:198   */\n      dup1\n        /* \"#utility.yul\":190:202   */\n      revert\n        /* \"#utility.yul\":111:113   */\n    tag_181:\n        /* \"#utility.yul\":63:210   */\n      swap2\n      swap1\n      pop\n      jump\t// out\n        /* \"#utility.yul\":215:401   */\n    tag_55:\n        /* \"#utility.yul\":274:280   */\n      0x00\n        /* \"#utility.yul\":327:329   */\n      0x20\n        /* \"#utility.yul\":315:324   */\n      dup3\n        /* \"#utility.yul\":306:313   */\n      dup5\n        /* \"#utility.yul\":302:325   */\n      sub\n        /* \"#utility.yul\":298:330   */\n      slt\n        /* \"#utility.yul\":295:297   */\n      iszero\n      tag_183\n      jumpi\n        /* \"#utility.yul\":343:344   */\n      0x00\n        /* \"#utility.yul\":340:341   */\n      dup1\n        /* \"#utility.yul\":333:345   */\n      revert\n        /* \"#utility.yul\":295:297   */\n    tag_183:\n        /* \"#utility.yul\":366:395   */\n      tag_184\n        /* \"#utility.yul\":385:394   */\n      dup3\n        /* \"#utility.yul\":366:395   */\n      tag_179\n      jump\t// in\n    tag_184:\n        /* \"#utility.yul\":356:395   */\n      swap4\n        /* \"#utility.yul\":285:401   */\n      swap3\n      pop\n      pop\n      pop\n      jump\t// out\n        /* \"#utility.yul\":406:666   */\n    tag_74:\n        /* \"#utility.yul\":474:480   */\n      0x00\n        /* \"#utility.yul\":482:488   */\n      dup1\n        /* \"#utility.yul\":535:537   */\n      0x40\n        /* \"#utility.yul\":523:532   */\n      dup4\n        /* \"#utility.yul\":514:521   */\n      dup6\n        /* \"#utility.yul\":510:533   */\n      sub\n        /* \"#utility.yul\":506:538   */\n      slt\n        /* \"#utility.yul\":503:505   */\n      iszero\n      tag_186\n      jumpi\n        /* \"#utility.yul\":551:552   */\n      0x00\n        /* \"#utility.yul\":548:549   */\n      dup1\n        /* \"#utility.yul\":541:553   */\n      revert\n        /* \"#utility.yul\":503:505   */\n    tag_186:\n        /* \"#utility.yul\":574:603   */\n      tag_187\n        /* \"#utility.yul\":593:602   */\n      dup4\n        /* \"#utility.yul\":574:603   */\n      tag_179\n      jump\t// in\n    tag_187:\n        /* \"#utility.yul\":564:603   */\n      swap2\n      pop\n        /* \"#utility.yul\":622:660   */\n      tag_188\n        /* \"#utility.yul\":656:658   */\n      0x20\n        /* \"#utility.yul\":645:654   */\n      dup5\n        /* \"#utility.yul\":641:659   */\n      add\n        /* \"#utility.yul\":622:660   */\n      tag_179\n      jump\t// in\n    tag_188:\n        /* \"#utility.yul\":612:660   */\n      swap1\n      pop\n        /* \"#utility.yul\":493:666   */\n      swap3\n      pop\n      swap3\n      swap1\n      pop\n      jump\t// out\n        /* \"#utility.yul\":671:999   */\n    tag_39:\n        /* \"#utility.yul\":748:754   */\n      0x00\n        /* \"#utility.yul\":756:762   */\n      dup1\n        /* \"#utility.yul\":764:770   */\n      0x00\n        /* \"#utility.yul\":817:819   */\n      0x60\n        /* \"#utility.yul\":805:814   */\n      dup5\n        /* \"#utility.yul\":796:803   */\n      dup7\n        /* \"#utility.yul\":792:815   */\n      sub\n        /* \"#utility.yul\":788:820   */\n      slt\n        /* \"#utility.yul\":785:787   */\n      iszero\n      tag_190\n      jumpi\n        /* \"#utility.yul\":833:834   */\n      0x00\n        /* \"#utility.yul\":830:831   */\n      dup1\n        /* \"#utility.yul\":823:835   */\n      revert\n        /* \"#utility.yul\":785:787   */\n    tag_190:\n        /* \"#utility.yul\":856:885   */\n      tag_191\n        /* \"#utility.yul\":875:884   */\n      dup5\n        /* \"#utility.yul\":856:885   */\n      tag_179\n      jump\t// in\n    tag_191:\n        /* \"#utility.yul\":846:885   */\n      swap3\n      pop\n        /* \"#utility.yul\":904:942   */\n      tag_192\n        /* \"#utility.yul\":938:940   */\n      0x20\n        /* \"#utility.yul\":927:936   */\n      dup6\n        /* \"#utility.yul\":923:941   */\n      add\n        /* \"#utility.yul\":904:942   */\n      tag_179\n      jump\t// in\n    tag_192:\n        /* \"#utility.yul\":894:942   */\n      swap2\n      pop\n        /* \"#utility.yul\":989:991   */\n      0x40\n        /* \"#utility.yul\":978:987   */\n      dup5\n        /* \"#utility.yul\":974:992   */\n      add\n        /* \"#utility.yul\":961:993   */\n      calldataload\n        /* \"#utility.yul\":951:993   */\n      swap1\n      pop\n        /* \"#utility.yul\":775:999   */\n      swap3\n      pop\n      swap3\n      pop\n      swap3\n      jump\t// out\n        /* \"#utility.yul\":1004:1258   */\n    tag_26:\n        /* \"#utility.yul\":1072:1078   */\n      0x00\n        /* \"#utility.yul\":1080:1086   */\n      dup1\n        /* \"#utility.yul\":1133:1135   */\n      0x40\n        /* \"#utility.yul\":1121:1130   */\n      dup4\n        /* \"#utility.yul\":1112:1119   */\n      dup6\n        /* \"#utility.yul\":1108:1131   */\n      sub\n        /* \"#utility.yul\":1104:1136   */\n      slt\n        /* \"#utility.yul\":1101:1103   */\n      iszero\n      tag_194\n      jumpi\n        /* \"#utility.yul\":1149:1150   */\n      0x00\n        /* \"#utility.yul\":1146:1147   */\n      dup1\n        /* \"#utility.yul\":1139:1151   */\n      revert\n        /* \"#utility.yul\":1101:1103   */\n    tag_194:\n        /* \"#utility.yul\":1172:1201   */\n      tag_195\n        /* \"#utility.yul\":1191:1200   */\n      dup4\n        /* \"#utility.yul\":1172:1201   */\n      tag_179\n      jump\t// in\n    tag_195:\n        /* \"#utility.yul\":1162:1201   */\n      swap5\n        /* \"#utility.yul\":1248:1250   */\n      0x20\n        /* \"#utility.yul\":1233:1251   */\n      swap4\n      swap1\n      swap4\n      add\n        /* \"#utility.yul\":1220:1252   */\n      calldataload\n      swap4\n      pop\n      pop\n      pop\n        /* \"#utility.yul\":1091:1258   */\n      jump\t// out\n        /* \"#utility.yul\":1455:2052   */\n    tag_23:\n        /* \"#utility.yul\":1567:1571   */\n      0x00\n        /* \"#utility.yul\":1596:1598   */\n      0x20\n        /* \"#utility.yul\":1625:1627   */\n      dup1\n        /* \"#utility.yul\":1614:1623   */\n      dup4\n        /* \"#utility.yul\":1607:1628   */\n      mstore\n        /* \"#utility.yul\":1657:1663   */\n      dup4\n        /* \"#utility.yul\":1651:1664   */\n      mload\n        /* \"#utility.yul\":1700:1706   */\n      dup1\n        /* \"#utility.yul\":1695:1697   */\n      dup3\n        /* \"#utility.yul\":1684:1693   */\n      dup6\n        /* \"#utility.yul\":1680:1698   */\n      add\n        /* \"#utility.yul\":1673:1707   */\n      mstore\n        /* \"#utility.yul\":1725:1726   */\n      0x00\n        /* \"#utility.yul\":1735:1875   */\n    tag_198:\n        /* \"#utility.yul\":1749:1755   */\n      dup2\n        /* \"#utility.yul\":1746:1747   */\n      dup2\n        /* \"#utility.yul\":1743:1756   */\n      lt\n        /* \"#utility.yul\":1735:1875   */\n      iszero\n      tag_200\n      jumpi\n        /* \"#utility.yul\":1844:1858   */\n      dup6\n      dup2\n      add\n        /* \"#utility.yul\":1840:1863   */\n      dup4\n      add\n        /* \"#utility.yul\":1834:1864   */\n      mload\n        /* \"#utility.yul\":1810:1827   */\n      dup6\n      dup3\n      add\n        /* \"#utility.yul\":1829:1831   */\n      0x40\n        /* \"#utility.yul\":1806:1832   */\n      add\n        /* \"#utility.yul\":1799:1865   */\n      mstore\n        /* \"#utility.yul\":1764:1774   */\n      dup3\n      add\n        /* \"#utility.yul\":1735:1875   */\n      jump(tag_198)\n    tag_200:\n        /* \"#utility.yul\":1893:1899   */\n      dup2\n        /* \"#utility.yul\":1890:1891   */\n      dup2\n        /* \"#utility.yul\":1887:1900   */\n      gt\n        /* \"#utility.yul\":1884:1886   */\n      iszero\n      tag_201\n      jumpi\n        /* \"#utility.yul\":1963:1964   */\n      0x00\n        /* \"#utility.yul\":1958:1960   */\n      0x40\n        /* \"#utility.yul\":1949:1955   */\n      dup4\n        /* \"#utility.yul\":1938:1947   */\n      dup8\n        /* \"#utility.yul\":1934:1956   */\n      add\n        /* \"#utility.yul\":1930:1961   */\n      add\n        /* \"#utility.yul\":1923:1965   */\n      mstore\n        /* \"#utility.yul\":1884:1886   */\n    tag_201:\n      pop\n        /* \"#utility.yul\":2036:2038   */\n      0x1f\n        /* \"#utility.yul\":2015:2030   */\n      add\n      not(0x1f)\n        /* \"#utility.yul\":2011:2040   */\n      and\n        /* \"#utility.yul\":1996:2041   */\n      swap3\n      swap1\n      swap3\n      add\n        /* \"#utility.yul\":2043:2045   */\n      0x40\n        /* \"#utility.yul\":1992:2046   */\n      add\n      swap4\n        /* \"#utility.yul\":1576:2052   */\n      swap3\n      pop\n      pop\n      pop\n      jump\t// out\n        /* \"#utility.yul\":6433:6561   */\n    tag_107:\n        /* \"#utility.yul\":6473:6476   */\n      0x00\n        /* \"#utility.yul\":6504:6505   */\n      dup3\n        /* \"#utility.yul\":6500:6506   */\n      not\n        /* \"#utility.yul\":6497:6498   */\n      dup3\n        /* \"#utility.yul\":6494:6507   */\n      gt\n        /* \"#utility.yul\":6491:6493   */\n      iszero\n      tag_216\n      jumpi\n        /* \"#utility.yul\":6510:6528   */\n      tag_216\n      tag_217\n      jump\t// in\n    tag_216:\n      pop\n        /* \"#utility.yul\":6546:6555   */\n      add\n      swap1\n        /* \"#utility.yul\":6481:6561   */\n      jump\t// out\n        /* \"#utility.yul\":6566:6691   */\n    tag_100:\n        /* \"#utility.yul\":6606:6610   */\n      0x00\n        /* \"#utility.yul\":6634:6635   */\n      dup3\n        /* \"#utility.yul\":6631:6632   */\n      dup3\n        /* \"#utility.yul\":6628:6636   */\n      lt\n        /* \"#utility.yul\":6625:6627   */\n      iszero\n      tag_220\n      jumpi\n        /* \"#utility.yul\":6639:6657   */\n      tag_220\n      tag_217\n      jump\t// in\n    tag_220:\n      pop\n        /* \"#utility.yul\":6676:6685   */\n      sub\n      swap1\n        /* \"#utility.yul\":6615:6691   */\n      jump\t// out\n        /* \"#utility.yul\":6696:7133   */\n    tag_79:\n        /* \"#utility.yul\":6781:6782   */\n      0x02\n        /* \"#utility.yul\":6771:6783   */\n      dup2\n      div\n        /* \"#utility.yul\":6828:6829   */\n      0x01\n        /* \"#utility.yul\":6818:6830   */\n      dup3\n      and\n      dup1\n        /* \"#utility.yul\":6839:6841   */\n      tag_222\n      jumpi\n        /* \"#utility.yul\":6893:6897   */\n      0x7f\n        /* \"#utility.yul\":6885:6891   */\n      dup3\n        /* \"#utility.yul\":6881:6898   */\n      and\n        /* \"#utility.yul\":6871:6898   */\n      swap2\n      pop\n        /* \"#utility.yul\":6839:6841   */\n    tag_222:\n        /* \"#utility.yul\":6946:6948   */\n      0x20\n        /* \"#utility.yul\":6938:6944   */\n      dup3\n        /* \"#utility.yul\":6935:6949   */\n      lt\n        /* \"#utility.yul\":6915:6933   */\n      dup2\n        /* \"#utility.yul\":6912:6950   */\n      eq\n        /* \"#utility.yul\":6909:6911   */\n      iszero\n      tag_223\n      jumpi\n        /* \"#utility.yul\":6983:7060   */\n      0x4e487b7100000000000000000000000000000000000000000000000000000000\n        /* \"#utility.yul\":6980:6981   */\n      0x00\n        /* \"#utility.yul\":6973:7061   */\n      mstore\n        /* \"#utility.yul\":7084:7088   */\n      0x22\n        /* \"#utility.yul\":7081:7082   */\n      0x04\n        /* \"#utility.yul\":7074:7089   */\n      mstore\n        /* \"#utility.yul\":7112:7116   */\n      0x24\n        /* \"#utility.yul\":7109:7110   */\n      0x00\n        /* \"#utility.yul\":7102:7117   */\n      revert\n        /* \"#utility.yul\":6909:6911   */\n    tag_223:\n      pop\n        /* \"#utility.yul\":6751:7133   */\n      swap2\n      swap1\n      pop\n      jump\t// out\n        /* \"#utility.yul\":7138:7322   */\n    tag_217:\n        /* \"#utility.yul\":7190:7267   */\n      0x4e487b7100000000000000000000000000000000000000000000000000000000\n        /* \"#utility.yul\":7187:7188   */\n      0x00\n        /* \"#utility.yul\":7180:7268   */\n      mstore\n        /* \"#utility.yul\":7287:7291   */\n      0x11\n        /* \"#utility.yul\":7284:7285   */\n      0x04\n        /* \"#utility.yul\":7277:7292   */\n      mstore\n        /* \"#utility.yul\":7311:7315   */\n      0x24\n        /* \"#utility.yul\":7308:7309   */\n      0x00\n        /* \"#utility.yul\":7301:7316   */\n      revert\n\n    auxdata: 0xa2646970667358221220033bfd3bc8bee4fd2819dd9eedafa7f16867ccc876b4f827d4fc18cecc2c813164736f6c63430008050033\n}\n",
				"bytecode": {
					"linkReferences": {},
					"object": "608060405260006005553480156200001657600080fd5b506040518060400160405280600581526020017f546f6b656e0000000000000000000000000000000000000000000000000000008152506040518060400160405280600381526020017f544b4e000000000000000000000000000000000000000000000000000000000081525081600390805190602001906200009b92919062000216565b508051620000b190600490602084019062000216565b505050620000d833683635c9adc5dea00000620000de640100000000026401000000009004565b62000352565b600160a060020a03821662000153576040517f08c379a000000000000000000000000000000000000000000000000000000000815260206004820152601f60248201527f45524332303a206d696e7420746f20746865207a65726f206164647265737300604482015260640160405180910390fd5b6200016a60008383640100000000620001f7810204565b80600260008282546200017e9190620002bc565b9091555050600160a060020a03821660009081526020819052604081208054839290620001ad908490620002bc565b9091555050604051818152600160a060020a038316906000907fddf252ad1be2c89b69c2b068fc378daa952ba7f163c4a11628f55a4df523b3ef9060200160405180910390a35050565b6001600560008282546200020c9190620002bc565b9091555050505050565b8280546200022490620002fc565b90600052602060002090601f01602090048101928262000248576000855562000293565b82601f106200026357805160ff191683800117855562000293565b8280016001018555821562000293579182015b828111156200029357825182559160200191906001019062000276565b50620002a1929150620002a5565b5090565b5b80821115620002a15760008155600101620002a6565b60008219821115620002f7577f4e487b7100000000000000000000000000000000000000000000000000000000600052601160045260246000fd5b500190565b6002810460018216806200031157607f821691505b602082108114156200034c577f4e487b7100000000000000000000000000000000000000000000000000000000600052602260045260246000fd5b50919050565b610d3b80620003626000396000f3fe608060405234801561001057600080fd5b5060043610610107576000357c01000000000000000000000000000000000000000000000000000000009004806340c10f19116100a95780639dc29fac116100835780639dc29fac146101e7578063a457c2d7146101fa578063a9059cbb1461020d578063dd62ed3e1461022057600080fd5b806340c10f19146101a157806370a08231146101b657806395d89b41146101df57600080fd5b806318160ddd116100e557806318160ddd1461016457806323b872dd1461016c578063313ce5671461017f578063395093511461018e57600080fd5b806306fdde031461010c578063095ea7b31461012a578063160f00c11461014d575b600080fd5b610114610259565b6040516101219190610bfe565b60405180910390f35b61013d610138366004610bd4565b6102eb565b6040519015158152602001610121565b61015660055481565b604051908152602001610121565b600254610156565b61013d61017a366004610b98565b610301565b60405160128152602001610121565b61013d61019c366004610bd4565b6103cf565b6101b46101af366004610bd4565b610406565b005b6101566101c4366004610b43565b600160a060020a031660009081526020819052604090205490565b610114610414565b6101b46101f5366004610bd4565b610423565b61013d610208366004610bd4565b61042d565b61013d61021b366004610bd4565b6104e3565b61015661022e366004610b65565b600160a060020a03918216600090815260016020908152604080832093909416825291909152205490565b60606003805461026890610c82565b80601f016020809104026020016040519081016040528092919081815260200182805461029490610c82565b80156102e15780601f106102b6576101008083540402835291602001916102e1565b820191906000526020600020905b8154815290600101906020018083116102c457829003601f168201915b5050505050905090565b60006102f83384846104f0565b50600192915050565b600061030e84848461064f565b600160a060020a0384166000908152600160209081526040808320338452909152902054828110156103b05760405160e560020a62461bcd02815260206004820152602860248201527f45524332303a207472616e7366657220616d6f756e742065786365656473206160448201527f6c6c6f77616e636500000000000000000000000000000000000000000000000060648201526084015b60405180910390fd5b6103c485336103bf8685610c6b565b6104f0565b506001949350505050565b336000818152600160209081526040808320600160a060020a038716845290915281205490916102f89185906103bf908690610c53565b6104108282610884565b5050565b60606004805461026890610c82565b6104108282610972565b336000908152600160209081526040808320600160a060020a0386168452909152812054828110156104ca5760405160e560020a62461bcd02815260206004820152602560248201527f45524332303a2064656372656173656420616c6c6f77616e63652062656c6f7760448201527f207a65726f00000000000000000000000000000000000000000000000000000060648201526084016103a7565b6104d933856103bf8685610c6b565b5060019392505050565b60006102f833848461064f565b600160a060020a03831661056e5760405160e560020a62461bcd028152602060048201526024808201527f45524332303a20617070726f76652066726f6d20746865207a65726f2061646460448201527f726573730000000000000000000000000000000000000000000000000000000060648201526084016103a7565b600160a060020a0382166105ed5760405160e560020a62461bcd02815260206004820152602260248201527f45524332303a20617070726f766520746f20746865207a65726f20616464726560448201527f737300000000000000000000000000000000000000000000000000000000000060648201526084016103a7565b600160a060020a0383811660008181526001602090815260408083209487168084529482529182902085905590518481527f8c5be1e5ebec7d5bd14f71427d1e84f3dd0314c0f7b2291e5b200ac8c7c3b92591015b60405180910390a3505050565b600160a060020a0383166106ce5760405160e560020a62461bcd02815260206004820152602560248201527f45524332303a207472616e736665722066726f6d20746865207a65726f20616460448201527f647265737300000000000000000000000000000000000000000000000000000060648201526084016103a7565b600160a060020a03821661074d5760405160e560020a62461bcd02815260206004820152602360248201527f45524332303a207472616e7366657220746f20746865207a65726f206164647260448201527f657373000000000000000000000000000000000000000000000000000000000060648201526084016103a7565b610758838383610b0a565b600160a060020a038316600090815260208190526040902054818110156107ea5760405160e560020a62461bcd02815260206004820152602660248201527f45524332303a207472616e7366657220616d6f756e742065786365656473206260448201527f616c616e6365000000000000000000000000000000000000000000000000000060648201526084016103a7565b6107f48282610c6b565b600160a060020a03808616600090815260208190526040808220939093559085168152908120805484929061082a908490610c53565b9250508190555082600160a060020a031684600160a060020a03167fddf252ad1be2c89b69c2b068fc378daa952ba7f163c4a11628f55a4df523b3ef8460405161087691815260200190565b60405180910390a350505050565b600160a060020a0382166108dd5760405160e560020a62461bcd02815260206004820152601f60248201527f45524332303a206d696e7420746f20746865207a65726f20616464726573730060448201526064016103a7565b6108e960008383610b0a565b80600260008282546108fb9190610c53565b9091555050600160a060020a03821660009081526020819052604081208054839290610928908490610c53565b9091555050604051818152600160a060020a038316906000907fddf252ad1be2c89b69c2b068fc378daa952ba7f163c4a11628f55a4df523b3ef9060200160405180910390a35050565b600160a060020a0382166109f15760405160e560020a62461bcd02815260206004820152602160248201527f45524332303a206275726e2066726f6d20746865207a65726f2061646472657360448201527f730000000000000000000000000000000000000000000000000000000000000060648201526084016103a7565b6109fd82600083610b0a565b600160a060020a03821660009081526020819052604090205481811015610a8f5760405160e560020a62461bcd02815260206004820152602260248201527f45524332303a206275726e20616d6f756e7420657863656564732062616c616e60448201527f636500000000000000000000000000000000000000000000000000000000000060648201526084016103a7565b610a998282610c6b565b600160a060020a03841660009081526020819052604081209190915560028054849290610ac7908490610c6b565b9091555050604051828152600090600160a060020a038516907fddf252ad1be2c89b69c2b068fc378daa952ba7f163c4a11628f55a4df523b3ef90602001610642565b600160056000828254610b1d9190610c53565b9091555050505050565b8035600160a060020a0381168114610b3e57600080fd5b919050565b600060208284031215610b5557600080fd5b610b5e82610b27565b9392505050565b60008060408385031215610b7857600080fd5b610b8183610b27565b9150610b8f60208401610b27565b90509250929050565b600080600060608486031215610bad57600080fd5b610bb684610b27565b9250610bc460208501610b27565b9150604084013590509250925092565b60008060408385031215610be757600080fd5b610bf083610b27565b946020939093013593505050565b600060208083528351808285015260005b81811015610c2b57858101830151858201604001528201610c0f565b81811115610c3d576000604083870101525b50601f01601f1916929092016040019392505050565b60008219821115610c6657610c66610cd6565b500190565b600082821015610c7d57610c7d610cd6565b500390565b600281046001821680610c9657607f821691505b60208210811415610cd0577f4e487b7100000000000000000000000000000000000000000000000000000000600052602260045260246000fd5b50919050565b7f4e487b7100000000000000000000000000000000000000000000000000000000600052601160045260246000fdfea2646970667358221220033bfd3bc8bee4fd2819dd9eedafa7f16867ccc876b4f827d4fc18cecc2c813164736f6c63430008050033",
					"opcodes": "PUSH1 0x80 PUSH1 0x40 MSTORE PUSH1 0x0 PUSH1 0x5 SSTORE CALLVALUE DUP1 ISZERO PUSH3 0x16 JUMPI PUSH1 0x0 DUP1 REVERT JUMPDEST POP PUSH1 0x40 MLOAD DUP1 PUSH1 0x40 ADD PUSH1 0x40 MSTORE DUP1 PUSH1 0x5 DUP2 MSTORE PUSH1 0x20 ADD PUSH32 0x546F6B656E000000000000000000000000000000000000000000000000000000 DUP2 MSTORE POP PUSH1 0x40 MLOAD DUP1 PUSH1 0x40 ADD PUSH1 0x40 MSTORE DUP1 PUSH1 0x3 DUP2 MSTORE PUSH1 0x20 ADD PUSH32 0x544B4E0000000000000000000000000000000000000000000000000000000000 DUP2 MSTORE POP DUP2 PUSH1 0x3 SWAP1 DUP1 MLOAD SWAP1 PUSH1 0x20 ADD SWAP1 PUSH3 0x9B SWAP3 SWAP2 SWAP1 PUSH3 0x216 JUMP JUMPDEST POP DUP1 MLOAD PUSH3 0xB1 SWAP1 PUSH1 0x4 SWAP1 PUSH1 0x20 DUP5 ADD SWAP1 PUSH3 0x216 JUMP JUMPDEST POP POP POP PUSH3 0xD8 CALLER PUSH9 0x3635C9ADC5DEA00000 PUSH3 0xDE PUSH5 0x100000000 MUL PUSH5 0x100000000 SWAP1 DIV JUMP JUMPDEST PUSH3 0x352 JUMP JUMPDEST PUSH1 0x1 PUSH1 0xA0 PUSH1 0x2 EXP SUB DUP3 AND PUSH3 0x153 JUMPI PUSH1 0x40 MLOAD PUSH32 0x8C379A000000000000000000000000000000000000000000000000000000000 DUP2 MSTORE PUSH1 0x20 PUSH1 0x4 DUP3 ADD MSTORE PUSH1 0x1F PUSH1 0x24 DUP3 ADD MSTORE PUSH32 0x45524332303A206D696E7420746F20746865207A65726F206164647265737300 PUSH1 0x44 DUP3 ADD MSTORE PUSH1 0x64 ADD PUSH1 0x40 MLOAD DUP1 SWAP2 SUB SWAP1 REVERT JUMPDEST PUSH3 0x16A PUSH1 0x0 DUP4 DUP4 PUSH5 0x100000000 PUSH3 0x1F7 DUP2 MUL DIV JUMP JUMPDEST DUP1 PUSH1 0x2 PUSH1 0x0 DUP3 DUP3 SLOAD PUSH3 0x17E SWAP2 SWAP1 PUSH3 0x2BC JUMP JUMPDEST SWAP1 SWAP2 SSTORE POP POP PUSH1 0x1 PUSH1 0xA0 PUSH1 0x2 EXP SUB DUP3 AND PUSH1 0x0 SWAP1 DUP2 MSTORE PUSH1 0x20 DUP2 SWAP1 MSTORE PUSH1 0x40 DUP2 KECCAK256 DUP1 SLOAD DUP4 SWAP3 SWAP1 PUSH3 0x1AD SWAP1 DUP5 SWAP1 PUSH3 0x2BC JUMP JUMPDEST SWAP1 SWAP2 SSTORE POP POP PUSH1 0x40 MLOAD DUP2 DUP2 MSTORE PUSH1 0x1 PUSH1 0xA0 PUSH1 0x2 EXP SUB DUP4 AND SWAP1 PUSH1 0x0 SWAP1 PUSH32 0xDDF252AD1BE2C89B69C2B068FC378DAA952BA7F163C4A11628F55A4DF523B3EF SWAP1 PUSH1 0x20 ADD PUSH1 0x40 MLOAD DUP1 SWAP2 SUB SWAP1 LOG3 POP POP JUMP JUMPDEST PUSH1 0x1 PUSH1 0x5 PUSH1 0x0 DUP3 DUP3 SLOAD PUSH3 0x20C SWAP2 SWAP1 PUSH3 0x2BC JUMP JUMPDEST SWAP1 SWAP2 SSTORE POP POP POP POP POP JUMP JUMPDEST DUP3 DUP1 SLOAD PUSH3 0x224 SWAP1 PUSH3 0x2FC JUMP JUMPDEST SWAP1 PUSH1 0x0 MSTORE PUSH1 0x20 PUSH1 0x0 KECCAK256 SWAP1 PUSH1 0x1F ADD PUSH1 0x20 SWAP1 DIV DUP2 ADD SWAP3 DUP3 PUSH3 0x248 JUMPI PUSH1 0x0 DUP6 SSTORE PUSH3 0x293 JUMP JUMPDEST DUP3 PUSH1 0x1F LT PUSH3 0x263 JUMPI DUP1 MLOAD PUSH1 0xFF NOT AND DUP4 DUP1 ADD OR DUP6 SSTORE PUSH3 0x293 JUMP JUMPDEST DUP3 DUP1 ADD PUSH1 0x1 ADD DUP6 SSTORE DUP3 ISZERO PUSH3 0x293 JUMPI SWAP2 DUP3 ADD JUMPDEST DUP3 DUP2 GT ISZERO PUSH3 0x293 JUMPI DUP3 MLOAD DUP3 SSTORE SWAP2 PUSH1 0x20 ADD SWAP2 SWAP1 PUSH1 0x1 ADD SWAP1 PUSH3 0x276 JUMP JUMPDEST POP PUSH3 0x2A1 SWAP3 SWAP2 POP PUSH3 0x2A5 JUMP JUMPDEST POP SWAP1 JUMP JUMPDEST JUMPDEST DUP1 DUP3 GT ISZERO PUSH3 0x2A1 JUMPI PUSH1 0x0 DUP2 SSTORE PUSH1 0x1 ADD PUSH3 0x2A6 JUMP JUMPDEST PUSH1 0x0 DUP3 NOT DUP3 GT ISZERO PUSH3 0x2F7 JUMPI PUSH32 0x4E487B7100000000000000000000000000000000000000000000000000000000 PUSH1 0x0 MSTORE PUSH1 0x11 PUSH1 0x4 MSTORE PUSH1 0x24 PUSH1 0x0 REVERT JUMPDEST POP ADD SWAP1 JUMP JUMPDEST PUSH1 0x2 DUP2 DIV PUSH1 0x1 DUP3 AND DUP1 PUSH3 0x311 JUMPI PUSH1 0x7F DUP3 AND SWAP2 POP JUMPDEST PUSH1 0x20 DUP3 LT DUP2 EQ ISZERO PUSH3 0x34C JUMPI PUSH32 0x4E487B7100000000000000000000000000000000000000000000000000000000 PUSH1 0x0 MSTORE PUSH1 0x22 PUSH1 0x4 MSTORE PUSH1 0x24 PUSH1 0x0 REVERT JUMPDEST POP SWAP2 SWAP1 POP JUMP JUMPDEST PUSH2 0xD3B DUP1 PUSH3 0x362 PUSH1 0x0 CODECOPY PUSH1 0x0 RETURN INVALID PUSH1 0x80 PUSH1 0x40 MSTORE CALLVALUE DUP1 ISZERO PUSH2 0x10 JUMPI PUSH1 0x0 DUP1 REVERT JUMPDEST POP PUSH1 0x4 CALLDATASIZE LT PUSH2 0x107 JUMPI PUSH1 0x0 CALLDATALOAD PUSH29 0x100000000000000000000000000000000000000000000000000000000 SWAP1 DIV DUP1 PUSH4 0x40C10F19 GT PUSH2 0xA9 JUMPI DUP1 PUSH4 0x9DC29FAC GT PUSH2 0x83 JUMPI DUP1 PUSH4 0x9DC29FAC EQ PUSH2 0x1E7 JUMPI DUP1 PUSH4 0xA457C2D7 EQ PUSH2 0x1FA JUMPI DUP1 PUSH4 0xA9059CBB EQ PUSH2 0x20D JUMPI DUP1 PUSH4 0xDD62ED3E EQ PUSH2 0x220 JUMPI PUSH1 0x0 DUP1 REVERT JUMPDEST DUP1 PUSH4 0x40C10F19 EQ PUSH2 0x1A1 JUMPI DUP1 PUSH4 0x70A08231 EQ PUSH2 0x1B6 JUMPI DUP1 PUSH4 0x95D89B41 EQ PUSH2 0x1DF JUMPI PUSH1 0x0 DUP1 REVERT JUMPDEST DUP1 PUSH4 0x18160DDD GT PUSH2 0xE5 JUMPI DUP1 PUSH4 0x18160DDD EQ PUSH2 0x164 JUMPI DUP1 PUSH4 0x23B872DD EQ PUSH2 0x16C JUMPI DUP1 PUSH4 0x313CE567 EQ PUSH2 0x17F JUMPI DUP1 PUSH4 0x39509351 EQ PUSH2 0x18E JUMPI PUSH1 0x0 DUP1 REVERT JUMPDEST DUP1 PUSH4 0x6FDDE03 EQ PUSH2 0x10C JUMPI DUP1 PUSH4 0x95EA7B3 EQ PUSH2 0x12A JUMPI DUP1 PUSH4 0x160F00C1 EQ PUSH2 0x14D JUMPI JUMPDEST PUSH1 0x0 DUP1 REVERT JUMPDEST PUSH2 0x114 PUSH2 0x259 JUMP JUMPDEST PUSH1 0x40 MLOAD PUSH2 0x121 SWAP2 SWAP1 PUSH2 0xBFE JUMP JUMPDEST PUSH1 0x40 MLOAD DUP1 SWAP2 SUB SWAP1 RETURN JUMPDEST PUSH2 0x13D PUSH2 0x138 CALLDATASIZE PUSH1 0x4 PUSH2 0xBD4 JUMP JUMPDEST PUSH2 0x2EB JUMP JUMPDEST PUSH1 0x40 MLOAD SWAP1 ISZERO ISZERO DUP2 MSTORE PUSH1 0x20 ADD PUSH2 0x121 JUMP JUMPDEST PUSH2 0x156 PUSH1 0x5 SLOAD DUP2 JUMP JUMPDEST PUSH1 0x40 MLOAD SWAP1 DUP2 MSTORE PUSH1 0x20 ADD PUSH2 0x121 JUMP JUMPDEST PUSH1 0x2 SLOAD PUSH2 0x156 JUMP JUMPDEST PUSH2 0x13D PUSH2 0x17A CALLDATASIZE PUSH1 0x4 PUSH2 0xB98 JUMP JUMPDEST PUSH2 0x301 JUMP JUMPDEST PUSH1 0x40 MLOAD PUSH1 0x12 DUP2 MSTORE PUSH1 0x20 ADD PUSH2 0x121 JUMP JUMPDEST PUSH2 0x13D PUSH2 0x19C CALLDATASIZE PUSH1 0x4 PUSH2 0xBD4 JUMP JUMPDEST PUSH2 0x3CF JUMP JUMPDEST PUSH2 0x1B4 PUSH2 0x1AF CALLDATASIZE PUSH1 0x4 PUSH2 0xBD4 JUMP JUMPDEST PUSH2 0x406 JUMP JUMPDEST STOP JUMPDEST PUSH2 0x156 PUSH2 0x1C4 CALLDATASIZE PUSH1 0x4 PUSH2 0xB43 JUMP JUMPDEST PUSH1 0x1 PUSH1 0xA0 PUSH1 0x2 EXP SUB AND PUSH1 0x0 SWAP1 DUP2 MSTORE PUSH1 0x20 DUP2 SWAP1 MSTORE PUSH1 0x40 SWAP1 KECCAK256 SLOAD SWAP1 JUMP JUMPDEST PUSH2 0x114 PUSH2 0x414 JUMP JUMPDEST PUSH2 0x1B4 PUSH2 0x1F5 CALLDATASIZE PUSH1 0x4 PUSH2 0xBD4 JUMP JUMPDEST PUSH2 0x423 JUMP JUMPDEST PUSH2 0x13D PUSH2 0x208 CALLDATASIZE PUSH1 0x4 PUSH2 0xBD4 JUMP JUMPDEST PUSH2 0x42D JUMP JUMPDEST PUSH2 0x13D PUSH2 0x21B CALLDATASIZE PUSH1 0x4 PUSH2 0xBD4 JUMP JUMPDEST PUSH2 0x4E3 JUMP JUMPDEST PUSH2 0x156 PUSH2 0x22E CALLDATASIZE PUSH1 0x4 PUSH2 0xB65 JUMP JUMPDEST PUSH1 0x1 PUSH1 0xA0 PUSH1 0x2 EXP SUB SWAP2 DUP3 AND PUSH1 0x0 SWAP1 DUP2 MSTORE PUSH1 0x1 PUSH1 0x20 SWAP1 DUP2 MSTORE PUSH1 0x40 DUP1 DUP4 KECCAK256 SWAP4 SWAP1 SWAP5 AND DUP3 MSTORE SWAP2 SWAP1 SWAP2 MSTORE KECCAK256 SLOAD SWAP1 JUMP JUMPDEST PUSH1 0x60 PUSH1 0x3 DUP1 SLOAD PUSH2 0x268 SWAP1 PUSH2 0xC82 JUMP JUMPDEST DUP1 PUSH1 0x1F ADD PUSH1 0x20 DUP1 SWAP2 DIV MUL PUSH1 0x20 ADD PUSH1 0x40 MLOAD SWAP1 DUP2 ADD PUSH1 0x40 MSTORE DUP1 SWAP3 SWAP2 SWAP1 DUP2 DUP2 MSTORE PUSH1 0x20 ADD DUP3 DUP1 SLOAD PUSH2 0x294 SWAP1 PUSH2 0xC82 JUMP JUMPDEST DUP1 ISZERO PUSH2 0x2E1 JUMPI DUP1 PUSH1 0x1F LT PUSH2 0x2B6 JUMPI PUSH2 0x100 DUP1 DUP4 SLOAD DIV MUL DUP4 MSTORE SWAP2 PUSH1 0x20 ADD SWAP2 PUSH2 0x2E1 JUMP JUMPDEST DUP3 ADD SWAP2 SWAP1 PUSH1 0x0 MSTORE PUSH1 0x20 PUSH1 0x0 KECCAK256 SWAP1 JUMPDEST DUP2 SLOAD DUP2 MSTORE SWAP1 PUSH1 0x1 ADD SWAP1 PUSH1 0x20 ADD DUP1 DUP4 GT PUSH2 0x2C4 JUMPI DUP3 SWAP1 SUB PUSH1 0x1F AND DUP3 ADD SWAP2 JUMPDEST POP POP POP POP POP SWAP1 POP SWAP1 JUMP JUMPDEST PUSH1 0x0 PUSH2 0x2F8 CALLER DUP5 DUP5 PUSH2 0x4F0 JUMP JUMPDEST POP PUSH1 0x1 SWAP3 SWAP2 POP POP JUMP JUMPDEST PUSH1 0x0 PUSH2 0x30E DUP5 DUP5 DUP5 PUSH2 0x64F JUMP JUMPDEST PUSH1 0x1 PUSH1 0xA0 PUSH1 0x2 EXP SUB DUP5 AND PUSH1 0x0 SWAP1 DUP2 MSTORE PUSH1 0x1 PUSH1 0x20 SWAP1 DUP2 MSTORE PUSH1 0x40 DUP1 DUP4 KECCAK256 CALLER DUP5 MSTORE SWAP1 SWAP2 MSTORE SWAP1 KECCAK256 SLOAD DUP3 DUP2 LT ISZERO PUSH2 0x3B0 JUMPI PUSH1 0x40 MLOAD PUSH1 0xE5 PUSH1 0x2 EXP PUSH3 0x461BCD MUL DUP2 MSTORE PUSH1 0x20 PUSH1 0x4 DUP3 ADD MSTORE PUSH1 0x28 PUSH1 0x24 DUP3 ADD MSTORE PUSH32 0x45524332303A207472616E7366657220616D6F756E7420657863656564732061 PUSH1 0x44 DUP3 ADD MSTORE PUSH32 0x6C6C6F77616E6365000000000000000000000000000000000000000000000000 PUSH1 0x64 DUP3 ADD MSTORE PUSH1 0x84 ADD JUMPDEST PUSH1 0x40 MLOAD DUP1 SWAP2 SUB SWAP1 REVERT JUMPDEST PUSH2 0x3C4 DUP6 CALLER PUSH2 0x3BF DUP7 DUP6 PUSH2 0xC6B JUMP JUMPDEST PUSH2 0x4F0 JUMP JUMPDEST POP PUSH1 0x1 SWAP5 SWAP4 POP POP POP POP JUMP JUMPDEST CALLER PUSH1 0x0 DUP2 DUP2 MSTORE PUSH1 0x1 PUSH1 0x20 SWAP1 DUP2 MSTORE PUSH1 0x40 DUP1 DUP4 KECCAK256 PUSH1 0x1 PUSH1 0xA0 PUSH1 0x2 EXP SUB DUP8 AND DUP5 MSTORE SWAP1 SWAP2 MSTORE DUP2 KECCAK256 SLOAD SWAP1 SWAP2 PUSH2 0x2F8 SWAP2 DUP6 SWAP1 PUSH2 0x3BF SWAP1 DUP7 SWAP1 PUSH2 0xC53 JUMP JUMPDEST PUSH2 0x410 DUP3 DUP3 PUSH2 0x884 JUMP JUMPDEST POP POP JUMP JUMPDEST PUSH1 0x60 PUSH1 0x4 DUP1 SLOAD PUSH2 0x268 SWAP1 PUSH2 0xC82 JUMP JUMPDEST PUSH2 0x410 DUP3 DUP3 PUSH2 0x972 JUMP JUMPDEST CALLER PUSH1 0x0 SWAP1 DUP2 MSTORE PUSH1 0x1 PUSH1 0x20 SWAP1 DUP2 MSTORE PUSH1 0x40 DUP1 DUP4 KECCAK256 PUSH1 0x1 PUSH1 0xA0 PUSH1 0x2 EXP SUB DUP7 AND DUP5 MSTORE SWAP1 SWAP2 MSTORE DUP2 KECCAK256 SLOAD DUP3 DUP2 LT ISZERO PUSH2 0x4CA JUMPI PUSH1 0x40 MLOAD PUSH1 0xE5 PUSH1 0x2 EXP PUSH3 0x461BCD MUL DUP2 MSTORE PUSH1 0x20 PUSH1 0x4 DUP3 ADD MSTORE PUSH1 0x25 PUSH1 0x24 DUP3 ADD MSTORE PUSH32 0x45524332303A2064656372656173656420616C6C6F77616E63652062656C6F77 PUSH1 0x44 DUP3 ADD MSTORE PUSH32 0x207A65726F000000000000000000000000000000000000000000000000000000 PUSH1 0x64 DUP3 ADD MSTORE PUSH1 0x84 ADD PUSH2 0x3A7 JUMP JUMPDEST PUSH2 0x4D9 CALLER DUP6 PUSH2 0x3BF DUP7 DUP6 PUSH2 0xC6B JUMP JUMPDEST POP PUSH1 0x1 SWAP4 SWAP3 POP POP POP JUMP JUMPDEST PUSH1 0x0 PUSH2 0x2F8 CALLER DUP5 DUP5 PUSH2 0x64F JUMP JUMPDEST PUSH1 0x1 PUSH1 0xA0 PUSH1 0x2 EXP SUB DUP4 AND PUSH2 0x56E JUMPI PUSH1 0x40 MLOAD PUSH1 0xE5 PUSH1 0x2 EXP PUSH3 0x461BCD MUL DUP2 MSTORE PUSH1 0x20 PUSH1 0x4 DUP3 ADD MSTORE PUSH1 0x24 DUP1 DUP3 ADD MSTORE PUSH32 0x45524332303A20617070726F76652066726F6D20746865207A65726F20616464 PUSH1 0x44 DUP3 ADD MSTORE PUSH32 0x7265737300000000000000000000000000000000000000000000000000000000 PUSH1 0x64 DUP3 ADD MSTORE PUSH1 0x84 ADD PUSH2 0x3A7 JUMP JUMPDEST PUSH1 0x1 PUSH1 0xA0 PUSH1 0x2 EXP SUB DUP3 AND PUSH2 0x5ED JUMPI PUSH1 0x40 MLOAD PUSH1 0xE5 PUSH1 0x2 EXP PUSH3 0x461BCD MUL DUP2 MSTORE PUSH1 0x20 PUSH1 0x4 DUP3 ADD MSTORE PUSH1 0x22 PUSH1 0x24 DUP3 ADD MSTORE PUSH32 0x45524332303A20617070726F766520746F20746865207A65726F206164647265 PUSH1 0x44 DUP3 ADD MSTORE PUSH32 0x7373000000000000000000000000000000000000000000000000000000000000 PUSH1 0x64 DUP3 ADD MSTORE PUSH1 0x84 ADD PUSH2 0x3A7 JUMP JUMPDEST PUSH1 0x1 PUSH1 0xA0 PUSH1 0x2 EXP SUB DUP4 DUP2 AND PUSH1 0x0 DUP2 DUP2 MSTORE PUSH1 0x1 PUSH1 0x20 SWAP1 DUP2 MSTORE PUSH1 0x40 DUP1 DUP4 KECCAK256 SWAP5 DUP8 AND DUP1 DUP5 MSTORE SWAP5 DUP3 MSTORE SWAP2 DUP3 SWAP1 KECCAK256 DUP6 SWAP1 SSTORE SWAP1 MLOAD DUP5 DUP2 MSTORE PUSH32 0x8C5BE1E5EBEC7D5BD14F71427D1E84F3DD0314C0F7B2291E5B200AC8C7C3B925 SWAP2 ADD JUMPDEST PUSH1 0x40 MLOAD DUP1 SWAP2 SUB SWAP1 LOG3 POP POP POP JUMP JUMPDEST PUSH1 0x1 PUSH1 0xA0 PUSH1 0x2 EXP SUB DUP4 AND PUSH2 0x6CE JUMPI PUSH1 0x40 MLOAD PUSH1 0xE5 PUSH1 0x2 EXP PUSH3 0x461BCD MUL DUP2 MSTORE PUSH1 0x20 PUSH1 0x4 DUP3 ADD MSTORE PUSH1 0x25 PUSH1 0x24 DUP3 ADD MSTORE PUSH32 0x45524332303A207472616E736665722066726F6D20746865207A65726F206164 PUSH1 0x44 DUP3 ADD MSTORE PUSH32 0x6472657373000000000000000000000000000000000000000000000000000000 PUSH1 0x64 DUP3 ADD MSTORE PUSH1 0x84 ADD PUSH2 0x3A7 JUMP JUMPDEST PUSH1 0x1 PUSH1 0xA0 PUSH1 0x2 EXP SUB DUP3 AND PUSH2 0x74D JUMPI PUSH1 0x40 MLOAD PUSH1 0xE5 PUSH1 0x2 EXP PUSH3 0x461BCD MUL DUP2 MSTORE PUSH1 0x20 PUSH1 0x4 DUP3 ADD MSTORE PUSH1 0x23 PUSH1 0x24 DUP3 ADD MSTORE PUSH32 0x45524332303A207472616E7366657220746F20746865207A65726F2061646472 PUSH1 0x44 DUP3 ADD MSTORE PUSH32 0x6573730000000000000000000000000000000000000000000000000000000000 PUSH1 0x64 DUP3 ADD MSTORE PUSH1 0x84 ADD PUSH2 0x3A7 JUMP JUMPDEST PUSH2 0x758 DUP4 DUP4 DUP4 PUSH2 0xB0A JUMP JUMPDEST PUSH1 0x1 PUSH1 0xA0 PUSH1 0x2 EXP SUB DUP4 AND PUSH1 0x0 SWAP1 DUP2 MSTORE PUSH1 0x20 DUP2 SWAP1 MSTORE PUSH1 0x40 SWAP1 KECCAK256 SLOAD DUP2 DUP2 LT ISZERO PUSH2 0x7EA JUMPI PUSH1 0x40 MLOAD PUSH1 0xE5 PUSH1 0x2 EXP PUSH3 0x461BCD MUL DUP2 MSTORE PUSH1 0x20 PUSH1 0x4 DUP3 ADD MSTORE PUSH1 0x26 PUSH1 0x24 DUP3 ADD MSTORE PUSH32 0x45524332303A207472616E7366657220616D6F756E7420657863656564732062 PUSH1 0x44 DUP3 ADD MSTORE PUSH32 0x616C616E63650000000000000000000000000000000000000000000000000000 PUSH1 0x64 DUP3 ADD MSTORE PUSH1 0x84 ADD PUSH2 0x3A7 JUMP JUMPDEST PUSH2 0x7F4 DUP3 DUP3 PUSH2 0xC6B JUMP JUMPDEST PUSH1 0x1 PUSH1 0xA0 PUSH1 0x2 EXP SUB DUP1 DUP7 AND PUSH1 0x0 SWAP1 DUP2 MSTORE PUSH1 0x20 DUP2 SWAP1 MSTORE PUSH1 0x40 DUP1 DUP3 KECCAK256 SWAP4 SWAP1 SWAP4 SSTORE SWAP1 DUP6 AND DUP2 MSTORE SWAP1 DUP2 KECCAK256 DUP1 SLOAD DUP5 SWAP3 SWAP1 PUSH2 0x82A SWAP1 DUP5 SWAP1 PUSH2 0xC53 JUMP JUMPDEST SWAP3 POP POP DUP2 SWAP1 SSTORE POP DUP3 PUSH1 0x1 PUSH1 0xA0 PUSH1 0x2 EXP SUB AND DUP5 PUSH1 0x1 PUSH1 0xA0 PUSH1 0x2 EXP SUB AND PUSH32 0xDDF252AD1BE2C89B69C2B068FC378DAA952BA7F163C4A11628F55A4DF523B3EF DUP5 PUSH1 0x40 MLOAD PUSH2 0x876 SWAP2 DUP2 MSTORE PUSH1 0x20 ADD SWAP1 JUMP JUMPDEST PUSH1 0x40 MLOAD DUP1 SWAP2 SUB SWAP1 LOG3 POP POP POP POP JUMP JUMPDEST PUSH1 0x1 PUSH1 0xA0 PUSH1 0x2 EXP SUB DUP3 AND PUSH2 0x8DD JUMPI PUSH1 0x40 MLOAD PUSH1 0xE5 PUSH1 0x2 EXP PUSH3 0x461BCD MUL DUP2 MSTORE PUSH1 0x20 PUSH1 0x4 DUP3 ADD MSTORE PUSH1 0x1F PUSH1 0x24 DUP3 ADD MSTORE PUSH32 0x45524332303A206D696E7420746F20746865207A65726F206164647265737300 PUSH1 0x44 DUP3 ADD MSTORE PUSH1 0x64 ADD PUSH2 0x3A7 JUMP JUMPDEST PUSH2 0x8E9 PUSH1 0x0 DUP4 DUP4 PUSH2 0xB0A JUMP JUMPDEST DUP1 PUSH1 0x2 PUSH1 0x0 DUP3 DUP3 SLOAD PUSH2 0x8FB SWAP2 SWAP1 PUSH2 0xC53 JUMP JUMPDEST SWAP1 SWAP2 SSTORE POP POP PUSH1 0x1 PUSH1 0xA0 PUSH1 0x2 EXP SUB DUP3 AND PUSH1 0x0 SWAP1 DUP2 MSTORE PUSH1 0x20 DUP2 SWAP1 MSTORE PUSH1 0x40 DUP2 KECCAK256 DUP1 SLOAD DUP4 SWAP3 SWAP1 PUSH2 0x928 SWAP1 DUP5 SWAP1 PUSH2 0xC53 JUMP JUMPDEST SWAP1 SWAP2 SSTORE POP POP PUSH1 0x40 MLOAD DUP2 DUP2 MSTORE PUSH1 0x1 PUSH1 0xA0 PUSH1 0x2 EXP SUB DUP4 AND SWAP1 PUSH1 0x0 SWAP1 PUSH32 0xDDF252AD1BE2C89B69C2B068FC378DAA952BA7F163C4A11628F55A4DF523B3EF SWAP1 PUSH1 0x20 ADD PUSH1 0x40 MLOAD DUP1 SWAP2 SUB SWAP1 LOG3 POP POP JUMP JUMPDEST PUSH1 0x1 PUSH1 0xA0 PUSH1 0x2 EXP SUB DUP3 AND PUSH2 0x9F1 JUMPI PUSH1 0x40 MLOAD PUSH1 0xE5 PUSH1 0x2 EXP PUSH3 0x461BCD MUL DUP2 MSTORE PUSH1 0x20 PUSH1 0x4 DUP3 ADD MSTORE PUSH1 0x21 PUSH1 0x24 DUP3 ADD MSTORE PUSH32 0x45524332303A206275726E2066726F6D20746865207A65726F20616464726573 PUSH1 0x44 DUP3 ADD MSTORE PUSH32 0x7300000000000000000000000000000000000000000000000000000000000000 PUSH1 0x64 DUP3 ADD MSTORE PUSH1 0x84 ADD PUSH2 0x3A7 JUMP JUMPDEST PUSH2 0x9FD DUP3 PUSH1 0x0 DUP4 PUSH2 0xB0A JUMP JUMPDEST PUSH1 0x1 PUSH1 0xA0 PUSH1 0x2 EXP SUB DUP3 AND PUSH1 0x0 SWAP1 DUP2 MSTORE PUSH1 0x20 DUP2 SWAP1 MSTORE PUSH1 0x40 SWAP1 KECCAK256 SLOAD DUP2 DUP2 LT ISZERO PUSH2 0xA8F JUMPI PUSH1 0x40 MLOAD PUSH1 0xE5 PUSH1 0x2 EXP PUSH3 0x461BCD MUL DUP2 MSTORE PUSH1 0x20 PUSH1 0x4 DUP3 ADD MSTORE PUSH1 0x22 PUSH1 0x24 DUP3 ADD MSTORE PUSH32 0x45524332303A206275726E20616D6F756E7420657863656564732062616C616E PUSH1 0x44 DUP3 ADD MSTORE PUSH32 0x6365000000000000000000000000000000000000000000000000000000000000 PUSH1 0x64 DUP3 ADD MSTORE PUSH1 0x84 ADD PUSH2 0x3A7 JUMP JUMPDEST PUSH2 0xA99 DUP3 DUP3 PUSH2 0xC6B JUMP JUMPDEST PUSH1 0x1 PUSH1 0xA0 PUSH1 0x2 EXP SUB DUP5 AND PUSH1 0x0 SWAP1 DUP2 MSTORE PUSH1 0x20 DUP2 SWAP1 MSTORE PUSH1 0x40 DUP2 KECCAK256 SWAP2 SWAP1 SWAP2 SSTORE PUSH1 0x2 DUP1 SLOAD DUP5 SWAP3 SWAP1 PUSH2 0xAC7 SWAP1 DUP5 SWAP1 PUSH2 0xC6B JUMP JUMPDEST SWAP1 SWAP2 SSTORE POP POP PUSH1 0x40 MLOAD DUP3 DUP2 MSTORE PUSH1 0x0 SWAP1 PUSH1 0x1 PUSH1 0xA0 PUSH1 0x2 EXP SUB DUP6 AND SWAP1 PUSH32 0xDDF252AD1BE2C89B69C2B068FC378DAA952BA7F163C4A11628F55A4DF523B3EF SWAP1 PUSH1 0x20 ADD PUSH2 0x642 JUMP JUMPDEST PUSH1 0x1 PUSH1 0x5 PUSH1 0x0 DUP3 DUP3 SLOAD PUSH2 0xB1D SWAP2 SWAP1 PUSH2 0xC53 JUMP JUMPDEST SWAP1 SWAP2 SSTORE POP POP POP POP POP JUMP JUMPDEST DUP1 CALLDATALOAD PUSH1 0x1 PUSH1 0xA0 PUSH1 0x2 EXP SUB DUP2 AND DUP2 EQ PUSH2 0xB3E JUMPI PUSH1 0x0 DUP1 REVERT JUMPDEST SWAP2 SWAP1 POP JUMP JUMPDEST PUSH1 0x0 PUSH1 0x20 DUP3 DUP5 SUB SLT ISZERO PUSH2 0xB55 JUMPI PUSH1 0x0 DUP1 REVERT JUMPDEST PUSH2 0xB5E DUP3 PUSH2 0xB27 JUMP JUMPDEST SWAP4 SWAP3 POP POP POP JUMP JUMPDEST PUSH1 0x0 DUP1 PUSH1 0x40 DUP4 DUP6 SUB SLT ISZERO PUSH2 0xB78 JUMPI PUSH1 0x0 DUP1 REVERT JUMPDEST PUSH2 0xB81 DUP4 PUSH2 0xB27 JUMP JUMPDEST SWAP2 POP PUSH2 0xB8F PUSH1 0x20 DUP5 ADD PUSH2 0xB27 JUMP JUMPDEST SWAP1 POP SWAP3 POP SWAP3 SWAP1 POP JUMP JUMPDEST PUSH1 0x0 DUP1 PUSH1 0x0 PUSH1 0x60 DUP5 DUP7 SUB SLT ISZERO PUSH2 0xBAD JUMPI PUSH1 0x0 DUP1 REVERT JUMPDEST PUSH2 0xBB6 DUP5 PUSH2 0xB27 JUMP JUMPDEST SWAP3 POP PUSH2 0xBC4 PUSH1 0x20 DUP6 ADD PUSH2 0xB27 JUMP JUMPDEST SWAP2 POP PUSH1 0x40 DUP5 ADD CALLDATALOAD SWAP1 POP SWAP3 POP SWAP3 POP SWAP3 JUMP JUMPDEST PUSH1 0x0 DUP1 PUSH1 0x40 DUP4 DUP6 SUB SLT ISZERO PUSH2 0xBE7 JUMPI PUSH1 0x0 DUP1 REVERT JUMPDEST PUSH2 0xBF0 DUP4 PUSH2 0xB27 JUMP JUMPDEST SWAP5 PUSH1 0x20 SWAP4 SWAP1 SWAP4 ADD CALLDATALOAD SWAP4 POP POP POP JUMP JUMPDEST PUSH1 0x0 PUSH1 0x20 DUP1 DUP4 MSTORE DUP4 MLOAD DUP1 DUP3 DUP6 ADD MSTORE PUSH1 0x0 JUMPDEST DUP2 DUP2 LT ISZERO PUSH2 0xC2B JUMPI DUP6 DUP2 ADD DUP4 ADD MLOAD DUP6 DUP3 ADD PUSH1 0x40 ADD MSTORE DUP3 ADD PUSH2 0xC0F JUMP JUMPDEST DUP2 DUP2 GT ISZERO PUSH2 0xC3D JUMPI PUSH1 0x0 PUSH1 0x40 DUP4 DUP8 ADD ADD MSTORE JUMPDEST POP PUSH1 0x1F ADD PUSH1 0x1F NOT AND SWAP3 SWAP1 SWAP3 ADD PUSH1 0x40 ADD SWAP4 SWAP3 POP POP POP JUMP JUMPDEST PUSH1 0x0 DUP3 NOT DUP3 GT ISZERO PUSH2 0xC66 JUMPI PUSH2 0xC66 PUSH2 0xCD6 JUMP JUMPDEST POP ADD SWAP1 JUMP JUMPDEST PUSH1 0x0 DUP3 DUP3 LT ISZERO PUSH2 0xC7D JUMPI PUSH2 0xC7D PUSH2 0xCD6 JUMP JUMPDEST POP SUB SWAP1 JUMP JUMPDEST PUSH1 0x2 DUP2 DIV PUSH1 0x1 DUP3 AND DUP1 PUSH2 0xC96 JUMPI PUSH1 0x7F DUP3 AND SWAP2 POP JUMPDEST PUSH1 0x20 DUP3 LT DUP2 EQ ISZERO PUSH2 0xCD0 JUMPI PUSH32 0x4E487B7100000000000000000000000000000000000000000000000000000000 PUSH1 0x0 MSTORE PUSH1 0x22 PUSH1 0x4 MSTORE PUSH1 0x24 PUSH1 0x0 REVERT JUMPDEST POP SWAP2 SWAP1 POP JUMP JUMPDEST PUSH32 0x4E487B7100000000000000000000000000000000000000000000000000000000 PUSH1 0x0 MSTORE PUSH1 0x11 PUSH1 0x4 MSTORE PUSH1 0x24 PUSH1 0x0 REVERT INVALID LOG2 PUSH5 0x6970667358 0x22 SLT KECCAK256 SUB EXTCODESIZE REVERT EXTCODESIZE 0xC8 0xBE 0xE4 REVERT 0x28 NOT 0xDD SWAP15 0xED 0xAF 0xA7 CALL PUSH9 0x67CCC876B4F827D4FC XOR 0xCE 0xCC 0x2C DUP2 BALANCE PUSH5 0x736F6C6343 STOP ADDMOD SDIV STOP CALLER "
				},
				"gasEstimates": {
					"creation": {
						"codeDepositCost": "677400",
						"executionCost": "infinite",
						"totalCost": "infinite"
					},
					"external": {
						"allowance(address,address)": "infinite",
						"approve(address,uint256)": "22776",
						"balanceOf(address)": "804",
						"burn(address,uint256)": "infinite",
						"decimals()": "249",
						"decreaseAllowance(address,uint256)": "23281",
						"increaseAllowance(address,uint256)": "23314",
						"mint(address,uint256)": "infinite",
						"name()": "infinite",
						"symbol()": "infinite",
						"token_transfer_count()": "468",
						"totalSupply()": "420",
						"transfer(address,uint256)": "infinite",
						"transferFrom(address,address,uint256)": "infinite"
					},
					"internal": {
						"_beforeTokenTransfer(address,address,uint256)": "20310"
					}
				},
				"methodIdentifiers": {
					"allowance(address,address)": "dd62ed3e",
					"approve(address,uint256)": "095ea7b3",
					"balanceOf(address)": "70a08231",
					"burn(address,uint256)": "9dc29fac",
					"decimals()": "313ce567",
					"decreaseAllowance(address,uint256)": "a457c2d7",
					"increaseAllowance(address,uint256)": "39509351",
					"mint(address,uint256)": "40c10f19",
					"name()": "06fdde03",
					"symbol()": "95d89b41",
					"token_transfer_count()": "160f00c1",
					"totalSupply()": "18160ddd",
					"transfer(address,uint256)": "a9059cbb",
					"transferFrom(address,address,uint256)": "23b872dd"
				}
			},
			"storageLayout": {
				"storage": [
					{
						"astId": 79,
						"contract": "contracts/Loren.sol:MyERC20",
						"label": "_balances",
						"offset": 0,
						"slot": "0",
						"type": "t_mapping(t_address,t_uint256)"
					},
					{
						"astId": 85,
						"contract": "contracts/Loren.sol:MyERC20",
						"label": "_allowances",
						"offset": 0,
						"slot": "1",
						"type": "t_mapping(t_address,t_mapping(t_address,t_uint256))"
					},
					{
						"astId": 87,
						"contract": "contracts/Loren.sol:MyERC20",
						"label": "_totalSupply",
						"offset": 0,
						"slot": "2",
						"type": "t_uint256"
					},
					{
						"astId": 89,
						"contract": "contracts/Loren.sol:MyERC20",
						"label": "_name",
						"offset": 0,
						"slot": "3",
						"type": "t_string_storage"
					},
					{
						"astId": 91,
						"contract": "contracts/Loren.sol:MyERC20",
						"label": "_symbol",
						"offset": 0,
						"slot": "4",
						"type": "t_string_storage"
					},
					{
						"astId": 7,
						"contract": "contracts/Loren.sol:MyERC20",
						"label": "token_transfer_count",
						"offset": 0,
						"slot": "5",
						"type": "t_uint256"
					}
				],
				"types": {
					"t_address": {
						"encoding": "inplace",
						"label": "address",
						"numberOfBytes": "20"
					},
					"t_mapping(t_address,t_mapping(t_address,t_uint256))": {
						"encoding": "mapping",
						"key": "t_address",
						"label": "mapping(address => mapping(address => uint256))",
						"numberOfBytes": "32",
						"value": "t_mapping(t_address,t_uint256)"
					},
					"t_mapping(t_address,t_uint256)": {
						"encoding": "mapping",
						"key": "t_address",
						"label": "mapping(address => uint256)",
						"numberOfBytes": "32",
						"value": "t_uint256"
					},
					"t_string_storage": {
						"encoding": "bytes",
						"label": "string",
						"numberOfBytes": "32"
					},
					"t_uint256": {
						"encoding": "inplace",
						"label": "uint256",
						"numberOfBytes": "32"
					}
				}
			},
			"userdoc": {
				"kind": "user",
				"methods": {},
				"version": 1
			}
		}
	}
}