{
	"contracts/SkillsOperator.sol": {
		"MyERC20Operator": {
			"abi": [
				{
					"inputs": [
						{
							"internalType": "address",
							"name": "my_erc20_address",
							"type": "address"
						}
					],
					"stateMutability": "nonpayable",
					"type": "constructor"
				},
				{
					"inputs": [
						{
							"internalType": "address",
							"name": "",
							"type": "address"
						}
					],
					"name": "balances",
					"outputs": [
						{
							"internalType": "uint256",
							"name": "",
							"type": "uint256"
						}
					],
					"stateMutability": "view",
					"type": "function"
				},
				{
					"inputs": [
						{
							"internalType": "uint256",
							"name": "amount",
							"type": "uint256"
						}
					],
					"name": "deposit",
					"outputs": [],
					"stateMutability": "nonpayable",
					"type": "function"
				},
				{
					"inputs": [],
					"name": "retrieveTokens",
					"outputs": [],
					"stateMutability": "nonpayable",
					"type": "function"
				}
			],
			"devdoc": {
				"kind": "dev",
				"methods": {},
				"version": 1
			},
			"evm": {
				"assembly": "    /* \"contracts/SkillsOperator.sol\":166:641  contract MyERC20Operator {... */\n  mstore(0x40, 0x80)\n    /* \"contracts/SkillsOperator.sol\":258:344  constructor (address my_erc20_address)... */\n  callvalue\n  dup1\n  iszero\n  tag_1\n  jumpi\n  0x00\n  dup1\n  revert\ntag_1:\n  pop\n  mload(0x40)\n  sub(codesize, bytecodeSize)\n  dup1\n  bytecodeSize\n  dup4\n  codecopy\n  dup2\n  add\n  0x40\n  dup2\n  swap1\n  mstore\n  tag_2\n  swap2\n  tag_3\n  jump\t// in\ntag_2:\n    /* \"contracts/SkillsOperator.sol\":305:313  my_erc20 */\n  0x01\n    /* \"contracts/SkillsOperator.sol\":305:339  my_erc20 = ERC20(my_erc20_address) */\n  dup1\n  sload\n  not(sub(exp(0x02, 0xa0), 0x01))\n  and\n  sub(exp(0x02, 0xa0), 0x01)\n  swap3\n  swap1\n  swap3\n  and\n  swap2\n  swap1\n  swap2\n  or\n  swap1\n  sstore\n    /* \"contracts/SkillsOperator.sol\":166:641  contract MyERC20Operator {... */\n  jump(tag_7)\n    /* \"#utility.yul\":14:304   */\ntag_3:\n    /* \"#utility.yul\":84:90   */\n  0x00\n    /* \"#utility.yul\":137:139   */\n  0x20\n    /* \"#utility.yul\":125:134   */\n  dup3\n    /* \"#utility.yul\":116:123   */\n  dup5\n    /* \"#utility.yul\":112:135   */\n  sub\n    /* \"#utility.yul\":108:140   */\n  slt\n    /* \"#utility.yul\":105:107   */\n  iszero\n  tag_9\n  jumpi\n    /* \"#utility.yul\":153:154   */\n  0x00\n    /* \"#utility.yul\":150:151   */\n  dup1\n    /* \"#utility.yul\":143:155   */\n  revert\n    /* \"#utility.yul\":105:107   */\ntag_9:\n    /* \"#utility.yul\":179:195   */\n  dup2\n  mload\n  sub(exp(0x02, 0xa0), 0x01)\n    /* \"#utility.yul\":224:255   */\n  dup2\n  and\n    /* \"#utility.yul\":214:256   */\n  dup2\n  eq\n    /* \"#utility.yul\":204:206   */\n  tag_10\n  jumpi\n    /* \"#utility.yul\":270:271   */\n  0x00\n    /* \"#utility.yul\":267:268   */\n  dup1\n    /* \"#utility.yul\":260:272   */\n  revert\n    /* \"#utility.yul\":204:206   */\ntag_10:\n    /* \"#utility.yul\":293:298   */\n  swap4\n    /* \"#utility.yul\":95:304   */\n  swap3\n  pop\n  pop\n  pop\n  jump\t// out\ntag_7:\n    /* \"contracts/SkillsOperator.sol\":166:641  contract MyERC20Operator {... */\n  dataSize(sub_0)\n  dup1\n  dataOffset(sub_0)\n  0x00\n  codecopy\n  0x00\n  return\nstop\n\nsub_0: assembly {\n        /* \"contracts/SkillsOperator.sol\":166:641  contract MyERC20Operator {... */\n      mstore(0x40, 0x80)\n      callvalue\n      dup1\n      iszero\n      tag_1\n      jumpi\n      0x00\n      dup1\n      revert\n    tag_1:\n      pop\n      jumpi(tag_2, lt(calldatasize, 0x04))\n      div(calldataload(0x00), 0x0100000000000000000000000000000000000000000000000000000000)\n      0x27e235e3\n      dup2\n      eq\n      tag_3\n      jumpi\n      dup1\n      0x600d7003\n      eq\n      tag_4\n      jumpi\n      dup1\n      0xb6b55f25\n      eq\n      tag_5\n      jumpi\n    tag_2:\n      0x00\n      dup1\n      revert\n        /* \"contracts/SkillsOperator.sol\":196:235  mapping (address=>uint) public balances */\n    tag_3:\n      tag_6\n      tag_7\n      calldatasize\n      0x04\n      tag_8\n      jump\t// in\n    tag_7:\n      0x00\n      0x20\n      dup2\n      swap1\n      mstore\n      swap1\n      dup2\n      mstore\n      0x40\n      swap1\n      keccak256\n      sload\n      dup2\n      jump\n    tag_6:\n      mload(0x40)\n        /* \"#utility.yul\":1646:1671   */\n      swap1\n      dup2\n      mstore\n        /* \"#utility.yul\":1634:1636   */\n      0x20\n        /* \"#utility.yul\":1619:1637   */\n      add\n        /* \"contracts/SkillsOperator.sol\":196:235  mapping (address=>uint) public balances */\n      mload(0x40)\n      dup1\n      swap2\n      sub\n      swap1\n      return\n        /* \"contracts/SkillsOperator.sol\":503:639  function retrieveTokens() public... */\n    tag_4:\n      tag_12\n      tag_13\n      jump\t// in\n    tag_12:\n      stop\n        /* \"contracts/SkillsOperator.sol\":348:499  function deposit(uint amount) public... */\n    tag_5:\n      tag_12\n      tag_15\n      calldatasize\n      0x04\n      tag_16\n      jump\t// in\n    tag_15:\n      tag_17\n      jump\t// in\n        /* \"contracts/SkillsOperator.sol\":503:639  function retrieveTokens() public... */\n    tag_13:\n        /* \"contracts/SkillsOperator.sol\":544:552  my_erc20 */\n      sload(0x01)\n        /* \"contracts/SkillsOperator.sol\":570:580  msg.sender */\n      caller\n        /* \"contracts/SkillsOperator.sol\":544:552  my_erc20 */\n      0x00\n        /* \"contracts/SkillsOperator.sol\":583:603  balances[msg.sender] */\n      dup2\n      dup2\n      mstore\n      0x20\n      dup2\n      swap1\n      mstore\n      0x40\n      swap1\n      dup2\n      swap1\n      keccak256\n      sload\n        /* \"contracts/SkillsOperator.sol\":544:604  my_erc20.transfer(address(msg.sender), balances[msg.sender]) */\n      swap1\n      mload\n      0xa9059cbb00000000000000000000000000000000000000000000000000000000\n      dup2\n      mstore\n      0x04\n      dup2\n      add\n        /* \"#utility.yul\":1372:1446   */\n      swap3\n      swap1\n      swap3\n      mstore\n        /* \"#utility.yul\":1462:1480   */\n      0x24\n      dup3\n      add\n        /* \"#utility.yul\":1455:1489   */\n      mstore\n        /* \"contracts/SkillsOperator.sol\":544:552  my_erc20 */\n      0xffffffffffffffffffffffffffffffffffffffff\n      swap1\n      swap2\n      and\n      swap1\n        /* \"contracts/SkillsOperator.sol\":544:561  my_erc20.transfer */\n      0xa9059cbb\n      swap1\n        /* \"#utility.yul\":1345:1363   */\n      0x44\n      add\n        /* \"contracts/SkillsOperator.sol\":544:604  my_erc20.transfer(address(msg.sender), balances[msg.sender]) */\n      0x20\n      mload(0x40)\n      dup1\n      dup4\n      sub\n      dup2\n      0x00\n      dup8\n      dup1\n      extcodesize\n      iszero\n      dup1\n      iszero\n      tag_21\n      jumpi\n      0x00\n      dup1\n      revert\n    tag_21:\n      pop\n      gas\n      call\n      iszero\n      dup1\n      iszero\n      tag_23\n      jumpi\n      returndatasize\n      0x00\n      dup1\n      returndatacopy\n      revert(0x00, returndatasize)\n    tag_23:\n      pop\n      pop\n      pop\n      pop\n      mload(0x40)\n      returndatasize\n      not(0x1f)\n      0x1f\n      dup3\n      add\n      and\n      dup3\n      add\n      dup1\n      0x40\n      mstore\n      pop\n      dup2\n      add\n      swap1\n      tag_24\n      swap2\n      swap1\n      tag_25\n      jump\t// in\n    tag_24:\n      pop\n        /* \"contracts/SkillsOperator.sol\":619:629  msg.sender */\n      caller\n        /* \"contracts/SkillsOperator.sol\":633:634  0 */\n      0x00\n        /* \"contracts/SkillsOperator.sol\":610:630  balances[msg.sender] */\n      swap1\n      dup2\n      mstore\n      0x20\n      dup2\n      swap1\n      mstore\n      0x40\n      dup2\n      keccak256\n        /* \"contracts/SkillsOperator.sol\":610:634  balances[msg.sender] = 0 */\n      sstore\n        /* \"contracts/SkillsOperator.sol\":503:639  function retrieveTokens() public... */\n      jump\t// out\n        /* \"contracts/SkillsOperator.sol\":348:499  function deposit(uint amount) public... */\n    tag_17:\n        /* \"contracts/SkillsOperator.sol\":393:401  my_erc20 */\n      sload(0x01)\n        /* \"contracts/SkillsOperator.sol\":393:458  my_erc20.transferFrom(address(msg.sender), address(this), amount) */\n      mload(0x40)\n      0x23b872dd00000000000000000000000000000000000000000000000000000000\n      dup2\n      mstore\n        /* \"contracts/SkillsOperator.sol\":423:433  msg.sender */\n      caller\n        /* \"contracts/SkillsOperator.sol\":393:458  my_erc20.transferFrom(address(msg.sender), address(this), amount) */\n      0x04\n      dup3\n      add\n        /* \"#utility.yul\":1058:1092   */\n      mstore\n        /* \"contracts/SkillsOperator.sol\":444:448  this */\n      address\n        /* \"#utility.yul\":1108:1126   */\n      0x24\n      dup3\n      add\n        /* \"#utility.yul\":1101:1144   */\n      mstore\n        /* \"#utility.yul\":1160:1178   */\n      0x44\n      dup2\n      add\n        /* \"#utility.yul\":1153:1187   */\n      dup4\n      swap1\n      mstore\n        /* \"contracts/SkillsOperator.sol\":393:401  my_erc20 */\n      0xffffffffffffffffffffffffffffffffffffffff\n      swap1\n      swap2\n      and\n      swap1\n        /* \"contracts/SkillsOperator.sol\":393:414  my_erc20.transferFrom */\n      0x23b872dd\n      swap1\n        /* \"#utility.yul\":970:988   */\n      0x64\n      add\n        /* \"contracts/SkillsOperator.sol\":393:458  my_erc20.transferFrom(address(msg.sender), address(this), amount) */\n      0x20\n      mload(0x40)\n      dup1\n      dup4\n      sub\n      dup2\n      0x00\n      dup8\n      dup1\n      extcodesize\n      iszero\n      dup1\n      iszero\n      tag_29\n      jumpi\n      0x00\n      dup1\n      revert\n    tag_29:\n      pop\n      gas\n      call\n      iszero\n      dup1\n      iszero\n      tag_31\n      jumpi\n      returndatasize\n      0x00\n      dup1\n      returndatacopy\n      revert(0x00, returndatasize)\n    tag_31:\n      pop\n      pop\n      pop\n      pop\n      mload(0x40)\n      returndatasize\n      not(0x1f)\n      0x1f\n      dup3\n      add\n      and\n      dup3\n      add\n      dup1\n      0x40\n      mstore\n      pop\n      dup2\n      add\n      swap1\n      tag_32\n      swap2\n      swap1\n      tag_25\n      jump\t// in\n    tag_32:\n      pop\n        /* \"contracts/SkillsOperator.sol\":473:483  msg.sender */\n      caller\n        /* \"contracts/SkillsOperator.sol\":464:472  balances */\n      0x00\n        /* \"contracts/SkillsOperator.sol\":464:484  balances[msg.sender] */\n      swap1\n      dup2\n      mstore\n      0x20\n      dup2\n      swap1\n      mstore\n      0x40\n      dup2\n      keccak256\n        /* \"contracts/SkillsOperator.sol\":464:494  balances[msg.sender] += amount */\n      dup1\n      sload\n        /* \"contracts/SkillsOperator.sol\":488:494  amount */\n      dup4\n      swap3\n        /* \"contracts/SkillsOperator.sol\":464:472  balances */\n      swap1\n        /* \"contracts/SkillsOperator.sol\":464:494  balances[msg.sender] += amount */\n      tag_33\n      swap1\n        /* \"contracts/SkillsOperator.sol\":488:494  amount */\n      dup5\n      swap1\n        /* \"contracts/SkillsOperator.sol\":464:494  balances[msg.sender] += amount */\n      tag_34\n      jump\t// in\n    tag_33:\n      swap1\n      swap2\n      sstore\n      pop\n      pop\n      pop\n        /* \"contracts/SkillsOperator.sol\":348:499  function deposit(uint amount) public... */\n      jump\t// out\n        /* \"#utility.yul\":14:323   */\n    tag_8:\n        /* \"#utility.yul\":73:79   */\n      0x00\n        /* \"#utility.yul\":126:128   */\n      0x20\n        /* \"#utility.yul\":114:123   */\n      dup3\n        /* \"#utility.yul\":105:112   */\n      dup5\n        /* \"#utility.yul\":101:124   */\n      sub\n        /* \"#utility.yul\":97:129   */\n      slt\n        /* \"#utility.yul\":94:96   */\n      iszero\n      tag_37\n      jumpi\n        /* \"#utility.yul\":142:143   */\n      0x00\n        /* \"#utility.yul\":139:140   */\n      dup1\n        /* \"#utility.yul\":132:144   */\n      revert\n        /* \"#utility.yul\":94:96   */\n    tag_37:\n        /* \"#utility.yul\":181:190   */\n      dup2\n        /* \"#utility.yul\":168:191   */\n      calldataload\n        /* \"#utility.yul\":231:273   */\n      0xffffffffffffffffffffffffffffffffffffffff\n        /* \"#utility.yul\":224:229   */\n      dup2\n        /* \"#utility.yul\":220:274   */\n      and\n        /* \"#utility.yul\":213:218   */\n      dup2\n        /* \"#utility.yul\":210:275   */\n      eq\n        /* \"#utility.yul\":200:202   */\n      tag_38\n      jumpi\n        /* \"#utility.yul\":289:290   */\n      0x00\n        /* \"#utility.yul\":286:287   */\n      dup1\n        /* \"#utility.yul\":279:291   */\n      revert\n        /* \"#utility.yul\":200:202   */\n    tag_38:\n        /* \"#utility.yul\":312:317   */\n      swap4\n        /* \"#utility.yul\":84:323   */\n      swap3\n      pop\n      pop\n      pop\n      jump\t// out\n        /* \"#utility.yul\":328:605   */\n    tag_25:\n        /* \"#utility.yul\":395:401   */\n      0x00\n        /* \"#utility.yul\":448:450   */\n      0x20\n        /* \"#utility.yul\":436:445   */\n      dup3\n        /* \"#utility.yul\":427:434   */\n      dup5\n        /* \"#utility.yul\":423:446   */\n      sub\n        /* \"#utility.yul\":419:451   */\n      slt\n        /* \"#utility.yul\":416:418   */\n      iszero\n      tag_40\n      jumpi\n        /* \"#utility.yul\":464:465   */\n      0x00\n        /* \"#utility.yul\":461:462   */\n      dup1\n        /* \"#utility.yul\":454:466   */\n      revert\n        /* \"#utility.yul\":416:418   */\n    tag_40:\n        /* \"#utility.yul\":496:505   */\n      dup2\n        /* \"#utility.yul\":490:506   */\n      mload\n        /* \"#utility.yul\":549:554   */\n      dup1\n        /* \"#utility.yul\":542:555   */\n      iszero\n        /* \"#utility.yul\":535:556   */\n      iszero\n        /* \"#utility.yul\":528:533   */\n      dup2\n        /* \"#utility.yul\":525:557   */\n      eq\n        /* \"#utility.yul\":515:517   */\n      tag_38\n      jumpi\n        /* \"#utility.yul\":571:572   */\n      0x00\n        /* \"#utility.yul\":568:569   */\n      dup1\n        /* \"#utility.yul\":561:573   */\n      revert\n        /* \"#utility.yul\":610:790   */\n    tag_16:\n        /* \"#utility.yul\":669:675   */\n      0x00\n        /* \"#utility.yul\":722:724   */\n      0x20\n        /* \"#utility.yul\":710:719   */\n      dup3\n        /* \"#utility.yul\":701:708   */\n      dup5\n        /* \"#utility.yul\":697:720   */\n      sub\n        /* \"#utility.yul\":693:725   */\n      slt\n        /* \"#utility.yul\":690:692   */\n      iszero\n      tag_43\n      jumpi\n        /* \"#utility.yul\":738:739   */\n      0x00\n        /* \"#utility.yul\":735:736   */\n      dup1\n        /* \"#utility.yul\":728:740   */\n      revert\n        /* \"#utility.yul\":690:692   */\n    tag_43:\n      pop\n        /* \"#utility.yul\":761:784   */\n      calldataload\n      swap2\n        /* \"#utility.yul\":680:790   */\n      swap1\n      pop\n      jump\t// out\n        /* \"#utility.yul\":1682:1964   */\n    tag_34:\n        /* \"#utility.yul\":1722:1725   */\n      0x00\n        /* \"#utility.yul\":1753:1754   */\n      dup3\n        /* \"#utility.yul\":1749:1755   */\n      not\n        /* \"#utility.yul\":1746:1747   */\n      dup3\n        /* \"#utility.yul\":1743:1756   */\n      gt\n        /* \"#utility.yul\":1740:1742   */\n      iszero\n      tag_48\n      jumpi\n        /* \"#utility.yul\":1789:1866   */\n      0x4e487b7100000000000000000000000000000000000000000000000000000000\n        /* \"#utility.yul\":1786:1787   */\n      0x00\n        /* \"#utility.yul\":1779:1867   */\n      mstore\n        /* \"#utility.yul\":1890:1894   */\n      0x11\n        /* \"#utility.yul\":1887:1888   */\n      0x04\n        /* \"#utility.yul\":1880:1895   */\n      mstore\n        /* \"#utility.yul\":1918:1922   */\n      0x24\n        /* \"#utility.yul\":1915:1916   */\n      0x00\n        /* \"#utility.yul\":1908:1923   */\n      revert\n        /* \"#utility.yul\":1740:1742   */\n    tag_48:\n      pop\n        /* \"#utility.yul\":1949:1958   */\n      add\n      swap1\n        /* \"#utility.yul\":1730:1964   */\n      jump\t// out\n\n    auxdata: 0xa2646970667358221220970fb589085258a1269a6cab7ee39a463fae62aecf2eb80a952740504ffc911d64736f6c63430008050033\n}\n",
				"bytecode": {
					"linkReferences": {},
					"object": "608060405234801561001057600080fd5b506040516103d73803806103d783398101604081905261002f91610054565b60018054600160a060020a031916600160a060020a0392909216919091179055610084565b60006020828403121561006657600080fd5b8151600160a060020a038116811461007d57600080fd5b9392505050565b610344806100936000396000f3fe608060405234801561001057600080fd5b506004361061005d577c0100000000000000000000000000000000000000000000000000000000600035046327e235e38114610062578063600d700314610094578063b6b55f251461009e575b600080fd5b610082610070366004610257565b60006020819052908152604090205481565b60405190815260200160405180910390f35b61009c6100b1565b005b61009c6100ac3660046102b6565b61017f565b60015433600081815260208190526040908190205490517fa9059cbb0000000000000000000000000000000000000000000000000000000081526004810192909252602482015273ffffffffffffffffffffffffffffffffffffffff9091169063a9059cbb90604401602060405180830381600087803b15801561013457600080fd5b505af1158015610148573d6000803e3d6000fd5b505050506040513d601f19601f8201168201806040525081019061016c9190610294565b5033600090815260208190526040812055565b6001546040517f23b872dd0000000000000000000000000000000000000000000000000000000081523360048201523060248201526044810183905273ffffffffffffffffffffffffffffffffffffffff909116906323b872dd90606401602060405180830381600087803b1580156101f757600080fd5b505af115801561020b573d6000803e3d6000fd5b505050506040513d601f19601f8201168201806040525081019061022f9190610294565b50336000908152602081905260408120805483929061024f9084906102cf565b909155505050565b60006020828403121561026957600080fd5b813573ffffffffffffffffffffffffffffffffffffffff8116811461028d57600080fd5b9392505050565b6000602082840312156102a657600080fd5b8151801515811461028d57600080fd5b6000602082840312156102c857600080fd5b5035919050565b60008219821115610309577f4e487b7100000000000000000000000000000000000000000000000000000000600052601160045260246000fd5b50019056fea2646970667358221220970fb589085258a1269a6cab7ee39a463fae62aecf2eb80a952740504ffc911d64736f6c63430008050033",
					"opcodes": "PUSH1 0x80 PUSH1 0x40 MSTORE CALLVALUE DUP1 ISZERO PUSH2 0x10 JUMPI PUSH1 0x0 DUP1 REVERT JUMPDEST POP PUSH1 0x40 MLOAD PUSH2 0x3D7 CODESIZE SUB DUP1 PUSH2 0x3D7 DUP4 CODECOPY DUP2 ADD PUSH1 0x40 DUP2 SWAP1 MSTORE PUSH2 0x2F SWAP2 PUSH2 0x54 JUMP JUMPDEST PUSH1 0x1 DUP1 SLOAD PUSH1 0x1 PUSH1 0xA0 PUSH1 0x2 EXP SUB NOT AND PUSH1 0x1 PUSH1 0xA0 PUSH1 0x2 EXP SUB SWAP3 SWAP1 SWAP3 AND SWAP2 SWAP1 SWAP2 OR SWAP1 SSTORE PUSH2 0x84 JUMP JUMPDEST PUSH1 0x0 PUSH1 0x20 DUP3 DUP5 SUB SLT ISZERO PUSH2 0x66 JUMPI PUSH1 0x0 DUP1 REVERT JUMPDEST DUP2 MLOAD PUSH1 0x1 PUSH1 0xA0 PUSH1 0x2 EXP SUB DUP2 AND DUP2 EQ PUSH2 0x7D JUMPI PUSH1 0x0 DUP1 REVERT JUMPDEST SWAP4 SWAP3 POP POP POP JUMP JUMPDEST PUSH2 0x344 DUP1 PUSH2 0x93 PUSH1 0x0 CODECOPY PUSH1 0x0 RETURN INVALID PUSH1 0x80 PUSH1 0x40 MSTORE CALLVALUE DUP1 ISZERO PUSH2 0x10 JUMPI PUSH1 0x0 DUP1 REVERT JUMPDEST POP PUSH1 0x4 CALLDATASIZE LT PUSH2 0x5D JUMPI PUSH29 0x100000000000000000000000000000000000000000000000000000000 PUSH1 0x0 CALLDATALOAD DIV PUSH4 0x27E235E3 DUP2 EQ PUSH2 0x62 JUMPI DUP1 PUSH4 0x600D7003 EQ PUSH2 0x94 JUMPI DUP1 PUSH4 0xB6B55F25 EQ PUSH2 0x9E JUMPI JUMPDEST PUSH1 0x0 DUP1 REVERT JUMPDEST PUSH2 0x82 PUSH2 0x70 CALLDATASIZE PUSH1 0x4 PUSH2 0x257 JUMP JUMPDEST PUSH1 0x0 PUSH1 0x20 DUP2 SWAP1 MSTORE SWAP1 DUP2 MSTORE PUSH1 0x40 SWAP1 KECCAK256 SLOAD DUP2 JUMP JUMPDEST PUSH1 0x40 MLOAD SWAP1 DUP2 MSTORE PUSH1 0x20 ADD PUSH1 0x40 MLOAD DUP1 SWAP2 SUB SWAP1 RETURN JUMPDEST PUSH2 0x9C PUSH2 0xB1 JUMP JUMPDEST STOP JUMPDEST PUSH2 0x9C PUSH2 0xAC CALLDATASIZE PUSH1 0x4 PUSH2 0x2B6 JUMP JUMPDEST PUSH2 0x17F JUMP JUMPDEST PUSH1 0x1 SLOAD CALLER PUSH1 0x0 DUP2 DUP2 MSTORE PUSH1 0x20 DUP2 SWAP1 MSTORE PUSH1 0x40 SWAP1 DUP2 SWAP1 KECCAK256 SLOAD SWAP1 MLOAD PUSH32 0xA9059CBB00000000000000000000000000000000000000000000000000000000 DUP2 MSTORE PUSH1 0x4 DUP2 ADD SWAP3 SWAP1 SWAP3 MSTORE PUSH1 0x24 DUP3 ADD MSTORE PUSH20 0xFFFFFFFFFFFFFFFFFFFFFFFFFFFFFFFFFFFFFFFF SWAP1 SWAP2 AND SWAP1 PUSH4 0xA9059CBB SWAP1 PUSH1 0x44 ADD PUSH1 0x20 PUSH1 0x40 MLOAD DUP1 DUP4 SUB DUP2 PUSH1 0x0 DUP8 DUP1 EXTCODESIZE ISZERO DUP1 ISZERO PUSH2 0x134 JUMPI PUSH1 0x0 DUP1 REVERT JUMPDEST POP GAS CALL ISZERO DUP1 ISZERO PUSH2 0x148 JUMPI RETURNDATASIZE PUSH1 0x0 DUP1 RETURNDATACOPY RETURNDATASIZE PUSH1 0x0 REVERT JUMPDEST POP POP POP POP PUSH1 0x40 MLOAD RETURNDATASIZE PUSH1 0x1F NOT PUSH1 0x1F DUP3 ADD AND DUP3 ADD DUP1 PUSH1 0x40 MSTORE POP DUP2 ADD SWAP1 PUSH2 0x16C SWAP2 SWAP1 PUSH2 0x294 JUMP JUMPDEST POP CALLER PUSH1 0x0 SWAP1 DUP2 MSTORE PUSH1 0x20 DUP2 SWAP1 MSTORE PUSH1 0x40 DUP2 KECCAK256 SSTORE JUMP JUMPDEST PUSH1 0x1 SLOAD PUSH1 0x40 MLOAD PUSH32 0x23B872DD00000000000000000000000000000000000000000000000000000000 DUP2 MSTORE CALLER PUSH1 0x4 DUP3 ADD MSTORE ADDRESS PUSH1 0x24 DUP3 ADD MSTORE PUSH1 0x44 DUP2 ADD DUP4 SWAP1 MSTORE PUSH20 0xFFFFFFFFFFFFFFFFFFFFFFFFFFFFFFFFFFFFFFFF SWAP1 SWAP2 AND SWAP1 PUSH4 0x23B872DD SWAP1 PUSH1 0x64 ADD PUSH1 0x20 PUSH1 0x40 MLOAD DUP1 DUP4 SUB DUP2 PUSH1 0x0 DUP8 DUP1 EXTCODESIZE ISZERO DUP1 ISZERO PUSH2 0x1F7 JUMPI PUSH1 0x0 DUP1 REVERT JUMPDEST POP GAS CALL ISZERO DUP1 ISZERO PUSH2 0x20B JUMPI RETURNDATASIZE PUSH1 0x0 DUP1 RETURNDATACOPY RETURNDATASIZE PUSH1 0x0 REVERT JUMPDEST POP POP POP POP PUSH1 0x40 MLOAD RETURNDATASIZE PUSH1 0x1F NOT PUSH1 0x1F DUP3 ADD AND DUP3 ADD DUP1 PUSH1 0x40 MSTORE POP DUP2 ADD SWAP1 PUSH2 0x22F SWAP2 SWAP1 PUSH2 0x294 JUMP JUMPDEST POP CALLER PUSH1 0x0 SWAP1 DUP2 MSTORE PUSH1 0x20 DUP2 SWAP1 MSTORE PUSH1 0x40 DUP2 KECCAK256 DUP1 SLOAD DUP4 SWAP3 SWAP1 PUSH2 0x24F SWAP1 DUP5 SWAP1 PUSH2 0x2CF JUMP JUMPDEST SWAP1 SWAP2 SSTORE POP POP POP JUMP JUMPDEST PUSH1 0x0 PUSH1 0x20 DUP3 DUP5 SUB SLT ISZERO PUSH2 0x269 JUMPI PUSH1 0x0 DUP1 REVERT JUMPDEST DUP2 CALLDATALOAD PUSH20 0xFFFFFFFFFFFFFFFFFFFFFFFFFFFFFFFFFFFFFFFF DUP2 AND DUP2 EQ PUSH2 0x28D JUMPI PUSH1 0x0 DUP1 REVERT JUMPDEST SWAP4 SWAP3 POP POP POP JUMP JUMPDEST PUSH1 0x0 PUSH1 0x20 DUP3 DUP5 SUB SLT ISZERO PUSH2 0x2A6 JUMPI PUSH1 0x0 DUP1 REVERT JUMPDEST DUP2 MLOAD DUP1 ISZERO ISZERO DUP2 EQ PUSH2 0x28D JUMPI PUSH1 0x0 DUP1 REVERT JUMPDEST PUSH1 0x0 PUSH1 0x20 DUP3 DUP5 SUB SLT ISZERO PUSH2 0x2C8 JUMPI PUSH1 0x0 DUP1 REVERT JUMPDEST POP CALLDATALOAD SWAP2 SWAP1 POP JUMP JUMPDEST PUSH1 0x0 DUP3 NOT DUP3 GT ISZERO PUSH2 0x309 JUMPI PUSH32 0x4E487B7100000000000000000000000000000000000000000000000000000000 PUSH1 0x0 MSTORE PUSH1 0x11 PUSH1 0x4 MSTORE PUSH1 0x24 PUSH1 0x0 REVERT JUMPDEST POP ADD SWAP1 JUMP INVALID LOG2 PUSH5 0x6970667358 0x22 SLT KECCAK256 SWAP8 0xF 0xB5 DUP10 ADDMOD MSTORE PC LOG1 0x26 SWAP11 PUSH13 0xAB7EE39A463FAE62AECF2EB80A SWAP6 0x27 BLOCKHASH POP 0x4F 0xFC SWAP2 SAR PUSH5 0x736F6C6343 STOP ADDMOD SDIV STOP CALLER "
				},
				"gasEstimates": {
					"creation": {
						"codeDepositCost": "167200",
						"executionCost": "infinite",
						"totalCost": "infinite"
					},
					"external": {
						"balances(address)": "543",
						"deposit(uint256)": "infinite",
						"retrieveTokens()": "infinite"
					}
				},
				"methodIdentifiers": {
					"balances(address)": "27e235e3",
					"deposit(uint256)": "b6b55f25",
					"retrieveTokens()": "600d7003"
				}
			},
			"storageLayout": {
				"storage": [
					{
						"astId": 6,
						"contract": "contracts/SkillsOperator.sol:MyERC20Operator",
						"label": "balances",
						"offset": 0,
						"slot": "0",
						"type": "t_mapping(t_address,t_uint256)"
					},
					{
						"astId": 9,
						"contract": "contracts/SkillsOperator.sol:MyERC20Operator",
						"label": "my_erc20",
						"offset": 0,
						"slot": "1",
						"type": "t_contract(ERC20)582"
					}
				],
				"types": {
					"t_address": {
						"encoding": "inplace",
						"label": "address",
						"numberOfBytes": "20"
					},
					"t_contract(ERC20)582": {
						"encoding": "inplace",
						"label": "contract ERC20",
						"numberOfBytes": "20"
					},
					"t_mapping(t_address,t_uint256)": {
						"encoding": "mapping",
						"key": "t_address",
						"label": "mapping(address => uint256)",
						"numberOfBytes": "32",
						"value": "t_uint256"
					},
					"t_uint256": {
						"encoding": "inplace",
						"label": "uint256",
						"numberOfBytes": "32"
					}
				}
			},
			"userdoc": {
				"kind": "user",
				"methods": {},
				"version": 1
			}
		}
	}
}